:040000000EEF00F00F
:0400080084EF08F089
:0C0018008CEF08F012EE00F0C4EF04F0D2
:10010000F29ED190FC6A9AEC04F088EC00F01200A8
:10011000E652E652E652FD0EE36AFE0EE36A000185
:10012000606B59EC02F0FF0E01C0E3FFFF0EE3CF5E
:1001300001F0600E016402D0FF0EE39AFD0EE3CFE2
:100140000CF00C50600FD96EDA6AFF0EE3CFDFFFC0
:10015000FD0EE3CF0CF00C50600FD96EDA6A210E61
:10016000DF6011D0FD0EE3CF0CF00C50600FD96EA4
:10017000DA6ADF6A600EE66E43EC01F0FD0EE36AB8
:10018000FE0EE36ACED7FD0EE350010F016EFD0EA9
:1001900001C0E3FF016AFE0EE3500120016EFE0E76
:1001A00001C0E3FFFD0EE3CF0CF00C50600FD96EE1
:1001B000DA6ADF6A400EE66EFC0EE3CF0CF00C50FC
:1001C0005C0FE66ED1EC01F00150D8B4AAD79AECDE
:1001D00004F0D4D7E652E652E652E65281AC03D0A0
:1001E0000C6A0C2A01D00C6AFF0E0CC0E3FF040E4F
:1001F000F66E110EF76E0800FC0EF5CFE3FF050E4C
:10020000F66E110EF76E000EF86EFD0EE124D96E3B
:10021000FF0EE220DA6E0800F5CFDFFF060EF66E65
:10022000110EF76E000EF86EFE0EE124D96EFF0E71
:10023000E220DA6E0800F5CFDFFFFC0EE3CF01F01D
:10024000440E0118D8A417D0FD0EE124D96EFF0E7C
:10025000E220DA6E420EDE18D8A40DD0FE0EE124A4
:10026000D96EFF0EE220DA6E470EDE18D8A403D056
:10027000FF0EE36AE32AFF0EE3CF01F0E552E552F9
:10028000E552E5521200FF0EE350D96EDA6A3A0EDB
:10029000DE18D8A40CD0010E0C6EFF0EE3500C2417
:1002A0000B6E0BC021F0226A8BEC01F032D02D0EC8
:1002B000E66EFE0EE350E66ED1EC01F00150D8B4CC
:1002C00003D0C9EC04F025D0350EE66EFE0EE350E7
:1002D000E66ED1EC01F00150D8B403D0CEEC04F0BE
:1002E00018D03B0EE66EFE0EE350E66ED1EC01F048
:1002F0000150D8B403D074EC04F00BD0450EE66E78
:10030000FE0EE350E66ED1EC01F00150D8A444ECAF
:1003100008F0E552120028EC08F001502B6E2BC0BB
:100320002CF028EC08F001502F6E28EC08F001505A
:100330002E6E28EC08F001502A6E1CD028EC08F034
:1003400028EC08F001502D6E20D028EC08F0015068
:10035000E66E42EC03F02B062B28D8B416D0F5D766
:100360000FEC03F035EC04F010D0210EE66EFAEC41
:1003700003F00BD02A50000AD8B4EDD7010AD8B444
:10038000EFD7050AD8B4DAD7F0D7B0EC04F0000EF6
:10039000E66EFAEC03F02A04D8A41200BAEC04F0DA
:1003A0001200E652E652FE0EE36AFF0EE36A1CD02C
:1003B000FE0EE3CF0CF0FD0EE3500C24D96EDA6A8A
:1003C000DF50D8A402D0010E2AD0FE0EE350010F58
:1003D000016EFE0E01C0E3FF016AFF0EE350012033
:1003E000016EFF0E01C0E3FFFE0EE3CF0CF0FD0E29
:1003F000E3500C24D96EDA6ADF500C6EFE0EE3CFA8
:100400000BF0FC0EE3500B240A6E0AC0F6FF100E30
:10041000F76E0800F5500C18D8B4CAD7000E016E5C
:10042000E552E552E552E552120093948184989288
:100430008682050E0C6E0F0E0B6EF10EE82EFED7A7
:100440000B2EFCD70C2EFAD7000098948694050E3C
:100450000C6E0F0E0B6EF10EE82EFED70B2EFCD796
:100460000C2EFAD7000092908090979A859A979CCC
:10047000858C979E858E050E0C6E0F0E0B6EF10E01
:10048000E82EFED70B2EFCD70C2EFAD70000929444
:100490008084050E0C6E0F0E0B6EF10EE82EFED74B
:1004A0000B2EFCD70C2EFAD70000858A98908680F8
:1004B0001200E6528EEC04F00150D8B4FBD7FF0EC8
:1004C000E36A9668858800000000000000000000D4
:1004D00085980000000000000000000084A802D001
:1004E000FF0EE38E84AC02D0FF0EE38C84AA02D010
:1004F000FF0EE38A84A202D0FF0EE38884AE02D00E
:10050000FF0EE38684A402D0FF0EE38484A602D00B
:10051000FF0EE38284A002D0FF0EE38085880000F6
:100520000000000000000000FF0EE3CF01F0E552E4
:100530001200FD0EE350D8A406D0FC0EE3CF01F06C
:10054000100E016430D0F8CF29F0FD0EE3CFF8FF94
:10055000FC0EE3CFF7FFFB0EE3CFF6FF800E7F6EBE
:10056000256A7F0E256401D011D0FE0EE3CF0BF07B
:10057000FF0EE3CF0CF025500B24D96E000E0C209B
:10058000DA6EDF50F56E0D00252AEBD7FD0EE3CFB6
:10059000F8FFFC0EE3CFF7FFFB0EE3CFF6FFA5EC71
:1005A00004F029C0F8FFFB0EE126FF0EE222120044
:1005B000E652E652FE0EE36AFF0EE36A1CD0E150FB
:1005C000FE0FD96EE250DA6EFF0EDA22DFCF0BF0AB
:1005D000010EDE26DFCF0CF0000EDD22FD0EE35013
:1005E0000B240A6E0AC0F6FF100EF76E0800F550D5
:1005F000E66EA3EC03F0FE0EE3CF0CF0FD0EE3502D
:100600000C240B6E0BC0F6FF100EF76E0800F550B1
:100610000009D8A4D4D7E552E552E5521200235080
:10062000D8B412002850D8A41DD0110E2718D8B461
:1006300026BE18D0256A7F0E256401D010D0800E0A
:100640002524D96EDA6A010EDA22000E2524E96E1D
:10065000EA6A010EEA22DFCFEFFF252AECD7010E6E
:10066000246E0DD02650800BE66E2750E66E285083
:10067000E66E800EE66E010EE66E99EC02F024EC5A
:1006800004F0120028502D18D8A409D027502F1894
:10069000D8A405D02E5026180C6E0CAE08D00FEC46
:1006A00003F02DC028F02FC027F02EC026F02E50CA
:1006B0007F0B0B6E0C6A800E0B24D96E010E0C2082
:1006C000DA6EFF0EE3CFDFFF2E2A2E50D8B42F2A8A
:1006D000010E236E2EC00CF07F0E0C16D8B40FEC5A
:1006E00003F0E5521200E65221C0D9FF22C0DAFF22
:1006F000DF500C6EFF0E0CC0E3FFFF0EE350D8B4CA
:1007000017D0FF0EE3CF01F0300E015EFF0E01C0E7
:10071000E3FFFF0EE3CF01F0090E01640DD0FF0EE1
:10072000E3CF01F0070E015EFF0E01C0E3FF04D02E
:10073000210EE66EFAEC03F0214A222AFF0EE3CFE7
:1007400001F0E5521200000000000000000000006F
:1007500085B4FED7966A846AFF0EE3BE8488FF0ED6
:10076000E3BC848CFF0EE3BA848AFF0EE3B8848274
:10077000FF0EE3B6848EFF0EE3B48484FF0EE3B273
:100780008486FF0EE3B084808586000000000000B0
:10079000000000008596000000000000000000003E
:1007A0009668E5521200E652FF0EF8CFE3FFF86AB2
:1007B000110EF76EF66A900E7F6EA5EC04F0800EB7
:1007C000F626F650D8A4F7D7F72AF750D8A4F3D7CF
:1007D000F82A010EF864EFD7FF0EE3CFF8FF266882
:1007E000276828682E6A2F6A2D6A24EC04F0246A90
:1007F000E5521200FF0EE350E66EA3EC03F0FF0E8D
:10080000E3CF01F0210E0118D8A409D0680E016EC3
:10081000E40EE82EFED7012EFCD700D0FF00E552F3
:100820001200F19E938C81EC04F015EC02F055EC73
:1008300004F0D190EAEC00F00150D8A4BAEC04F036
:1008400088EC00F00EEF00F0256A7F0E256401D0E1
:100850000AD0800E2524D96EDA6A010EDA22FF0E44
:10086000DF6E252AF2D7236A12002450D8B4120072
:10087000000EE66E110EE66E000EE66E000EE66EDF
:10088000010EE66E99EC02F01200000EF66E110EEB
:10089000F76E0900F52804E10900F528D8B403D063
:1008A000016A012A1200016A1200F29E9688968C53
:1008B000968A9682968E9684968696809796979834
:1008C00093869784858885861200FF0EE350E66E36
:1008D000D8EC02F00D0EE66EA3EC03F00A0EE66E05
:1008E000A3EC03F0E5521200240EE66ED8EC02F001
:1008F000200EE66EA3EC03F0010EE66E65EC04F04C
:100900001200D1900F01256B246B236BF06AA06A53
:10091000F26A950ED56E549F2F9F120000000000C2
:1009200000000000000081B603D0016A012A120015
:10093000016A12003C0EE66EA3EC03F0D3EC03F068
:100940003E0EE66EA3EC03F012007F84550E7E6E21
:10095000AA0E7E6E7F8200007FB2FED77F941200C7
:1009600028EC08F02C50D8B41200210EE66EFAECF8
:1009700003F0120045EC04F00150D8B41200F18EDF
:10098000FC6A80EF08F01200000EF86E000111EF13
:1009900004F0150EE66E65EC04F012004D0EE66EE6
:0609A00065EC04F01200FA
:101000000030322E30322E323032342061742030B3
:10101000393A353100424F4F544C4F41445F56539B
:101020004339300052656C65617365640056455202
:1010300053494F4E004255494C44004441544500E9
:10104000424C44520045584500455252003400007D
:10105000E65273EC03F0013AF00E0116FF0E01C0E8
:10106000E3FF73EC03F0E150FF0FD96EE250DA6E4C
:10107000FF0EDA220150DF26FF0EE3502C26FF0E72
:10108000E3CF01F0E5521200BAEC04F0490EE66E2F
:0610900065EC04F0120003
:04110000A5EF0BF05C
:10110800E9CF34F0EACF35F0E1CF36F0E2CF37F06F
:10111800D9CF38F0DACF39F0F3CF3AF04BC03BF003
:101128004CC03CF04DC03DF04EC03EF051C03FF0C9
:1011380052C040F053C041F054C042F055C043F093
:1011480056C044F019EE4BF0F0A021D0F0909494E2
:101158008294F0904AECA0F0000EE66E000EE66E67
:10116800000EE66E000EE66EF40EE66E010EE66EFA
:10117800000EE66E000EE66E240EE66E030EE66EB8
:10118800FBEC5FF086929792858298908690F0A209
:10119800DFD0F09200019251D8B460D0808C5ED03C
:1011A800460EE66E000EE66E000EE66E000EE66E69
:1011B800190EE66E000EE66E000EE66E000EE66E86
:1011C8008C0EE66E000EE66EFBEC5FF0460EE66EE9
:1011D800000EE66E000EE66E000EE66E190EE66E66
:1011E800000EE66E000EE66E000EE66E8C0EE66EE3
:1011F800000EE66EFBEC5FF0460EE66E000EE66E45
:10120800000EE66E000EE66E190EE66E000EE66E35
:10121800000EE66E000EE66E8C0EE66E000EE66EB2
:10122800FBEC5FF0000EE66E000EE66E000EE66E5A
:10123800000EE66E190EE66E000EE66E000EE66E05
:10124800000EE66E8C0EE66E000EE66EFBEC5FF0AE
:1012580000018B2B040E8B6501D002D081B4A0D77E
:10126800040E8B6523D08C51D8A420D094948294FA
:101278004AECA0F0000EE66E000EE66E000EE66E7A
:10128800000EE66EF40EE66E010EE66E000EE66ED9
:10129800000EE66E240EE66E030EE66EFBEC5FF0C3
:1012A8008692979285829890869001D08B6B215078
:1012B800D8B44ED013BE08D0550E125C0B0E13587E
:1012C800D8A002D00D0E206E13BE10D0A50E125C51
:1012D800060E1358D8A00AD013BE06D0C40E125C4E
:1012E800090E1358D8B002D00D0E206E2050D8A485
:1012F8000AD013BE06D0140E125C050E1358D8B0CF
:1013080002D0202A25D02004D8B413BE0ED0150E42
:10131800125C050E1358D8A008D013BEF2D7A40E3D
:10132800125C060E1358D8A0ECD7020E2018D8B4B9
:1013380013BE0ED0C50E125C090E1358D8A008D0E3
:1013480013BEDFD7540E125C0B0E1358D8A0D9D792
:10135800010EBAA2000EB9A2000EE8A066D0BA9299
:101368007B90F00E7D6E5F0E7C6E7B800001862B7D
:10137800FA0E866507D0866B312A3B0E316402D09F
:10138800316A982B7BBF08D07B5103E17A05D8A03E
:1013980003D07A07D8A07B0713BE06D0880E125C4C
:1013A800130E1358D8B002D0124A132A2150D8B4B9
:1013B8003AD0140E12181AE1050E1318D8A416D034
:1013C800020EE66E000EE66E000EE66E000EE66E8B
:1013D800780EE66E000EE66E000EE66E000EE66E05
:1013E800920EE66E010EE66EFBEC5FF0C40E12186C
:1013F8001AE1090E1318D8A416D0020EE66E000ED4
:10140800E66E000EE66E000EE66E780EE66E000ED4
:10141800E66E000EE66E000EE66E920EE66E010EA9
:10142800E66EFBEC5FF060EC71F0010EF2A4000ECA
:10143800F2AA000EE8A035D0F29417C045F016C005
:1014480046F0D59E45C0D7FF46C0D6FFD58E18C0FA
:1014580047F019C048F048AE08D047500008476E1A
:101468004850D8A0E82A0008486E0001CD51475CD2
:101478004850800A326ECE51800A3258D8B005D012
:10148800CF51165ED051175A0AD0D151165CD2519D
:101498001758D8B004D0CF511626D0511722BEEC19
:1014A8006DF0F0A42ED0F0946BECA2F04B50496E86
:1014B800800E326E020E336E800E3226000E3322FC
:1014C8003250145C33501558D8A004D0800E146ED6
:1014D800020E156E14501510D8B408D014C0D9FFD8
:1014E80015C0DAFF49C0DFFF144A152A0A0E491849
:1014F800D8A407D014C0D9FF15C0DAFFDF6A146A70
:10150800156A9EAAFBD0ABB402D0ABA20CD0ABA498
:1015180002D00001932BABA202D00001932BAE5056
:10152800AB98AB88EAD0AECF49F01E2AAE0E0001C8
:10153800785D02E1000E795DD8A003D09C0E786F2B
:10154800796B78517911D8B408D078C0D9FF79C0AF
:10155800DAFF49C0DFFF784B792B410E4918D8A430
:1015680002D0010E886F610E4918D8A402D0010E6E
:10157800876F4928D8B41D2A8705D8A454D01D04DC
:10158800D8A451D0886B1D6A876B9C0E786F796BD5
:101598004A6A0BD04A509C0FD96EDA6A4A50600FDB
:1015A800E96EEA6ADFCFEFFF4A2A1E504A5CD8A0EC
:1015B800F1D74A50600FD96EDA6A880EDF6E1E6A5C
:1015C800010E2C6E00019451D8A497D0320EE66E0D
:1015D800000EE66E000EE66E000EE66E140EE66E67
:1015E800000EE66E000EE66E000EE66E8C0EE66EDF
:1015F800000EE66EFBEC5FF0000EE66E000EE66E87
:10160800000EE66E000EE66E140EE66E000EE66E36
:10161800000EE66E000EE66E8C0EE66E000EE66EAE
:10162800FBEC5FF06AD08805D8A43ED0020E1D18E6
:10163800D8A43AD0886B1D6A876B9C0E786F796B3B
:101648004A6A0BD04A509C0FD96EDA6A4A50600F2A
:10165800E96EEA6ADFCFEFFF4A2A1E504A5CD8A03B
:10166800F1D74A50600FD96EDA6A880EDF6E1E6AAB
:10167800010E2C6E2B50D8B440D0000EE66E000E32
:10168800E66E000EE66E000EE66E140EE66E000EB6
:10169800E66E000EE66E000EE66E8C0EE66E000E2E
:1016A800E66EFBEC5FF029D08851D8A426D01D0443
:1016B800D8A423D0886B1D6A876B9C0E786F796BD2
:1016C8004A6A0BD04A509C0FD96EDA6A4A50600FAA
:1016D800E96EEA6ADFCFEFFF4A2A1E504A5CD8A0BB
:1016E800F1D74A50600FD96EDA6A880EDF6E1E6A2B
:1016F800010E2C6E2B50D8A4C0D79E9A44C056F029
:1017080043C055F042C054F041C053F040C052F0BD
:101718003FC051F03EC04EF03DC04DF03CC04CF0D3
:101728003BC04BF03AC0F3FF39C0DAFF38C0D9FFED
:1017380037C0E2FF36C0E1FF35C0EAFF34C0E9FF39
:10174800110013EE80F02CEF9EF00000803F002087
:101758004100C842007A44401C4650C3472474499B
:1017680097184BBCBE4C6B6E4E03155079AD60F3A9
:10177800497100803FCDCC3DD7233C12833AB7D185
:1017880038C62737388635C0D633CC2B32708930E7
:10179800E7DB2EE53C1E42A20D00000000803F0062
:1017A800803F66663FCD4C3F00403F33333F66265F
:1017B8003F9A193FCD0C3F00003F00000000000099
:1017C800100020004000800001010201040108010E
:1017D800100120010000010000000A000000640060
:1017E8000000E803000010270000A0860100404226
:1017F8000F008096980000E1F50500CA9A3B4572F3
:10180800726F722C20636F756C64206E6F74206920
:101818006E697469616C697365206C616D702074A0
:101828007261792049324320526561642F57726989
:101838007465204164647265737365732E0056394C
:101848003030204750494F206269742070617474A9
:1018580065726E2077696C6C2062652075736564AB
:1018680020666F7220544C2073706F7420616E6410
:1018780020666C6F6F642E00563930204750494FF0
:1018880020626974207061747465726E2077696C67
:101898006C206265207573656420666F7220544CF5
:1018A8002073706F7420616E6420666C6F6F642E95
:1018B80000257320253032642E253032642E2530E1
:1018C800346420617420253032643A253032640053
:1018D800496E7465726E616C2050432055534220E6
:1018E80073656C65637465640045787465726E61D0
:1018F8006C205043205553422073656C65637465B2
:10190800640030342E30372E323032342061742067
:1019180031323A323500526967687420466C6F6F0D
:101928006420494F3A20006E6F7420696E20424C43
:1019380023206D6F646521004C65667420466C6FCA
:101948006F6420494F3A2000454550524F4D575239
:10195800495445544553540056534339305F4C411C
:101968004D505452415900454E41424C45534855FB
:1019780054444F574E00454550524F4D52454144EF
:101988005445535400563930304C414D505452410F
:10199800592C00464C4F4F44494F535441544553DA
:1019A8000056393046726F6E744F56442C005638C4
:1019B800304C414D50545241592C005639304C410D
:1019C8004D50545241592C005452414E5352454F98
:1019D80052444552004153544F4B45534C45442CB7
:1019E80000425554544F4E52454144005452414EC2
:1019F80053464C4F4F44005245534554464C4F4F65
:101A080044004745544D414348494E4500534554C9
:101A18004D414348494E45005452414E5343484571
:101A2800434B00446562756767696E670052656C71
:101A3800656173656420005638305452414E532C0A
:101A4800005639305452414E532C00544F47474C9E
:101A580045555342005245534554464F5644004657
:101A68004C4F4F44534F4646005452414E53534FE8
:101A7800414B004C464C4F4F444C564C0052464C40
:101A88004F4F444C564C00424C5545475245454EE5
:101A98000053455446494C544552005345545354F9
:101AA8004F4B4553004C464C4F4F445649530052F8
:101AB800464C4F4F445649530052455345544C45A4
:101AC8004E530052454144564F4C545300524541E1
:101AD80044574154545300464F564453484946547A
:101AE8000053504F545348494654005349444552B3
:101AF80049474854005452414E53494E495400579F
:101B08004849544553504F54005452414E53535032
:101B18004F5400524553455453504F540044454C7C
:101B2800415954455354004C464C4F4F44494E5626
:101B38000052464C4F4F44494E560053504F544C58
:101B4800454441580053504F544C45444258003086
:101B5800303030313120256400313131313131209C
:101B6800256400424F4F544C4F41440052656C6508
:101B7800617365640077686174206973200058593F
:101B880053544147452C004153544F4B45532C0067
:101B980053504F544C4154410053504F544C4154AE
:101BA800420052454144464F5644005452414E5318
:101BB8004F46460052454144414D50530053494415
:101BC800454C454654004B45595041442C004C4621
:101BD8004C4F4F442C0052464C4F4F442C00454527
:101BE80050524F4D2C00302E30342E303000504F94
:101BF800525420303A00504F525420313A00444554
:101C0800455052454400544C52454F52440054529A
:101C1800414E5352440053504F544F4646004F567E
:101C280044434F4E46004C5354415455530053536C
:101C3800544154555300286E756C6C2900203D2C76
:101C48002E0A0D004552524F522C00415352454125
:101C58004400464152524544004C4255494C4400C8
:101C68005244464F5644004F56444F46460041534F
:101C78004849474800425554544F4E0056494F4C26
:101C8800455400494E54455854002E2530326400BE
:101C9800257520257500202C2E0A0D005A4F4F4D12
:101CA8002C0054454D502C0053504F542C00495291
:101CB800393430004952383530004952373830000D
:101CC8004952393830005653433930005556323569
:101CD80035005556333635005556333038005246A0
:101CE8004F56440053464F5644004C444154450017
:101CF800575249544500415344494D00414D4245CE
:101D0800520041535645520042454550580025322D
:101D18002E3166004C4D532C00524D532C00545517
:101D2800534200504441430053594E4300424155E9
:101D380044005349444500545950450047415445CF
:101D480000424C5545004C4558450050574D4600FB
:101D580043334D4D0043344D4D00454E554D0043E2
:101D680059414E00424545500054454D500050578A
:101D78004D50004333505000433450500058575092
:101D8800500041444452004C56455200434F41587C
:101D98000049462300424C230043332B0043342B95
:101DA8000058572B0043332D0043342D0041533046
:101DB80000415331005556310057313200415332FA
:101DC800005556320043313C0043333C0043343C19
:101DD8000043313E0043333E0043343E0043313F2D
:101DE8000043333F0043343F004D3F3F00533F3FE4
:101DF80000593F3F0056433F0047443F004C443F93
:101E08000056443F00564C3F00454E3F004F503F60
:101E1800004C513F0058523F0041533F004B543F44
:101E2800004C4C4000464342004932430041534471
:101E380000433146004331480043334800433448A7
:101E480000434E48004153480043314C0043334C53
:101E58000043344D0050574D0043314F0043334F3A
:101E68000043315000433450005348500049435216
:101E7800004331530043335300494E54004F5554E7
:101E880000495257004331580043335800433458EF
:101E9800004952580043315A0043335A0043345AD8
:101EA800005A237E0054300043310050310057312E
:101EB800005032005532005732004333004B330094
:101EC8005533004334005034004B35005035005032
:101ED8003600503700503800503900504200584200
:101EE800004B43005043005443004744004345001F
:101EF8004745005345005446005449004B4B0049A0
:101F08004E00534E00544F004351004C510049526B
:101F1800005452004C53005253005353004B54008A
:101F280058570000720EE126000EE222010E000151
:101F3800966F380E02018019D8A457D0FB0EE36AB9
:101F4800FB0EE350556E566A120E5524D96E010EDB
:101F58005620DA6EFB0EE350556E566A800E5524F5
:101F6800E96E020E5620EA6EEF50E66E57ECAAF0C4
:101F78004B50DF6EFB0EE32AFB0EE3CF4BF0110E46
:101F88004B64DED72C6AF3EC94F0FF0EE36A2C5016
:101F9800D8B402D0B19018D0B186B19CB19EB188A6
:101FA800B18AB192B190A192B36AB26AB18001D0FC
:101FB8000000A1A2FDD7FF0EE32AFF0EE3CF4BF0EE
:101FC80059504B5CD8A0E3D7FF0EE3CF4BF05950E4
:101FD8004B5CD8B003D07AECA7F004D0300EE66E94
:101FE800EBEC98F02C6AC5EF33F03A0E8019D8A4C0
:101FF80088D02304D8A47DD0FB0EE36AFB0EE350FF
:10200800020D810EF324D96E020EF420DA6EDF5031
:10201800D8B434D0FB0EE350020D820EF324D96EEF
:10202800020EF420DA6EDF50D8B428D0FB0EE3504D
:10203800020D810EF324556E020EF420566E55C023
:10204800E6FF56C0E6FFEDECA6F0FB0EE3CF56F038
:10205800D50EE124536EFF0EE220546E56505324E1
:10206800D96E000E5420DA6E4BC0DFFFFB0EE32A58
:10207800FB0EE3CF4BF0140E4B64C0D7FB0EE350BE
:10208800D8B4C5EF33F0FB0EE350E66ED40EE1246E
:102098004B6EFF0EE2204C6E4BC0E6FF4CC0E6FFD5
:1020A8005C0EE66E4DEC96F0010EE66E970EE1249E
:1020B8004B6EFF0EE2204C6E4BC0E6FF4CC0E6FFB5
:1020C800040EE66EDAEC92F0980EE350D8A4C5EF51
:1020D80033F00B0E4B6E620EE82EFED74B2EFCD75C
:1020E80000D0000EE66EEBEC98F00001966BC5EFA1
:1020F80033F02F0EE66E190EE66ED8ECA3F0C5EF9E
:1021080033F0FB0EE36A41D0FB0EE350556E566A7E
:10211800120E5524D96E010E5620DA6EFB0EE350CE
:10212800556E566A800E5524E96E020E5620EA6EE8
:10213800EF50E66E57ECAAF04B50DF6EDF50566E4C
:10214800FD0E56C0E3FFFD0EE350D8B42BD0FD0EB4
:10215800E3CF4BF00A0E4B18D8B424D0FD0EE3CFD2
:102168004BF0200E4B18D8B41DD0FD0EE3CF4BF02A
:102178003D0E4B18D8B416D0FD0EE3CF4BF03A0EF7
:102188004B18D8B40FD0FB0EE32AFB0EE350556E64
:10219800566A800E5524D96E020E5620DA6EDF502C
:1021A800D8A4B2D7FB0EE350556E566A120E5524CA
:1021B800D96E010E5620DA6EDF6A800E556E020E59
:1021C800566E010E5526000E5622FB0EE35055267C
:1021D800000E5622F80E56C0E3FFF70E55C0E3FF77
:1021E800FB0EE350556E566A810E5524536E020E4F
:1021F8005620546E53C0E6FF54C0E6FF000EE66E4C
:10220800030EE66E81EC9FF0FE0EE36A48D0FB0EEB
:10221800E350556E566A800E5524D96E020E56202C
:10222800DA6EDF50E66E34ECA7F04BB01ED0FB0E32
:10223800E350556E566A800E5524D96E020E56200C
:10224800DA6EDF50E66ED0ECA8F04BB00ED0FB0E85
:10225800E350556E566A800E5524D96E020E5620EC
:10226800DA6E2D0EDE18D8A418D0FB0EE350556E8A
:10227800566A800E5524D96E020E5620DA6EFE0E6E
:10228800E350556E566A000E5524E96E020E56202C
:10229800EA6EDFCFEFFFFE0EE32AFB0EE32AFB0E0A
:1022A800E350556E566A800E5524D96E020E56209C
:1022B800DA6E200EDF60ABD7FE0EE350556E566A1D
:1022C800000E5524D96E020E5620DA6EDF6A1F0EF4
:1022D800020100650DD0000EE66E020EE66E78EC87
:1022E8007FF0F50E4BC0E3FFF60E4CC0E3FF0AD0BB
:1022F800FF0E556E7F0E566EF50E55C0E3FFF60EB7
:1023080056C0E3FF9D0EE66E1D0EE66E120EE66EDB
:10231800010EE66EE7EC8CF04B504C10D8A469D057
:10232800000EE66E020EE66E33ECA2F04B504C1037
:10233800D8B45AD0660EE66E190EE66E000EE66E3A
:10234800020EE66EE7EC8CF04B504C10D8A449D046
:10235800570EE66E4F0EE66E4E0EE66E5B0EE66E9E
:1023680058ECA6F03C0EE66EEBEC98F0150E4C6EB1
:102378004B0E4B6EBE0EE82EFED74B2EFCD74C2EC6
:10238800FAD700D0320E566EFE0E56C0E3FF050E89
:102398004C6E0F0E4B6EF10EE82EFED74B2EFCD76F
:1023A8004C2EFAD70000FE0EE306FE0EE350D8B41A
:1023B80006D0B1ECA9F0620E4B18D8A4E8D7FE0EEF
:1023C800E350D8B40ED03E0EE66EEBEC98F0010E5A
:1023D800236E2350E66E000EE66EB3EC84F0C5EF74
:1023E80033F0236AC5EF33F0F29E80EC00F0C5EFBE
:1023F80033F0620EE66E1C0EE66E120EE66E010EED
:10240800E66EE7EC8CF04B504C10D8B40ED0FD0EB5
:10241800E66E1D0EE66E120EE66E010EE66EE7EC37
:102428008CF04B504C10D8A408D0EE0EE66E1B0E64
:10243800E66ECCECA0F0C5EF33F0F30EE66E1C0EA2
:10244800E66E120EE66E010EE66EE7EC8CF04B506F
:102458004C10D8B40ED0090EE66E1E0EE66E120EA3
:10246800E66E010EE66EE7EC8CF04B504C10D8A4EB
:1024780012D0350EE66E1A0EE66ECCECA0F0200EE9
:10248800E66EEBEC98F00A0EE66E190EE66ECCECF2
:10249800A0F0C5EF33F03F0EE66E1D0EE66E120E8D
:1024A800E66E010EE66EE7EC8CF04B504C10D8A4AB
:1024B80008D0CE0EE66E1C0EE66ED8ECA3F0C5EF83
:1024C80033F0350EE66E1D0EE66E120EE66E010E48
:1024D800E66EE7EC8CF04B504C10D8A42DD0F60EDD
:1024E800E3BE0AD0F60EE35011E1F50EE3CF4BF050
:1024F8000A0E4B5ED8B00AD00A0E556E000E566E04
:10250800F50E55C0E3FFF60E56C0E3FFF60EE3BE28
:102518000ED0F60EE304D8A00AD0FF0E556E000EBA
:10252800566EF50E55C0E3FFF60E56C0E3FFF50EE6
:10253800E3CF95F0C5EF33F0880EE66E190EE66E20
:10254800120EE66E010EE66EE7EC8CF04B504C1066
:10255800D8A407D0F50EE350E66EA7ECA3F0C5EFBC
:1025680033F0620EE66E1D0EE66E120EE66E010E7A
:10257800E66EE7EC8CF04B504C10D8B40ED0110E30
:10258800E66E1E0EE66E120EE66E010EE66EE7ECC5
:102598008CF04B504C10D8A4FAD0580EE66EDDECF7
:1025A800A9F04B50D8A406D0860EE66E1B0EE66E38
:1025B800D8ECA3F0860EE66EDDECA9F04B50D8A45B
:1025C80006D0D60EE66E1B0EE66ED8ECA3F0980E7B
:1025D800E66EDDECA9F04B50D8A406D0DE0EE66E10
:1025E8001B0EE66ED8ECA3F0840EE66EDDECA9F0C7
:1025F8004B50D8A406D01C0EE66E1D0EE66ED8EC25
:10260800A3F09A0EE66EDDECA9F04B50D8A406D0E4
:10261800210EE66E1D0EE66ED8ECA3F05F50E66E56
:10262800DDECA9F04B50D8A406D0B00EE66E1C0E17
:10263800E66ED8ECA3F0460EE66EDDECA9F04B5042
:10264800D8A406D03F0EE66E1A0EE66ED8ECA3F0BC
:10265800E80EE66EDDECA9F04B50D8A406D0490E82
:10266800E66E1A0EE66ED8ECA3F0500EE66EDDECC0
:10267800A9F04B50D8A406D0B60EE66E190EE66E39
:10268800D8ECA3F0520EE66EDDECA9F04B50D8A4BE
:1026980006D08D0EE66E190EE66ED8ECA3F0540E39
:1026A800E66EDDECA9F04B50D8A406D0C30EE66E5A
:1026B800190EE66ED8ECA3F0400EE66EDDECA9F03C
:1026C8004B50D8A406D08F0EE66E1B0EE66ED8ECE3
:1026D800A3F05E50E66EDDECA9F04B50D8A406D00E
:1026E800AA0EE66E1C0EE66ED8ECA3F0800EE66E1F
:1026F800DDECA9F04B50D8A406D0A40EE66E1C0E53
:10270800E66ED8ECA3F0A00EE66EDDECA9F04B5017
:10271800D8A406D0E60EE66E1B0EE66ED8ECA3F043
:10272800110EE66EDDECA9F04B50D8A406D0CE0E03
:10273800E66E1B0EE66ED8ECA3F04E0EE66EDDECF0
:10274800A9F04B50D8A406D0DD0EE66E190EE66E41
:10275800D8ECA3F05D50E66EDDECA9F04B50D8A4A0
:1027680006D0A90EE66E190EE66ED8ECA3F00D0E93
:10277800E66EDDECA9F04B50D8A4C5EF33F04C0E53
:10278800E66E1C0EE66ED8ECA3F0C5EF33F0360EFD
:10279800E66E1C0EE66E120EE66E010EE66EE7ECB5
:1027A8008CF04B504C10D8B40ED0F50EE66E1D0EC2
:1027B800E66E120EE66E010EE66EE7EC8CF04B50FC
:1027C8004C10D8A408D0F50EE66E1D0EE66E9FECF0
:1027D80083F0C5EF33F00A0EE66E1F0EE66E120E9A
:1027E800E66E010EE66EE7EC8CF04B504C10D8A468
:1027F80005D0F50EE3CF2BF0C5EF33F0FB0EE66EF8
:102808001E0EE66E120EE66E010EE66EE7EC8CF01A
:102818004B504C10D8A405D0F50EE3CF94F0C5EF7B
:1028280033F0F10EE66E1D0EE66E120EE66E010E28
:10283800E66EE7EC8CF04B504C10D8A416D0FC0E8A
:10284800E36A1A501B10D8A404D018501910D8B431
:1028580003D0FC0EE36AE384FC0EE350E66E000E40
:10286800E66EB3EC84F0C5EF33F0720EE66E1C0E24
:10287800E66E120EE66E010EE66EE7EC8CF04B503B
:102888004C10D8B40ED0990EE66E1D0EE66E120EE0
:10289800E66E010EE66EE7EC8CF04B504C10D8A4B7
:1028A8000CD0010EE66EA3ECA2F0000EE66E000E50
:1028B800E66EB3EC84F0C5EF33F02D0EE66E1E0E17
:1028C800E66E120EE66E010EE66EE7EC8CF04B50EB
:1028D8004C10D8A40AD02C50D8A4EFEF0FF0300E2B
:1028E800E66EEBEC98F0C5EF33F00D0EE66E1F0EBA
:1028F800E66E120EE66E010EE66EE7EC8CF04B50BB
:102908004C10D8A405D0F50EE3CF59F0C5EF33F03D
:10291800070EE66E1F0EE66E120EE66E010EE66EEE
:10292800E7EC8CF04B504C10D8A416D0928E80BE99
:1029380082EF2FF0000E556E566AF50E55C0E3FF74
:10294800F60E56C0E3FFF50EE3CFE6FFE3CFE6FF52
:10295800B3EC84F0C5EF33F0F50EE66E1E0EE66EAE
:10296800120EE66E010EE66EE7EC8CF04B504C1042
:10297800D8A409D000019351E66E000EE66EB3ECC0
:1029880084F0C5EF33F0750EE66E1E0EE66E120E7D
:10299800E66E010EE66EE7EC8CF04B504C10D8A4B6
:1029A8003CD0F50EE3CF4BF0F60EE3504B10D8B405
:1029B8001AD0810EE66EEAECAAF0010EE66EEAEC99
:1029C800AAF0040EE66EEAECAAF0010EE66EEAEC56
:1029D800AAF0020EE66EEAECAAF0FF0EE66EEAEC4A
:1029E800AAF0C5EF33F0810EE66EEAECAAF0010E0C
:1029F800E66EEAECAAF0040EE66EEAECAAF0010E26
:102A0800E66EEAECAAF0030EE66EEAECAAF0FF0E18
:102A1800E66EEAECAAF0C5EF33F06C0EE66E1D0E1A
:102A2800E66E120EE66E010EE66EE7EC8CF04B5089
:102A38004C10D8A409D0F70EE3CFE6FFE3CFE6FFAA
:102A480097EC59F0C5EF33F0100EE66E1D0EE66EEA
:102A5800120EE66E010EE66EE7EC8CF04B504C1051
:102A6800D8A461EF1AF00F0EE66E000EE66E000EA7
:102A7800E66E000EE66E960EE66E000EE66E000E30
:102A8800E66E000EE66E610EE66E080EE66ECAECA5
:102A98005EF00F0EE66E000EE66E000EE66E000E9D
:102AA800E66E960EE66E000EE66E000EE66E000E00
:102AB800E66E770EE66E070EE66ECAEC5EF00F0E57
:102AC800E66E000EE66E000EE66E000EE66E960EE0
:102AD800E66E000EE66E000EE66E000EE66EA60EC0
:102AE800E66E060EE66ECAEC5EF00F0EE66E000E9F
:102AF800E66E000EE66E000EE66E960EE66E000EB0
:102B0800E66E000EE66E000EE66E770EE66E070EB7
:102B1800E66ECAEC5EF00F0EE66E000EE66E000E74
:102B2800E66E000EE66E2C0EE66E010EE66E000EE8
:102B3800E66E000EE66E610EE66E080EE66ECAECF4
:102B48005EF00F0EE66E000EE66E000EE66E000EEC
:102B5800E66E2C0EE66E010EE66E000EE66E000EB8
:102B6800E66EA00EE66E050EE66ECAEC5EF00F0E7F
:102B7800E66E000EE66E000EE66E000EE66E2C0E99
:102B8800E66E010EE66E000EE66E000EE66EA60E0E
:102B9800E66E060EE66ECAEC5EF00F0EE66E000EEE
:102BA800E66E000EE66E000EE66E2C0EE66E010E68
:102BB800E66E000EE66E000EE66E310EE66E040E50
:102BC800E66ECAEC5EF00F0EE66E000EE66E000EC4
:102BD800E66E000EE66E2C0EE66E010EE66E000E38
:102BE800E66E000EE66EA00EE66E050EE66ECAEC08
:102BF8005EF00F0EE66E000EE66E000EE66E000E3C
:102C0800E66E2C0EE66E010EE66E000EE66E000E07
:102C1800E66EA60EE66E060EE66ECAEC5EF00F0EC7
:102C2800E66E000EE66E000EE66E000EE66E960E7E
:102C3800E66E000EE66E000EE66E000EE66EA00E64
:102C4800E66E050EE66ECAEC5EF00F0EE66E000E3E
:102C5800E66E000EE66E000EE66E960EE66E000E4E
:102C6800E66E000EE66E000EE66E470EE66E060E87
:102C7800E66ECAEC5EF00F0EE66E000EE66E000E13
:102C8800E66E000EE66E960EE66E000EE66E000E1E
:102C9800E66E000EE66EA60EE66E060EE66ECAEC50
:102CA8005EF00F0EE66E000EE66E000EE66E000E8B
:102CB800E66E960EE66E000EE66E000EE66E000EEE
:102CC800E66E470EE66E060EE66ECAEC5EF00F0E76
:102CD800E66E000EE66E000EE66E000EE66E2C0E38
:102CE800E66E010EE66E000EE66E000EE66EA00EB3
:102CF800E66E050EE66ECAEC5EF00F0EE66E000E8E
:102D0800E66E000EE66E000EE66E2C0EE66E010E06
:102D1800E66E000EE66E000EE66E610EE66E080EBA
:102D2800E66ECAEC5EF00F0EE66E000EE66E000E62
:102D3800E66E000EE66E2C0EE66E010EE66E000ED6
:102D4800E66E000EE66EA60EE66E060EE66ECAEC9F
:102D58005EF00F0EE66E000EE66E000EE66E000EDA
:102D6800E66E2C0EE66E010EE66E000EE66E000EA6
:102D7800E66E400EE66E0B0EE66ECAEC5EF00F0EC7
:102D8800E66E000EE66E000EE66E000EE66E2C0E87
:102D9800E66E010EE66E000EE66E000EE66E680E3A
:102DA800E66E090EE66ECAEC5EF00F0EE66E000ED9
:102DB800E66E000EE66E000EE66E2C0EE66E010E56
:102DC800E66E000EE66E000EE66EE60EE66E090E84
:102DD800E66ECAEC5EF00F0EE66E000EE66E000EB2
:102DE800E66E000EE66E960EE66E000EE66E000EBD
:102DF800E66E000EE66E8E0EE66E0C0EE66ECAEC01
:102E08005EF00F0EE66E000EE66E000EE66E000E29
:102E1800E66E960EE66E000EE66E000EE66E000E8C
:102E2800E66E400EE66E0B0EE66ECAEC5EF00F0E16
:102E3800E66E000EE66E000EE66E000EE66E960E6C
:102E4800E66E000EE66E000EE66E000EE66EE60E0C
:102E5800E66E090EE66ECAEC5EF00F0EE66E000E28
:102E6800E66E000EE66E000EE66E960EE66E000E3C
:102E7800E66E000EE66E000EE66E400EE66E0B0E77
:102E8800E66ECAEC5EF00F0EE66E000EE66E000E01
:102E9800E66E000EE66E2C0EE66E010EE66E000E75
:102EA800E66E000EE66E8E0EE66E0C0EE66ECAEC50
:102EB8005EF00F0EE66E000EE66E000EE66E000E79
:102EC800E66E2C0EE66E010EE66E000EE66E000E45
:102ED800E66E610EE66E080EE66ECAEC5EF00F0E48
:102EE800E66E000EE66E000EE66E000EE66E2C0E26
:102EF800E66E010EE66E000EE66E000EE66EE60E5B
:102F0800E66E090EE66ECAEC5EF00F0EE66E000E77
:102F1800E66E000EE66E000EE66E2C0EE66E010EF4
:102F2800E66E000EE66E000EE66E470EE66E060EC4
:102F3800E66ECAEC5EF00F0EE66E000EE66E000E50
:102F4800E66E000EE66E2C0EE66E010EE66E000EC4
:102F5800E66E000EE66E610EE66E080EE66ECAECD0
:102F68005EF00F0EE66E000EE66E000EE66E000EC8
:102F7800E66E2C0EE66E010EE66E000EE66E000E94
:102F8800E66EE60EE66E090EE66ECAEC5EF00F0E11
:102F9800E66E000EE66E000EE66E000EE66E960E0B
:102FA800E66E000EE66E000EE66E000EE66E610E30
:102FB800E66E080EE66ECAEC5EF00F0EE66E000EC8
:102FC800E66E000EE66E000EE66E960EE66E000EDB
:102FD800E66E000EE66E000EE66E680EE66E090EF0
:102FE800E66ECAEC5EF00F0EE66E000EE66E000EA0
:102FF800E66E000EE66E960EE66E000EE66E000EAB
:10300800E66E000EE66EE60EE66E090EE66ECAEC99
:103018005EF00F0EE66E000EE66E000EE66E000E17
:10302800E66E960EE66E000EE66E000EE66E000E7A
:10303800E66E680EE66E090EE66ECAEC5EF00F0EDE
:10304800E66E000EE66E000EE66E000EE66E2C0EC4
:10305800E66E010EE66E000EE66E000EE66E610E7E
:10306800E66E080EE66ECAEC5EF00F0EE66E000E17
:10307800E66E000EE66E000EE66E2C0EE66E010E93
:10308800E66E000EE66E000EE66E8F0EE66E0C0E15
:10309800E66ECAEC5EF00F0EE66E000EE66E000EEF
:1030A800E66E000EE66E2C0EE66E010EE66E000E63
:1030B800E66E000EE66EE60EE66E090EE66ECAECE9
:1030C8005EF00F0EE66E000EE66E000EE66E000E67
:1030D800E66E2C0EE66E010EE66E000EE66E000E33
:1030E800E66EEE0EE66E0E0EE66ECAEC5EF00F0EA3
:1030F800E66E000EE66E000EE66E000EE66E2C0E14
:10310800E66E010EE66E000EE66E000EE66E8E0EA0
:10311800E66E0C0EE66ECAEC5EF00F0EE66E000E62
:10312800E66E000EE66E000EE66E2C0EE66E010EE2
:10313800E66E000EE66E000EE66EC10EE66E110E2D
:10314800E66ECAEC5EF00F0EE66E000EE66E000E3E
:10315800E66E000EE66E960EE66E000EE66E000E49
:10316800E66E000EE66EEE0EE66E0E0EE66ECAEC2B
:103178005EF00F0EE66E000EE66E000EE66E000EB6
:10318800E66E960EE66E000EE66E000EE66E000E19
:10319800E66E4D0EE66E0D0EE66ECAEC5EF00F0E94
:1031A800E66E000EE66E000EE66E000EE66E960EF9
:1031B800E66E000EE66E000EE66E000EE66E040E7B
:1031C800E66E0D0EE66ECAEC5EF00F0EE66E000EB1
:1031D800E66E000EE66E000EE66E960EE66E000EC9
:1031E800E66E000EE66E000EE66E4D0EE66E0D0EF5
:1031F800E66ECAEC5EF00F0EE66E000EE66E000E8E
:10320800E66E000EE66E2C0EE66E010EE66E000E01
:10321800E66E000EE66EEE0EE66E0E0EE66ECAEC7A
:103228005EF00F0EE66E000EE66E000EE66E000E05
:10323800E66E2C0EE66E010EE66E000EE66E000ED1
:10324800E66EE00EE66E080EE66ECAEC5EF00F0E55
:10325800E66E000EE66E000EE66E000EE66E2C0EB2
:10326800E66E010EE66E000EE66E000EE66EE90EE4
:10327800E66E090EE66ECAEC5EF00F0EE66E000E04
:10328800E66E000EE66E000EE66E2C0EE66E010E81
:10329800E66E000EE66E000EE66E770EE66E070E20
:1032A800E66ECAEC5EF00F0EE66E000EE66E000EDD
:1032B800E66E000EE66E2C0EE66E010EE66E000E51
:1032C800E66E000EE66EE90EE66E090EE66ECAECD4
:1032D8005EF00F0EE66E000EE66E000EE66E000E55
:1032E800E66E2C0EE66E010EE66E000EE66E000E21
:1032F800E66E470EE66E060EE66ECAEC5EF00F0E40
:10330800E66E000EE66E000EE66E000EE66E960E97
:10331800E66E000EE66E000EE66E000EE66EE90E34
:10332800E66E090EE66ECAEC5EF00F0EE66E000E53
:10333800E66E000EE66E000EE66E960EE66E000E67
:10334800E66E000EE66E000EE66EF70EE66E090EED
:10335800E66ECAEC5EF00F0EE66E000EE66E000E2C
:10336800E66E000EE66E960EE66E000EE66E000E37
:10337800E66E000EE66EDF0EE66E080EE66ECAEC2E
:103388005EF00F0EE66E000EE66E000EE66E000EA4
:10339800E66E960EE66E000EE66E000EE66E000E07
:1033A800E66EF70EE66E090EE66ECAEC5EF00F0EDC
:1033B800E66E000EE66E000EE66E000EE66E2C0E51
:1033C800E66E010EE66E000EE66E000EE66EE90E83
:1033D800E66E090EE66ECAEC5EF00F0EE66E000EA3
:1033E800E66E000EE66E000EE66E2C0EE66E010E20
:1033F800E66E000EE66E000EE66E770EE66E070EBF
:10340800E66ECAEC5EF00F0EE66E000EE66E000E7B
:10341800E66E000EE66E2C0EE66E010EE66E000EEF
:10342800E66E000EE66EE00EE66E080EE66ECAEC7C
:103438005EF00F0EE66E000EE66E000EE66E000EF3
:10344800E66E2C0EE66E010EE66E000EE66E000EBF
:10345800E66EA00EE66E050EE66ECAEC5EF00F0E86
:10346800E66E000EE66E000EE66E000EE66E2C0EA0
:10347800E66E010EE66E000EE66E000EE66E770E44
:10348800E66E070EE66ECAEC5EF00F0EE66E000EF4
:10349800E66E000EE66E000EE66E2C0EE66E010E6F
:1034A800E66E000EE66E000EE66EA60EE66E060EE0
:1034B800E66ECAEC5EF0C5EF33F0440EE66E1D0E04
:1034C800E66E120EE66E010EE66EE7EC8CF04B50DF
:1034D8004C10D8A411D0F50EE3CF4BF0F60EE35004
:1034E8004B10D8B407D02A862A50E66E1CECAAF0F6
:1034F800C5EF33F02A96F8D7F80EE66E1E0EE66E84
:10350800120EE66E010EE66EE7EC8CF04B504C1096
:10351800D8A40ED0F50EE3CF4BF0F60EE3504B10C7
:10352800D8B402D0828401D082949494C5EF33F049
:10353800300EE66E1D0EE66E120EE66E010EE66E9B
:10354800E7EC8CF04B504C10D8A406D0938881A897
:103558009EEF14F082EF2FF0A90EE66E1E0EE66EB7
:10356800120EE66E010EE66EE7EC8CF04B504C1036
:10357800D8A430D015ECABF0F29E00000000880E05
:10358800E66E42EC94F0F50E4BC0E3FFF60E4CC02D
:10359800E3FFF60EE3BE0AD0F60EE35011E1F50E96
:1035A800E3CF4BF0FA0E4B5ED8B00AD0FA0E556E48
:1035B800000E566EF50E55C0E3FFF60E56C0E3FF3B
:1035C800F50EE3CFE6FFE3CFE6FF7BECA8F0FF00C4
:1035D800C5EF33F07D0EE66E1C0EE66E120EE66E3B
:1035E800010EE66EE7EC8CF04B504C10D8A41FD0BF
:1035F800F50EE3CF4BF0F60EE3504B10D8B40CD0D9
:10360800000EE66E000EE66E980EE66E0EEC9BF06F
:10361800010E296EC5EF33F0010EE66E000EE66E60
:10362800980EE66E0EEC9BF0296AC5EF33F0E90EB2
:10363800E66E190EE66E120EE66E010EE66EE7EC09
:103648008CF04B504C10D8A406D0980EE66E42EC85
:1036580094F020EF31F0250EE66E1F0EE66E120E86
:10366800E66E010EE66EE7EC8CF04B504C10D8A4D9
:103678000BD0F50EE3CFE6FFE3CFE6FF880EE66E4C
:103688000EEC9BF0C5EF33F0250EE66E1E0EE66ECF
:10369800120EE66E010EE66EE7EC8CF04B504C1005
:1036A800D8A406D0880EE66E42EC94F020EF31F0F4
:1036B800040EE66E1F0EE66E120EE66E010EE66E44
:1036C800E7EC8CF04B504C10D8A42CD0880EE66E4A
:1036D80042EC94F0F50E4BC0E3FFF60E4CC0E3FF4E
:1036E800F60EE3BE0AD0F60EE35011E1F50EE3CF75
:1036F8004BF0FA0E4B5ED8B00AD0FA0E556E000E9B
:10370800566EF50E55C0E3FFF60E56C0E3FFF50EF4
:10371800E3CFE6FFE3CFE6FF7BECA8F09792858244
:10372800C5EF33F0C50EE66E1E0EE66E120EE66E9F
:10373800010EE66EE7EC8CF04B504C10D8A40FD07D
:103748009894F50EE3CF4BF0F60EE3504B10D8B437
:1037580003D08694C5EF33F08684C5EF33F0D10EDD
:10376800E66E1E0EE66E120EE66E010EE66EE7ECD3
:103778008CF04B504C10D8A40FD09892F50EE3CF94
:103788004BF0F60EE3504B10D8B403D08682C5EF49
:1037980033F08692C5EF33F0E90EE66E1E0EE66E44
:1037A800120EE66E010EE66EE7EC8CF04B504C10F4
:1037B800D8A40FD09890F50EE3CF4BF0F60EE35057
:1037C8004B10D8B403D08680C5EF33F08690C5EF90
:1037D80033F0860EE66E1E0EE66E120EE66E010ED3
:1037E800E66EE7EC8CF04B504C10D8A40FD0979AAB
:1037F800F50EE3CF4BF0F60EE3504B10D8B403D0E0
:10380800858AC5EF33F0859AC5EF33F0BC0EE66EB6
:103818001E0EE66E120EE66E010EE66EE7EC8CF0FA
:103828004B504C10D8A40FD0979CF50EE3CF4BF01B
:10383800F60EE3504B10D8B403D0859CC5EF33F097
:10384800858CC5EF33F0C80EE66E1E0EE66E120EBE
:10385800E66E010EE66EE7EC8CF04B504C10D8A4E7
:103868000FD0979EF50EE3CF4BF0F60EE3504B10BA
:10387800D8B403D0859EC5EF33F0858EC5EF33F0FD
:10388800810EE66E1E0EE66E120EE66E010EE66EF6
:10389800E7EC8CF04B504C10D8A40FD09292F50E58
:1038A800E3CF4BF0F60EE3504B10D8B403D0898227
:1038B800C5EF33F08992C5EF33F08B0EE66E1C0E20
:1038C800E66E120EE66E010EE66EE7EC8CF04B50DB
:1038D8004C10D8A404D0B7EC75F0C5EF33F06F0ED8
:1038E800E66E190EE66E120EE66E010EE66EE7EC57
:1038F8008CF04B504C10D8A405D0F50EE3CF92F0C5
:10390800C5EF33F0E30EE66E1E0EE66E120EE66E9F
:10391800010EE66EE7EC8CF04B504C10D8A40CD09E
:10392800808C929C808CFA0EE66E000EE66E7BEC24
:10393800A8F0809CC5EF33F0EC0EE66E1E0EE66E26
:10394800120EE66E010EE66EE7EC8CF04B504C1052
:10395800D8A438D0988886A802D0010E01D0000ECD
:10396800556E566AF50E55C0E3FFF60E56C0E3FFD6
:10397800F50EE3CFE6FFE3CFE6FFB3EC84F0200ECD
:10398800E66EEBEC98F0988686A602D0010E01D080
:10399800000E556E566AF50E55C0E3FFF60E56C07A
:1039A800E3FFF50EE3CFE6FFE3CFE6FFB3EC84F0E9
:1039B800200EE66EEBEC98F0928E80AE9EEF14F03F
:1039C80082EF2FF0CB0EE66E1A0EE66E120EE66E42
:1039D800010EE66EE7EC8CF04B504C10D8A40ED0DC
:1039E80012ECA5F04BC0E6FF4CC0E6FF4DC0E6FF69
:1039F8004EC0E6FF48EC86F0C5EF33F0BC0EE66E2D
:103A08001B0EE66E120EE66E010EE66EE7EC8CF00B
:103A18004B504C10D8A40ED068ECA5F04BC0E6FF74
:103A28004CC0E6FF4DC0E6FF4EC0E6FF48EC86F00E
:103A3800C5EF33F0D50EE66E1A0EE66E120EE66E80
:103A4800010EE66EE7EC8CF04B504C10D8A40ED06B
:103A58003DECA5F04BC0E6FF4CC0E6FF4DC0E6FFCD
:103A68004EC0E6FF48EC86F0C5EF33F0760EE66E02
:103A78001D0EE66E120EE66E010EE66EE7EC8CF099
:103A88004B504C10D8A41BD0F50EE3CFE6FFE3CF84
:103A9800E6FF82EC9CF04B50556E566A55BE5606B2
:103AA800D30E55C0E3FFD40E56C0E3FFD30EE3CFC9
:103AB800E6FFE3CFE6FFB3EC84F0C5EF33F0530E37
:103AC800E66E1D0EE66E120EE66E010EE66EE7EC71
:103AD8008CF04B504C10D8A41BD0F50EE3CFE6FF6A
:103AE800E3CFE6FFFAEC67F04B50556E566A55BEC9
:103AF8005606D10E55C0E3FFD20E56C0E3FFD10ED5
:103B0800E3CFE6FFE3CFE6FFB3EC84F0C5EF33F095
:103B1800DA0EE66E1C0EE66E120EE66E010EE66E0C
:103B2800E7EC8CF04B504C10D8A428D0010EE66E70
:103B3800A3ECA2F0030EE66EF40EE3CFE6FFE3CFAC
:103B4800E6FF000EE66E100EE66E6FEC44F0E150F4
:103B5800D00FD96EE250DA6EFF0EDA224B50DF1228
:103B6800D00EE350556E566A55BE560655C0E6FF50
:103B780056C0E6FFB3EC84F0C5EF33F0C20EE66E34
:103B88001C0EE66E120EE66E010EE66EE7EC8CF089
:103B98004B504C10D8A428D0010EE66EA3ECA2F02E
:103BA800030EE66EF40EE3CFE6FFE3CFE6FF040E66
:103BB800E66E000EE66E6FEC44F0E150CF0FD96E62
:103BC800E250DA6EFF0EDA224B50DF12CF0EE350CE
:103BD800556E566A55BE560655C0E6FF56C0E6FFF6
:103BE800B3EC84F0C5EF33F0BC0EE66E1C0EE66E47
:103BF800120EE66E010EE66EE7EC8CF04B504C10A0
:103C0800D8A428D0010EE66EA3ECA2F0030EE66E4F
:103C1800F40EE3CFE6FFE3CFE6FF010EE66E000EFB
:103C2800E66E6FEC44F0E150CE0FD96EE250DA6EDA
:103C3800FF0EDA224B50DF12CE0EE350556E566A55
:103C480055BE560655C0E6FF56C0E6FFB3EC84F0F5
:103C5800C5EF33F0B60EE66E1C0EE66E120EE66E7B
:103C6800010EE66EE7EC8CF04B504C10D8A428D02F
:103C7800010EE66EA3ECA2F0030EE66EF40EE3CF9F
:103C8800E6FFE3CFE6FF100EE66E000EE66E6FEC81
:103C980044F0E150CD0FD96EE250DA6EFF0EDA2211
:103CA8004B50DF12CD0EE350556E566A55BE560680
:103CB80055C0E6FF56C0E6FFB3EC84F0C5EF33F01D
:103CC800C80EE66E1C0EE66E120EE66E010EE66E6D
:103CD800E7EC8CF04B504C10D8A428D0010EE66EBF
:103CE800A3ECA2F0030EE66EF40EE3CFE6FFE3CFFB
:103CF800E6FF200EE66E000EE66E6FEC44F0E15033
:103D0800CC0FD96EE250DA6EFF0EDA224B50DF127A
:103D1800CC0EE350556E566A55BE560655C0E6FFA2
:103D280056C0E6FFB3EC84F0C5EF33F0B60EE66E8E
:103D38001E0EE66E120EE66E010EE66EE7EC8CF0D5
:103D48004B504C10D8A428D0010EE66EA3ECA2F07C
:103D5800030EE66EF40EE3CFE6FFE3CFE6FF000EB8
:103D6800E66E010EE66E6FEC44F0E150CB0FD96EB3
:103D7800E250DA6EFF0EDA224B50DF12CB0EE35020
:103D8800556E566A55BE560655C0E6FF56C0E6FF44
:103D9800B3EC84F0C5EF33F0BF0EE66E1E0EE66E90
:103DA800120EE66E010EE66EE7EC8CF04B504C10EE
:103DB800D8A428D0010EE66EA3ECA2F0030EE66E9E
:103DC800F40EE3CFE6FFE3CFE6FF000EE66E020E49
:103DD800E66E6FEC44F0E150CA0FD96EE250DA6E2D
:103DE800FF0EDA224B50DF12CA0EE350556E566AA8
:103DF80055BE560655C0E6FF56C0E6FFB3EC84F044
:103E0800C5EF33F0C10EE66E1D0EE66E120EE66EBD
:103E1800010EE66EE7EC8CF04B504C10D8A437D06E
:103E2800010EE66EA3ECA2F0F50EE3CFE6FFE3CFBA
:103E3800E6FF570EE66E1B0EE66EB90EE1244B6EDA
:103E4800FF0EE2204C6E4BC0E6FF4CC0E6FF060EAC
:103E5800E66E3DEC99F0000EE66EBC0EE1244B6E6A
:103E6800FF0EE2204C6E4BC0E6FF4CC0E6FF8FEC25
:103E78005DF0C90EE350556E566A55BE560655C0DC
:103E8800E6FF56C0E6FFB3EC84F0C5EF33F0160E3C
:103E9800E66E1F0EE66E120EE66E010EE66EE7EC9B
:103EA8008CF04B504C10D8A437D0010EE66EA3EC22
:103EB800A2F0F50EE3CFE6FFE3CFE6FF610EE66E74
:103EC8001B0EE66EAC0EE1244B6EFF0EE2204C6E2C
:103ED8004BC0E6FF4CC0E6FF060EE66E3DEC99F0DF
:103EE800000EE66EAF0EE1244B6EFF0EE2204C6E24
:103EF8004BC0E6FF4CC0E6FF8FEC5DF0BC0EE35014
:103F0800556E566A55BE560655C0E6FF56C0E6FFC2
:103F1800B3EC84F0C5EF33F0990EE66E1E0EE66E34
:103F2800120EE66E010EE66EE7EC8CF04B504C106C
:103F3800D8A422D0AF0EE36A010EE66EF60EE3CFE8
:103F4800E6FFE3CFE6FF8FEC5DF0E150AF0FD96EEF
:103F5800E250DA6EFF0EDA224B50DF12AF0EE3505A
:103F6800556E566A55BE560655C0E6FF56C0E6FF62
:103F7800B3EC84F0C5EF33F0890EE66E1E0EE66EE4
:103F8800120EE66E010EE66EE7EC8CF04B504C100C
:103F9800D8A422D0AE0EE36A000EE66EF60EE3CF8A
:103FA800E6FFE3CFE6FF8FEC5DF0E150AE0FD96E90
:103FB800E250DA6EFF0EDA224B50DF12AE0EE350FB
:103FC800556E566A55BE560655C0E6FF56C0E6FF02
:103FD800B3EC84F0C5EF33F09B0EE66E190EE66E77
:103FE800120EE66E010EE66EE7EC8CF04B504C10AC
:103FF800D8A41CD0C5EC89F0400EE66E190EE66E0A
:10400800CCECA0F005C0E6FF06C0E6FF8EEC76F02B
:104018001E0EE66E190EE66ECCECA0F007C0E6FFA9
:1040280008C0E6FF8EEC76F0C5EF33F0FF0EE66EC3
:10403800190EE66E120EE66E010EE66EE7EC8CF0D7
:104048004B504C10D8B40ED0670EE66E1A0EE66EC2
:10405800120EE66E010EE66EE7EC8CF04B504C103B
:10406800D8A424D004EC69F0E150AD0FD96EE25029
:10407800DA6EFF0EDA224B50DF127AEC70F0E15064
:10408800AD0FD96EE250DA6EFF0EDA224B50DF1216
:10409800AD0EE350556E566A55BE560655C0E6FF3E
:1040A80056C0E6FFB3EC84F0C5EF33F0B30EE66E0E
:1040B8001E0EE66E120EE66E010EE66EE7EC8CF052
:1040C8004B504C10D8B40ED07B0EE66E1A0EE66E2E
:1040D800120EE66E010EE66EE7EC8CF04B504C10BB
:1040E800D8A432D0030EE66EF40EE3CFE6FFE3CF9A
:1040F800E6FF07EC8CF0E150AC0FD96EE250DA6EB7
:10410800FF0EDA224B50DF12010EE66EF40EE3CFFB
:10411800E6FFE3CFE6FF07EC8CF0E150AC0FD96E79
:10412800E250DA6EFF0EDA224B50DF12AC0EE3508B
:10413800556E566A55BE560655C0E6FF56C0E6FF90
:10414800B3EC84F0C5EF33F0B90EE66E1E0EE66EE2
:10415800120EE66E010EE66EE7EC8CF04B504C103A
:10416800D8B40ED0850EE66E1A0EE66E120EE66E06
:10417800010EE66EE7EC8CF04B504C10D8A432D010
:10418800020EE66EF40EE3CFE6FFE3CFE6FF07ECA0
:104198008CF0E150AB0FD96EE250DA6EFF0EDA22E6
:1041A8004B50DF12000EE66EF40EE3CFE6FFE3CFCE
:1041B800E6FF07EC8CF0E150AB0FD96EE250DA6EF7
:1041C800FF0EDA224B50DF12AB0EE350556E566AE3
:1041D80055BE560655C0E6FF56C0E6FFB3EC84F060
:1041E800C5EF33F0D70EE66E1E0EE66E120EE66EC3
:1041F800010EE66EE7EC8CF04B504C10D8B40ED0A4
:10420800AD0EE66E1A0EE66E120EE66E010EE66E44
:10421800E7EC8CF04B504C10D8A420D0030EE66E7F
:10422800F40EE3CFE6FFE3CFE6FF07EC8CF0E150B6
:10423800AA0FD96EE250DA6EFF0EDA224B50DF1267
:10424800AA0EE350556E566A55BE560655C0E6FF8F
:1042580056C0E6FFB3EC84F0C5EF33F0DA0EE66E35
:104268001E0EE66E120EE66E010EE66EE7EC8CF0A0
:104278004B504C10D8B40ED02F0EE66E1B0EE66EC7
:10428800120EE66E010EE66EE7EC8CF04B504C1009
:10429800D8A420D0010EE66EF40EE3CFE6FFE3CFFC
:1042A800E6FF07EC8CF0E150A90FD96EE250DA6E08
:1042B800FF0EDA224B50DF12A90EE350556E566AF4
:1042C80055BE560655C0E6FF56C0E6FFB3EC84F06F
:1042D800C5EF33F0DD0EE66E1E0EE66E120EE66ECC
:1042E800010EE66EE7EC8CF04B504C10D8B40ED0B3
:1042F800B70EE66E1A0EE66E120EE66E010EE66E4A
:10430800E7EC8CF04B504C10D8A420D0020EE66E8F
:10431800F40EE3CFE6FFE3CFE6FF07EC8CF0E150C5
:10432800A80FD96EE250DA6EFF0EDA224B50DF1278
:10433800A80EE350556E566A55BE560655C0E6FFA0
:1043480056C0E6FFB3EC84F0C5EF33F0E00EE66E3E
:104358001E0EE66E120EE66E010EE66EE7EC8CF0AF
:104368004B504C10D8B40ED0390EE66E1B0EE66ECC
:10437800120EE66E010EE66EE7EC8CF04B504C1018
:10438800D8A420D0000EE66EF40EE3CFE6FFE3CF0C
:10439800E6FF07EC8CF0E150A70FD96EE250DA6E19
:1043A800FF0EDA224B50DF12A70EE350556E566A05
:1043B80055BE560655C0E6FF56C0E6FFB3EC84F07E
:1043C800C5EF33F0AF0EE66E1B0EE66E120EE66E0C
:1043D800010EE66EE7EC8CF04B504C10D8B40ED0C2
:1043E800130EE66E1F0EE66E120EE66E010EE66EF8
:1043F800E7EC8CF04B504C10D8A409D0F70EE3CF63
:10440800E6FFE3CFE6FF96EC8BF020EF31F06F0E7E
:10441800E66E1C0EE66E120EE66E010EE66EE7EC18
:104428008CF04B504C10D8A417D0A40EC8C0E3FF92
:10443800A50EC9C0E3FFA60ECAC0E3FFA40EE1247F
:104448004B6EFF0EE2204C6E4BC0E6FF4CC0E6FF01
:1044580096EC8BF020EF31F05D0EE66E1E0EE66EE8
:10446800120EE66E010EE66EE7EC8CF04B504C1027
:10447800D8A405D0F50EE3CF4FFF59EF14F0190E6D
:10448800E66E1E0EE66E120EE66E010EE66EE7ECA6
:104498008CF04B504C10D8A422D0F50EE350D8B471
:1044A800C5EF33F0F50EE3CF4BF02B0E4B60C5EFA5
:1044B80033F0F50EE350D890E8344B6EF50E4BC050
:1044C800E3FFF60EE350E8344B6EF60E4BC0E3FF05
:1044D800F50EE350E66E42EC94F020EF31F0760EE4
:1044E800E66E1A0EE66E120EE66E010EE66EE7EC4A
:1044F8008CF04B504C10D8A406D015ECABF008EC5F
:1045080041F0C5EF33F0710EE66E1A0EE66E120E2C
:10451800E66E010EE66EE7EC8CF04B504C10D8A41A
:1045280006D015ECABF0EFEC5AF0C5EF33F05D0EAA
:10453800E66E1A0EE66E120EE66E010EE66EE7ECF9
:104548008CF04B504C10D8B40ED0E60EE66E1C0E14
:10455800E66E120EE66E010EE66EE7EC8CF04B503E
:104568004C10D8A404D08FEC93F075EF31F05F0EA7
:10457800E66E1A0EE66E120EE66E010EE66EE7ECB9
:104588008CF04B504C10D8B40ED0EC0EE66E1C0ECE
:10459800E66E120EE66E010EE66EE7EC8CF04B50FE
:1045A8004C10D8A40DD0010EE66EA3ECA2F0F70EC5
:1045B800E3CFE6FFE3CFE6FF9BEC94F0C5EF33F0E3
:1045C800680EE66E1C0EE66E120EE66E010EE66EC4
:1045D800E7EC8CF04B504C10D8B40ED0AA0EE66E17
:1045E8001B0EE66E120EE66E010EE66EE7EC8CF020
:1045F8004B504C10D8A404D0B1EC8AF0C5EF33F07E
:10460800DF0EE66E1A0EE66E120EE66E010EE66E0E
:10461800E7EC8CF04B504C10D8A411D0F50EE3CF3A
:104628004BF0F60EE3504B10D8B404D0420E5D6E3A
:10463800430E03D05C0E5D6E5D0E5C6E94D70C0E5F
:10464800E66E1B0EE66E120EE66E010EE66EE7ECE7
:104658008CF04B504C10D8A40DD0010EE66EA3EC94
:10466800A2F0F70EE3CFE6FFE3CFE6FFFFEC52F050
:1046780020EF31F0840EE66E1C0EE66E120EE66E2A
:10468800010EE66EE7EC8CF04B504C10D8A41ED00F
:10469800310E0001E319D8A411D0010EE66EA3EC87
:1046A800A2F0F50EE3CFE6FFE3CFE6FF200EE66EBD
:1046B800010EE66ECDEC8FF020EF31F0010EE66EC4
:1046C800000EE66EB3EC84F0C5EF33F0490EE66EEB
:1046D8001D0EE66E120EE66E010EE66EE7EC8CF02D
:1046E8004B504C10D8A416D0310E0001E419D8A4B0
:1046F800E5D7010EE66EA3ECA2F0F50EE3CFE6FFD8
:10470800E3CFE6FF100EE66E010EE66ECDEC8FF0FD
:1047180020EF31F08F0EE66E1A0EE66E120EE66E80
:10472800010EE66EE7EC8CF04B504C10D8A416D076
:10473800310E0001E519D8A4C1D7010EE66EA3EC2D
:10474800A2F0F50EE3CFE6FFE3CFE6FF080EE66E34
:10475800010EE66ECDEC8FF020EF31F0670EE66EBD
:104768001D0EE66E120EE66E010EE66EE7EC8CF09C
:104778004B504C10D8A416D0310E0001E619D8A41D
:104788009DD7010EE66EA3ECA2F0F50EE3CFE6FF8F
:10479800E3CFE6FF040EE66E010EE66ECDEC8FF079
:1047A80020EF31F0930EE66E1A0EE66E120EE66EEC
:1047B800010EE66EE7EC8CF04B504C10D8A416D0E6
:1047C800310E0001E719D8A479D7010EE66EA3ECE3
:1047D800A2F0F50EE3CFE6FFE3CFE6FF020EE66EAA
:1047E800010EE66ECDEC8FF020EF31F0040EE66E90
:1047F8001D0EE66E120EE66E010EE66EE7EC8CF00C
:104808004B504C10D8A416D0310E0001E819D8A48A
:1048180055D7010EE66EA3ECA2F0F50EE3CFE6FF46
:10482800E3CFE6FF010EE66E010EE66ECDEC8FF0EB
:1048380020EF31F00A0EE66E1C0EE66E120EE66EE2
:10484800010EE66EE7EC8CF04B504C10D8A416D055
:10485800310E0001E919D8A431D7010EE66EA3EC98
:10486800A2F0F50EE3CFE6FFE3CFE6FF800EE66E9B
:10487800000EE66ECDEC8FF020EF31F0060EE66EFE
:104888001C0EE66E120EE66E010EE66EE7EC8CF07C
:104898004B504C10D8A416D0310E0001EA19D8A4F8
:1048A8000DD7010EE66EA3ECA2F0F50EE3CFE6FFFE
:1048B800E3CFE6FF400EE66E000EE66ECDEC8FF01D
:1048C80020EF31F05A0EE66E1C0EE66E120EE66E02
:1048D800010EE66EE7EC8CF04B504C10D8A416D0C5
:1048E800310E0001EB19D8A4E9D6010EE66EA3EC4F
:1048F800A2F0F50EE3CFE6FFE3CFE6FF200EE66E6B
:10490800000EE66ECDEC8FF020EF31F0070EE66E6C
:104918001B0EE66E120EE66E010EE66EE7EC8CF0EC
:104928004B504C10D8A416D0310E0001EC19D8A465
:10493800C5D6010EE66EA3ECA2F0F50EE3CFE6FFB6
:10494800E3CFE6FF100EE66E000EE66ECDEC8FF0BC
:1049580020EF31F01E0EE66E1C0EE66E120EE66EAD
:10496800010EE66EE7EC8CF04B504C10D8A40CD03E
:10497800000EE66E000EE66E000EE66E000EE66EA7
:10498800CDEC8FF020EF31F0E90EE66E1A0EE66EF0
:10499800120EE66E010EE66EE7EC8CF04B504C10F2
:1049A800D8A427D0F50EE3CF4BF0F60EE3504B100A
:1049B800D8A409D08E0E5E6E8F0E0001D46F5A0EE9
:1049C8005F6E5B0E0FD0F50EE3040FE1F60EE350B9
:1049D800D8A40BD0900E5E6E910E0001D46F440ED9
:1049E8005F6E450E5B6E3C0ED36F24EC8BF0C5EF0B
:1049F80033F0CE0EE66E1E0EE66E120EE66E010E59
:104A0800E66EE7EC8CF04B504C10D8A40DD0000E9D
:104A1800E66EF40EE3CFE6FFE3CFE6FF000EE66EA8
:104A280042EC7BF020EF31F0710EE66E1E0EE66E62
:104A3800120EE66E010EE66EE7EC8CF04B504C1051
:104A4800D8A40CD067EC8FF0E30E566E56C0E6FF84
:104A5800000EE66ECCECA0F0C5EF33F01D0EE66E4E
:104A68001B0EE66E120EE66E010EE66EE7EC8CF09B
:104A78004B504C10D8A40BD0F70EE3CFE6FFE3CF92
:104A8800E6FFC4EC9FF067EC8FF0C5EF33F0710ED2
:104A9800E66E1D0EE66E120EE66E010EE66EE7EC91
:104AA8008CF04B504C10D8A469D0000EE66E5E50C6
:104AB800E66E31ECAAF00001D451E66EF8ECA1F0F4
:104AC800A20E4BC0E3FFA30E4CC0E3FF040E566ECC
:104AD800E150A20FD96EE250DA6EFF0EDA225628A4
:104AE80004D0DE52D890DD32DF32E82EFAD7000E3D
:104AF800E66E800EE66E3D0EE66E9F0EE3CFE6FF95
:104B0800E3CFE6FFECECA8F04BC0E6FF4CC0E6FFB5
:104B18004DC0E6FFEDEC66F0F20E4BC0E3FFF30E7E
:104B28004CC0E3FFF40E4DC0E3FFF20EE3CFE6FF07
:104B3800E3CFE6FFE3CFE6FF160EE66E1D0EE66E48
:104B4800E50EE1244B6EFF0EE2204C6E4BC0E6FFF3
:104B58004CC0E6FF070EE66E3DEC99F0EA0EE12444
:104B68004B6EFF0EE2204C6E4BC0E6FF4CC0E6FFDA
:104B7800CCECA0F015ECABF0C5EF33F02E0EE66EE2
:104B88001C0EE66E120EE66E010EE66EE7EC8CF079
:104B98004B504C10D8B40ED0F90EE66E1D0EE66ED2
:104BA800120EE66E010EE66EE7EC8CF04B504C10E0
:104BB800D8A408D0F90EE66E1D0EE66E9FEC83F0C1
:104BC800C5EF33F08F0EE66E1D0EE66E120EE66E22
:104BD800010EE66EE7EC8CF04B504C10D8A404D0D4
:104BE80093ECA5F0C5EF33F0610EE66E1C0EE66E91
:104BF800120EE66E010EE66EE7EC8CF04B504C1090
:104C0800D8B40ED00D0EE66E1E0EE66E120EE66ECF
:104C1800010EE66EE7EC8CF04B504C10D8A404D093
:104C28002DEC78F0C5EF33F0F20EE66E1C0EE66E52
:104C3800120EE66E010EE66EE7EC8CF04B504C104F
:104C4800D8A404D0BDECA1F0C5EF33F04E0EE66E4B
:104C58001D0EE66E120EE66E010EE66EE7EC8CF0A7
:104C68004B504C10D8A40CD0000EE66E000EE66E29
:104C7800000EE66E5D0EE66E58ECA6F0C5EF33F05A
:104C8800260EE66E1C0EE66E120EE66E010EE66E3F
:104C9800E7EC8CF04B504C10D8A40AD0A1EC97F05C
:104CA8004B50E66E000EE66EB3EC84F0C5EF33F0C1
:104CB800940EE66E1D0EE66E120EE66E010EE66EA0
:104CC800E7EC8CF04B504C10D8B40ED04A0EE66E80
:104CD8001B0EE66E120EE66E010EE66EE7EC8CF029
:104CE8004B504C10D8A413D0010EE66EA3ECA2F0E2
:104CF800F70EE3CFE6FFE3CFE6FFA8EC6EF04BC07C
:104D0800E6FF4CC0E6FF1CEC7EF020EF31F0C50E4C
:104D1800E66E1B0EE66E120EE66E010EE66EE7EC10
:104D28008CF04B504C10D8B40ED01C0EE66E1F0EF3
:104D3800E66E120EE66E010EE66EE7EC8CF04B5056
:104D48004C10D8A40DD0010EE66EA3ECA2F0F50E1F
:104D5800E3CFE6FFE3CFE6FF7DEC82F059EF14F0F6
:104D6800F30EE66E1A0EE66E120EE66E010EE66E93
:104D7800E7EC8CF04B504C10D8B40ED01F0EE66EFA
:104D88001F0EE66E120EE66E010EE66EE7EC8CF074
:104D98004B504C10D8A40DD0010EE66EA3ECA2F037
:104DA800F50EE3CFE6FFE3CFE6FFE7EC81F059EF3E
:104DB80014F03A0EE66E1D0EE66E120EE66E010E49
:104DC800E66EE7EC8CF04B504C10D8A40DD0010ED9
:104DD800E66EA3ECA2F0F70EE3CFE6FFE3CFE6FF23
:104DE80080EC56F020EF31F0D40EE66E1C0EE66E25
:104DF800120EE66E010EE66EE7EC8CF04B504C108E
:104E0800D8B40ED0BD0EE66E1D0EE66E120EE66E1E
:104E1800010EE66EE7EC8CF04B504C10D8A41BD07A
:104E2800010EE66EA3ECA2F0F50EE3280BE1F60EF8
:104E3800E3CF4BF07F0E4B18D8A404D0F50EE36AED
:104E4800F60EE36AF50EE3CFE6FFE3CFE6FF9AEC52
:104E5800A9F059EF14F0E00EE66E1C0EE66E120E85
:104E6800E66E010EE66EE7EC8CF04B504C10D8B4B1
:104E78000ED0C90EE66E1D0EE66E120EE66E010E1F
:104E8800E66EE7EC8CF04B504C10D8A41BD0010E0A
:104E9800E66EA3ECA2F0F50EE3280BE1F60EE3CFE5
:104EA8004BF07F0E4B18D8A404D0F50EE36AF60E2B
:104EB800E36AF50EE3CFE6FFE3CFE6FF83ECA9F064
:104EC80059EF14F0FD0EE66E1A0EE66E120EE66E3F
:104ED800010EE66EE7EC8CF04B504C10D8B40ED0B7
:104EE800010EE66E1F0EE66E120EE66E010EE66EFF
:104EF800E7EC8CF04B504C10D8A408D0C1EC91F0E2
:104F08004B50D8B459EF14F062EF23F0200EE66E40
:104F18001A0EE66E120EE66E010EE66EE7EC8CF0E7
:104F28004B504C10D8B40ED0EF0EE66E1E0EE66E47
:104F3800120EE66E010EE66EE7EC8CF04B504C104C
:104F4800D8A40AD0C9ECA6F04B50E66E000EE66E67
:104F5800B3EC84F0C5EF33F0110EE66E1B0EE66E6F
:104F6800120EE66E010EE66EE7EC8CF04B504C101C
:104F7800D8B40ED0D20EE66E1A0EE66E120EE66E9B
:104F8800010EE66EE7EC8CF04B504C10D8A495D08F
:104F98009E0EE36A9F0EE36AA00EE36AA10EE36A1F
:104FA8009E0EE1244B6EFF0EE2204C6E4BC0E6FFD6
:104FB8004CC0E6FF9E0EE1244B6EFF0EE2204C6EC5
:104FC8004BC0E6FF4CC0E6FFF30EE3CFE6FFE3CFAE
:104FD800E6FFB1EC64F04B50D8A459EF14F0A00EE2
:104FE800E350D8B459EF14F02250D8B44AD0A00EE8
:104FF800E3CF56F0030E5616A10E56C0E3FFA00EDF
:10500800E3B405D0960EE36A970EE36A0AD0080E59
:10501800556E000E566E960E55C0E3FF970E56C09D
:10502800E3FF960EE3CF56F0E150A10FD96EE250A0
:10503800DA6EFF0EDA225650DF12A00EE3B605D064
:10504800940EE36A950EE36A0AD0040E556E000EBC
:10505800566E940E55C0E3FF950E56C0E3FF940EAE
:10506800E3CF56F0E150A10FD96EE250DA6EFF0E91
:10507800DA225650DF12A10EE3CF4BF0A00E4BC040
:10508800E3FF9E0EE3CF55F09F0EE3CF56F0D89086
:1050980056325532D890563255325550E66E9F0EDC
:1050A800E350E66EC3EC85F09E0EE3CFE6FFE3CF58
:1050B800E6FFB3EC84F0C5EF33F0F40EE66E190E9C
:1050C800E66E120EE66E010EE66EE7EC8CF04B50C3
:1050D8004C10D8B40ED0FE0EE66E1E0EE66E120E02
:1050E800E66E010EE66EE7EC8CF04B504C10D8A43F
:1050F800BBD09A0EE36A9B0EE36A9C0EE36A9D0E90
:10510800E36A9A0EE1244B6EFF0EE2204C6E4BC010
:10511800E6FF4CC0E6FF9A0EE1244B6EFF0EE2203C
:105128004C6E4BC0E6FF4CC0E6FFF30EE3CFE6FF44
:10513800E3CFE6FFB1EC64F04B50D8A459EF14F07C
:105148009C0EE350D8B459EF14F02250D8B470D064
:105158009C0EE3B005D0920EE36A930EE36A0AD080
:10516800020E556E000E566E920E55C0E3FF930E5A
:1051780056C0E3FF920EE3CF56F0E1509D0FD96E73
:10518800E250DA6EFF0EDA225650DF129C0EE3A2CE
:1051980003D0566A562A01D0566AE1509D0FD96E3F
:1051A800E250DA6EFF0EDA225650DF129C0EE3B49C
:1051B80005D0900EE36A910EE36A0AD0080E556E88
:1051C800000E566E900E55C0E3FF910E56C0E3FFD9
:1051D800900EE3CF56F0E1509D0FD96EE250DA6E93
:1051E800FF0EDA225650DF129C0EE3B605D08E0E63
:1051F800E36A8F0EE36A0AD0040E556E000E566EEF
:105208008E0E55C0E3FF8F0E56C0E3FF8E0EE3CF20
:1052180056F0E1509D0FD96EE250DA6EFF0EDA2299
:105228005650DF129D0EE3CF4BF09C0E4BC0E3FFB0
:105238009A0EE3CF55F09B0EE3CF56F0D890563236
:105248005532D890563255325550E66E9B0EE35083
:10525800E66E03EC74F09A0EE3CFE6FFE3CFE6FFC9
:10526800B3EC84F0C5EF33F0B30EE66E1B0EE66EBA
:10527800120EE66E010EE66EE7EC8CF04B504C1009
:10528800D8B40ED0AD0EE66E1E0EE66E120EE66EA9
:10529800010EE66EE7EC8CF04B504C10D8A404D00D
:1052A800C1EC91F059EF14F0160EE66E1C0EE66E86
:1052B800120EE66E010EE66EE7EC8CF04B504C10C9
:1052C800D8B40ED0190EE66E1F0EE66E120EE66EFC
:1052D800010EE66EE7EC8CF04B504C10D8A430D0A1
:1052E800990EE36AF60EE66E1B0EE66ED8ECA3F096
:1052F800020EE66EE90EE66E0AECA6F0990E4BC0B9
:10530800E3FF990EE350E66E000EE66E8EEC76F043
:10531800FE0EE66E1B0EE66ED8ECA3F0030EE66EEC
:10532800E90EE66E0AECA6F0990E4BC0E3FF990E63
:10533800E350E66E000EE66E8EEC76F0C5EF33F0C5
:105348002B0EE66E1D0EE66E120EE66E010EE66E72
:10535800E7EC8CF04B504C10D8A414D0030EE66E3A
:10536800F40EE350E66E63EC77F04B50556E566AD8
:1053780055BE560655C0E6FF56C0E6FFB3EC84F0AE
:10538800C5EF33F0D40EE66E1E0EE66E120EE66E14
:10539800010EE66EE7EC8CF04B504C10D8A483D08D
:1053A800F60EE3AE04D0F50EE36AF60EE36AF60EE7
:1053B800E3BE11D0F60EE3CF4BF0040E4B5ED8A03F
:1053C8000AD0FF0E556E030E566EF50E55C0E3FF5C
:1053D800F60E56C0E3FF2D50D8B43CD0F50EE3CFFF
:1053E800E6FFE3CFE6FFE7ECA4F0F20E4BC0E3FFE5
:1053F800F30E4CC0E3FFF40E4DC0E3FF000EE66E63
:10540800800EE66E3F0EE66EEF0EE3CFE6FFE3CFCB
:10541800E6FFE3CFE6FF44EC72F0F20E4BC0E3FF89
:10542800F30E4CC0E3FFF40E4DC0E3FFF20EE3CFE2
:10543800E6FFE3CFE6FFE3CFE6FFFDEC7BF04BC0F2
:1054480055F04CC056F0F50E55C0E3FFF60E56C0A9
:10545800E3FF20D0F50EE3CFE6FFE3CFE6FFE7EC6E
:10546800A4F0F20E4BC0E3FFF30E4CC0E3FFF40EC2
:105478004DC0E3FF000EE66E800EE66E3F0EE66E50
:10548800EF0EE3CFE6FFE3CFE6FFE3CFE6FF44EC22
:1054980072F0C3D7F50EE3CFE6FFE3CFE6FF46ECA5
:1054A800A1F059EF14F00A0EE66E1D0EE66E120E0C
:1054B800E66E010EE66EE7EC8CF04B504C10D8A46B
:1054C8003ED0F50EE36AF60EE36A7DECAAF00FEC27
:1054D800ABF0400EE66E00ECA8F04B50D8A40FD00D
:1054E800F50EE350010F4B6EF50E4BC0E3FF4B6A10
:1054F800F60EE3504B204B6EF60E4BC0E3FF09EC63
:10550800ABF07DECAAF00FECABF04E0EE66E00ECC3
:10551800A8F04B50D8A40FD0F50EE350020F4B6EF5
:10552800F50E4BC0E3FF4B6AF60EE3504B204B6E73
:10553800F60E4BC0E3FF09ECABF0A7EF14F0B50E85
:10554800E66E1D0EE66E120EE66E010EE66EE7ECD6
:105558008CF04B504C10D8A40CD071EC9EF0010E7E
:10556800E66E1FECA9F02E6A00019B6B9A6BC5EFE3
:1055780033F0B90EE66E1D0EE66E120EE66E010EE3
:10558800E66EE7EC8CF04B504C10D8A413D02E509C
:10559800D8B404D0000EE66EA3ECA2F0010EE66EBD
:1055A8001FECA9F02E6AF50EE350E66E6AECA9F03E
:1055B800C5EF33F0C50EE66E1D0EE66E120EE66EF2
:1055C800010EE66EE7EC8CF04B504C10D8A413D0CB
:1055D8002E50D8B404D0000EE66EA3ECA2F0010E53
:1055E800E66E1FECA9F02E6AF50EE350E66E51EC5C
:1055F800A9F0C5EF33F0FE0EE66E1C0EE66E120E35
:10560800E66E010EE66EE7EC8CF04B504C10D8B409
:105618000ED0350EE66E1E0EE66E120EE66E010E0A
:10562800E66EE7EC8CF04B504C10D8A407D0010E76
:10563800E66E1FECA9F02E6AC5EF33F0760EE66E23
:105648001C0EE66E120EE66E010EE66EE7EC8CF0AE
:105658004B504C10D8B40ED04D0EE66E1E0EE66EB2
:10566800120EE66E010EE66EE7EC8CF04B504C1015
:10567800D8A417D0BBECA5F04B50D8A462EF23F008
:10568800000EE66EA3ECA2F0000EE66E1FECA9F089
:10569800010E2E6EF29E316A0001986BF28E59EF60
:1056A80014F0530EE66E1C0EE66E120EE66E010E38
:1056B800E66EE7EC8CF04B504C10D8A404D05EECAE
:1056C800A8F075EF31F0210EE66E1E0EE66E120E92
:1056D800E66E010EE66EE7EC8CF04B504C10D8A449
:1056E8000BD0C80EE66E38ECA4F04B504C10D8A482
:1056F80062EF23F059EF14F0A30EE66E1A0EE66E71
:10570800120EE66E010EE66EE7EC8CF04B504C1074
:10571800D8A40DD0F50EE350E66EC80EE66E000E66
:10572800E66E75ECA3F067EC8FF0C5EF33F0650E0D
:10573800E66E1C0EE66E120EE66E010EE66EE7ECE5
:105748008CF04B504C10D8A405D0F50EE3CF5AF08E
:1057580059EF14F0050EE66E1E0EE66E120EE66E9A
:10576800010EE66EE7EC8CF04B504C10D8A403D039
:105778005A509FEF14F0F20EE66E1E0EE66E120EF1
:10578800E66E010EE66EE7EC8CF04B504C10D8A498
:1057980008D0F50EE3CFCBF0F60EE3CFCCF059EFFF
:1057A80014F0010EE66E1E0EE66E120EE66E010E87
:1057B800E66EE7EC8CF04B504C10D8A408D0F50EF0
:1057C800CBC0E3FFF60ECCC0E3FFA7EF14F0290E21
:1057D800E66E1E0EE66E120EE66E010EE66EE7EC43
:1057E8008CF04B504C10D8A407D0B5EC80F0FC0ED0
:1057F8004BC0E3FF30EF14F0220EE66E1F0EE66E8C
:10580800120EE66E010EE66EE7EC8CF04B504C1073
:10581800D8A415D0F50EE3CF55F0F60EE3CF56F029
:105828000A0E5502F3CF53F0F4CF54F05602F3505A
:10583800542653C057F054C058F0C5EF33F0AA0EA1
:10584800E66E1A0EE66E120EE66E010EE66EE7ECD6
:105858008CF04B504C10D8A415D0F50EE3CF55F072
:10586800F60EE3CF56F00A0E5502F3CF53F0F4CFFD
:1058780054F05602F350542653C0D1F054C0D2F01D
:10588800C5EF33F08A0EE66E190EE66E120EE66E5E
:10589800010EE66EE7EC8CF04B504C10D8A408D003
:1058A800F50EE3CFCFF0F60EE3CFD0F0C5EF33F02F
:1058B8003C0EE66E1D0EE66E120EE66E010EE66EEC
:1058C800E7EC8CF04B504C10D8A408D0F50EE3CF81
:1058D800CDF0F60EE3CFCEF0C5EF33F0490EE66E0D
:1058E8001E0EE66E120EE66E010EE66EE7EC8CF00A
:1058F8004B504C10D8A40DD0BCECA4F09DECA7F0F4
:10590800190EE66EBAECAAF0286A0001916B59EFFD
:1059180014F0B00EE66E1E0EE66E120EE66E010E66
:10592800E66EE7EC8CF04B504C10D8A429D0F60E5C
:10593800E3BE62EF23F0F60EE3BE0BD0F60EE350A3
:1059480006E1F50EE3CF4BF00D0E4B5ED8B062EFDB
:1059580023F0F50EE3CF56F05650D50FD96EDA6A1C
:10596800310EDE18D8A462EF23F057C016F058C0E5
:1059780017F0F50EE350E66E77EC9AF059EF14F055
:10598800E50EE66E1D0EE66E120EE66E010EE66E72
:10599800E7EC8CF04B504C10D8A40DD027C055F034
:1059A800566A55BE560655C0E6FF56C0E6FFB3EC2C
:1059B80084F0C5EF33F0D90EE66E1D0EE66E120EBA
:1059C800E66E010EE66EE7EC8CF04B504C10D8A456
:1059D8002AD0F29A800EE66E42EC94F0F90E4BC093
:1059E800E3FFFA0E4CC0E3FFF90EE350010F4B6ED4
:1059F800F90E4BC0E3FF4B6AFA0EE3504B204B6E97
:105A0800FA0E4BC0E3FFF90EE3CFE6FFE3CFE6FF64
:105A1800800EE66E0EEC9BF0040E266E1868196870
:105A2800F28AC5EF33F0CD0EE66E1D0EE66E120E4D
:105A3800E66E010EE66EE7EC8CF04B504C10D8A4E5
:105A480025D0F29A800EE66E42EC94F0F90E4BC027
:105A5800E3FFFA0E4CC0E3FFE150F90FD96EE250B4
:105A6800DA6EFF0EDA22DE06000EDD5AF90EE3CFFB
:105A7800E6FFE3CFE6FF800EE66E0EEC9BF0040E29
:105A8800266E000E196E010E186ECAD7100EE66E3D
:105A98001F0EE66E120EE66E010EE66EE7EC8CF057
:105AA8004B504C10D8A40CD000018485040E266EEF
:105AB800F50EE3CF18F0F60EE3CF19F0C5EF33F08B
:105AC8009D0EE66E1E0EE66E120EE66E010EE66E78
:105AD800E7EC8CF04B504C10D8A40AD0000EE66EC0
:105AE800000EE66E800EE66E0EEC9BF0C5EF33F00E
:105AF800610EE66E1E0EE66E120EE66E010EE66E84
:105B0800E7EC8CF04B504C10D8A413D0800EE66E06
:105B180042EC94F0F90E4BC0E3FFFA0E4CC0E3FFE1
:105B2800F90EE3CFE6FFE3CFE6FFB3EC84F0C5EF71
:105B380033F03D0EE66E1E0EE66E120EE66E010E98
:105B4800E66EE7EC8CF04B504C10D8A404D0BCECBB
:105B5800A4F059EF14F08D0EE66E1E0EE66E120ECE
:105B6800E66E010EE66EE7EC8CF04B504C10D8A4B4
:105B780005D0928680A69EEF14F0C0D1790EE66E0D
:105B88001E0EE66E120EE66E010EE66EE7EC8CF067
:105B98004B504C10D8A409D0939AF50EE3B002D01C
:105BA800819A01D0818AC5EF33F0510EE66E1E0E40
:105BB800E66E120EE66E010EE66EE7EC8CF04B50C8
:105BC8004C10D8A408D0F50EE3B002D0839601D0CB
:105BD8008386C5EF33F0390EE66E1E0EE66E120EA2
:105BE800E66E010EE66EE7EC8CF04B504C10D8B424
:105BF8000ED0690EE66E1E0EE66E120EE66E010EF1
:105C0800E66EE7EC8CF04B504C10D8A40CD067EC47
:105C18008FF0D50E566E56C0E6FF000EE66ECCEC41
:105C2800A0F0C5EF33F0990EE66E1A0EE66E120E6E
:105C3800E66E010EE66EE7EC8CF04B504C10D8A4E3
:105C48000BD0F70EE3CFE6FFE3CFE6FF07ECA0F0BB
:105C580067EC8FF0C5EF33F0E90EE66E1D0EE66EC9
:105C6800120EE66E010EE66EE7EC8CF04B504C100F
:105C7800D8A408D02850E66E000EE66EB3EC84F087
:105C8800C5EF33F0C20EE66E1E0EE66E120EE66E1D
:105C9800010EE66EE7EC8CF04B504C10D8A422D0E5
:105CA800F50EE3CF4BF0F60EE3504B10D8B415D0F9
:105CB8002850D8A459EF14F0B9920000040E256EAC
:105CC800840EE66E42EC94F04BC01AF04CC01BF008
:105CD800010E286EB98259EF14F0286A9DECA7F0DE
:105CE80059EF14F0A10EE66E1D0EE66E120EE66E6A
:105CF800010EE66EE7EC8CF04B504C10D8A402D0A5
:105D0800010E01D0000E546E7B0EE66E1D0EE66E7F
:105D1800120EE66E010EE66EE7EC8CF04B504C105E
:105D2800D8A402D0010E01D0000E5410E8A005D06E
:105D38002850D8B4C1D759EF14F0AD0EE66E1D0E39
:105D4800E66E120EE66E010EE66EE7EC8CF04B5036
:105D58004C10D8A402D0010E01D0000E546E580E7B
:105D6800E66E1D0EE66E120EE66E010EE66EE7ECAE
:105D78008CF04B504C10D8A402D0010E01D0000E6C
:105D88005410E8B0AAD7DD0EE66E1D0EE66E120EB0
:105D9800E66E010EE66EE7EC8CF04B504C10D8A482
:105DA80025D0B992840EE66E42EC94F0F90E4BC001
:105DB800E3FFFA0E4CC0E3FFE150F90FD96EE25051
:105DC800DA6EFF0EDA22DE06000EDD5AF90EE3CF98
:105DD800E6FFE3CFE6FF840EE66E0EEC9BF0040EC2
:105DE800256E1A681B68B982C5EF33F0D10EE66ECE
:105DF8001D0EE66E120EE66E010EE66EE7EC8CF0F6
:105E08004B504C10D8A42AD0B992840EE66E42ECBE
:105E180094F0F90E4BC0E3FFFA0E4CC0E3FFF90E05
:105E2800E350010F4B6EF90E4BC0E3FF4B6AFA0EBD
:105E3800E3504B204B6EFA0E4BC0E3FFF90EE3CF55
:105E4800E6FFE3CFE6FF840EE66E0EEC9BF0040E51
:105E5800256E000E1B6E010E1A6EC5D7A10EE66EDA
:105E68001E0EE66E120EE66E010EE66EE7EC8CF084
:105E78004B504C10D8A40AD04F0EE66E010EE66EB9
:105E8800840EE66E0EEC9BF0C5EF33F0650EE66E01
:105E98001E0EE66E120EE66E010EE66EE7EC8CF054
:105EA8004B504C10D8A405D0840EE66E42EC94F00A
:105EB80031D6410EE66E1E0EE66E120EE66E010E2D
:105EC800E66EE7EC8CF04B504C10D8A405D09DEC56
:105ED800A7F0286A59EF14F0910EE66E1E0EE66ED2
:105EE800120EE66E010EE66EE7EC8CF04B504C108D
:105EF800D8A407D0928880A89EEF14F0010E9FEFD7
:105F080014F07D0EE66E1E0EE66E120EE66E010EA3
:105F1800E66EE7EC8CF04B504C10D8A409D0939C5B
:105F2800F50EE3B002D0819C01D0818CC5EF33F02F
:105F3800550EE66E1E0EE66E120EE66E010EE66E4B
:105F4800E7EC8CF04B504C10D8A408D0F50EE3B019
:105F580002D0839801D08388C5EF33F0ED0EE66E4A
:105F68001D0EE66E120EE66E010EE66EE7EC8CF084
:105F78004B504C10D8A408D000019151E66E000E89
:105F8800E66EB3EC84F0FDD3450EE66E1E0EE66EAB
:105F9800120EE66E010EE66EE7EC8CF04B504C10DC
:105FA800D8A405D0190EE66EBAECAAF0AED4A50EA8
:105FB800E66E1E0EE66E120EE66E010EE66EE7EC5B
:105FC8008CF04B504C10D8A407D01A0EE66EBAECE1
:105FD800AAF00001916BD5D3CB0EE66E1E0EE66ECD
:105FE800120EE66E010EE66EE7EC8CF04B504C108C
:105FF800D8A411D0F50EE3CF4BF0F60EE3504B10BA
:10600800D8B4D0D7150EE66EBAECAAF0010E00018E
:10601800916F59EF14F0A50EE66E1D0EE66E120E86
:10602800E66E010EE66EE7EC8CF04B504C10D8A4EF
:1060380002D0010E01D0000E546E800EE66E1D0EC9
:10604800E66E120EE66E010EE66EE7EC8CF04B5033
:106058004C10D8A402D0010E01D0000E5410E8B0A4
:10606800D1D7B10EE66E1D0EE66E120EE66E010E6B
:10607800E66EE7EC8CF04B504C10D8A402D0010E21
:1060880001D0000E546E5D0EE66E1D0EE66E120E09
:10609800E66E010EE66EE7EC8CF04B504C10D8A47F
:1060A80002D0010E01D0000E5410E8B07BD7E10EEB
:1060B800E66E1D0EE66E120EE66E010EE66EE7EC5B
:1060C8008CF04B504C10D8A405D0170EE66EBAECE5
:1060D800AAF057D3D50EE66E1D0EE66E120EE66ECA
:1060E800010EE66EE7EC8CF04B504C10D8A405D0AE
:1060F800180EE66EBAECAAF044D36D0EE66E1E0ECC
:10610800E66E120EE66E010EE66EE7EC8CF04B5072
:106118004C10D8A405D01B0EE66EBAECAAF031D309
:10612800590EE66E1E0EE66E120EE66E010EE66E55
:10613800E7EC8CF04B504C10D8A405D01C0EE66E42
:10614800BAECAAF01ED3950EE66E1E0EE66E120E7F
:10615800E66E010EE66EE7EC8CF04B504C10D8A4BE
:1061680003D0E3ECA5F00DD3EF0EE66E190EE66E44
:10617800120EE66E010EE66EE7EC8CF04B504C10FA
:10618800D8A406D000019051E66EF4EC97F0A9D09F
:10619800F80EE66E1C0EE66E120EE66E010EE66E48
:1061A800E7EC8CF04B504C10D8A409D0000190516A
:1061B800E66EF40EE350E66EA4EC9BF0E2D28A0E93
:1061C800E66E1D0EE66E120EE66E010EE66EE7EC4A
:1061D8008CF04B504C10D8A404D0F50EE3CF90F0BF
:1061E800D0D2850EE66E1E0EE66E120EE66E010E1B
:1061F800E66EE7EC8CF04B504C10D8A408D0F70EA4
:10620800E3CFE6FFE3CFE6FF43EC5CF06AD0310E64
:10621800E66E1E0EE66E120EE66E010EE66EE7ECF8
:106228008CF04B504C10D8A40FD0F70EE3CFE6FFFC
:10623800E3CFE6FFD0EC65F0F50E4BC0E3FFF60EBA
:106248004CC0E3FFA7EF14F0980EE66E1B0EE66E47
:10625800120EE66E010EE66EE7EC8CF04B504C1019
:10626800D8A403D03FECA8F03CD0A10EE66E1B0EDC
:10627800E66E120EE66E010EE66EE7EC8CF04B5001
