:040000000EEF00F00F
:0400080084EF08F089
:0C0018008CEF08F012EE00F0C4EF04F0D2
:10010000F29ED190FC6A9AEC04F088EC00F01200A8
:10011000E652E652E652FD0EE36AFE0EE36A000185
:10012000606B59EC02F0FF0E01C0E3FFFF0EE3CF5E
:1001300001F0600E016402D0FF0EE39AFD0EE3CFE2
:100140000CF00C50600FD96EDA6AFF0EE3CFDFFFC0
:10015000FD0EE3CF0CF00C50600FD96EDA6A210E61
:10016000DF6011D0FD0EE3CF0CF00C50600FD96EA4
:10017000DA6ADF6A600EE66E43EC01F0FD0EE36AB8
:10018000FE0EE36ACED7FD0EE350010F016EFD0EA9
:1001900001C0E3FF016AFE0EE3500120016EFE0E76
:1001A00001C0E3FFFD0EE3CF0CF00C50600FD96EE1
:1001B000DA6ADF6A400EE66EFC0EE3CF0CF00C50FC
:1001C0005C0FE66ED1EC01F00150D8B4AAD79AECDE
:1001D00004F0D4D7E652E652E652E65281AC03D0A0
:1001E0000C6A0C2A01D00C6AFF0E0CC0E3FF040E4F
:1001F000F66E110EF76E0800FC0EF5CFE3FF050E4C
:10020000F66E110EF76E000EF86EFD0EE124D96E3B
:10021000FF0EE220DA6E0800F5CFDFFF060EF66E65
:10022000110EF76E000EF86EFE0EE124D96EFF0E71
:10023000E220DA6E0800F5CFDFFFFC0EE3CF01F01D
:10024000440E0118D8A417D0FD0EE124D96EFF0E7C
:10025000E220DA6E420EDE18D8A40DD0FE0EE124A4
:10026000D96EFF0EE220DA6E470EDE18D8A403D056
:10027000FF0EE36AE32AFF0EE3CF01F0E552E552F9
:10028000E552E5521200FF0EE350D96EDA6A3A0EDB
:10029000DE18D8A40CD0010E0C6EFF0EE3500C2417
:1002A0000B6E0BC021F0226A8BEC01F032D02D0EC8
:1002B000E66EFE0EE350E66ED1EC01F00150D8B4CC
:1002C00003D0C9EC04F025D0350EE66EFE0EE350E7
:1002D000E66ED1EC01F00150D8B403D0CEEC04F0BE
:1002E00018D03B0EE66EFE0EE350E66ED1EC01F048
:1002F0000150D8B403D074EC04F00BD0450EE66E78
:10030000FE0EE350E66ED1EC01F00150D8A444ECAF
:1003100008F0E552120028EC08F001502B6E2BC0BB
:100320002CF028EC08F001502F6E28EC08F001505A
:100330002E6E28EC08F001502A6E1CD028EC08F034
:1003400028EC08F001502D6E20D028EC08F0015068
:10035000E66E42EC03F02B062B28D8B416D0F5D766
:100360000FEC03F035EC04F010D0210EE66EFAEC41
:1003700003F00BD02A50000AD8B4EDD7010AD8B444
:10038000EFD7050AD8B4DAD7F0D7B0EC04F0000EF6
:10039000E66EFAEC03F02A04D8A41200BAEC04F0DA
:1003A0001200E652E652FE0EE36AFF0EE36A1CD02C
:1003B000FE0EE3CF0CF0FD0EE3500C24D96EDA6A8A
:1003C000DF50D8A402D0010E2AD0FE0EE350010F58
:1003D000016EFE0E01C0E3FF016AFF0EE350012033
:1003E000016EFF0E01C0E3FFFE0EE3CF0CF0FD0E29
:1003F000E3500C24D96EDA6ADF500C6EFE0EE3CFA8
:100400000BF0FC0EE3500B240A6E0AC0F6FF100E30
:10041000F76E0800F5500C18D8B4CAD7000E016E5C
:10042000E552E552E552E552120093948184989288
:100430008682050E0C6E0F0E0B6EF10EE82EFED7A7
:100440000B2EFCD70C2EFAD7000098948694050E3C
:100450000C6E0F0E0B6EF10EE82EFED70B2EFCD796
:100460000C2EFAD7000092908090979A859A979CCC
:10047000858C979E858E050E0C6E0F0E0B6EF10E01
:10048000E82EFED70B2EFCD70C2EFAD70000929444
:100490008084050E0C6E0F0E0B6EF10EE82EFED74B
:1004A0000B2EFCD70C2EFAD70000858A98908680F8
:1004B0001200E6528EEC04F00150D8B4FBD7FF0EC8
:1004C000E36A9668858800000000000000000000D4
:1004D00085980000000000000000000084A802D001
:1004E000FF0EE38E84AC02D0FF0EE38C84AA02D010
:1004F000FF0EE38A84A202D0FF0EE38884AE02D00E
:10050000FF0EE38684A402D0FF0EE38484A602D00B
:10051000FF0EE38284A002D0FF0EE38085880000F6
:100520000000000000000000FF0EE3CF01F0E552E4
:100530001200FD0EE350D8A406D0FC0EE3CF01F06C
:10054000100E016430D0F8CF29F0FD0EE3CFF8FF94
:10055000FC0EE3CFF7FFFB0EE3CFF6FF800E7F6EBE
:10056000256A7F0E256401D011D0FE0EE3CF0BF07B
:10057000FF0EE3CF0CF025500B24D96E000E0C209B
:10058000DA6EDF50F56E0D00252AEBD7FD0EE3CFB6
:10059000F8FFFC0EE3CFF7FFFB0EE3CFF6FFA5EC71
:1005A00004F029C0F8FFFB0EE126FF0EE222120044
:1005B000E652E652FE0EE36AFF0EE36A1CD0E150FB
:1005C000FE0FD96EE250DA6EFF0EDA22DFCF0BF0AB
:1005D000010EDE26DFCF0CF0000EDD22FD0EE35013
:1005E0000B240A6E0AC0F6FF100EF76E0800F550D5
:1005F000E66EA3EC03F0FE0EE3CF0CF0FD0EE3502D
:100600000C240B6E0BC0F6FF100EF76E0800F550B1
:100610000009D8A4D4D7E552E552E5521200235080
:10062000D8B412002850D8A41DD0110E2718D8B461
:1006300026BE18D0256A7F0E256401D010D0800E0A
:100640002524D96EDA6A010EDA22000E2524E96E1D
:10065000EA6A010EEA22DFCFEFFF252AECD7010E6E
:10066000246E0DD02650800BE66E2750E66E285083
:10067000E66E800EE66E010EE66E99EC02F024EC5A
:1006800004F0120028502D18D8A409D027502F1894
:10069000D8A405D02E5026180C6E0CAE08D00FEC46
:1006A00003F02DC028F02FC027F02EC026F02E50CA
:1006B0007F0B0B6E0C6A800E0B24D96E010E0C2082
:1006C000DA6EFF0EE3CFDFFF2E2A2E50D8B42F2A8A
:1006D000010E236E2EC00CF07F0E0C16D8B40FEC5A
:1006E00003F0E5521200E65221C0D9FF22C0DAFF22
:1006F000DF500C6EFF0E0CC0E3FFFF0EE350D8B4CA
:1007000017D0FF0EE3CF01F0300E015EFF0E01C0E7
:10071000E3FFFF0EE3CF01F0090E01640DD0FF0EE1
:10072000E3CF01F0070E015EFF0E01C0E3FF04D02E
:10073000210EE66EFAEC03F0214A222AFF0EE3CFE7
:1007400001F0E5521200000000000000000000006F
:1007500085B4FED7966A846AFF0EE3BE8488FF0ED6
:10076000E3BC848CFF0EE3BA848AFF0EE3B8848274
:10077000FF0EE3B6848EFF0EE3B48484FF0EE3B273
:100780008486FF0EE3B084808586000000000000B0
:10079000000000008596000000000000000000003E
:1007A0009668E5521200E652FF0EF8CFE3FFF86AB2
:1007B000110EF76EF66A900E7F6EA5EC04F0800EB7
:1007C000F626F650D8A4F7D7F72AF750D8A4F3D7CF
:1007D000F82A010EF864EFD7FF0EE3CFF8FF266882
:1007E000276828682E6A2F6A2D6A24EC04F0246A90
:1007F000E5521200FF0EE350E66EA3EC03F0FF0E8D
:10080000E3CF01F0210E0118D8A409D0680E016EC3
:10081000E40EE82EFED7012EFCD700D0FF00E552F3
:100820001200F19E938C81EC04F015EC02F055EC73
:1008300004F0D190EAEC00F00150D8A4BAEC04F036
:1008400088EC00F00EEF00F0256A7F0E256401D0E1
:100850000AD0800E2524D96EDA6A010EDA22FF0E44
:10086000DF6E252AF2D7236A12002450D8B4120072
:10087000000EE66E110EE66E000EE66E000EE66EDF
:10088000010EE66E99EC02F01200000EF66E110EEB
:10089000F76E0900F52804E10900F528D8B403D063
:1008A000016A012A1200016A1200F29E9688968C53
:1008B000968A9682968E9684968696809796979834
:1008C00093869784858885861200FF0EE350E66E36
:1008D000D8EC02F00D0EE66EA3EC03F00A0EE66E05
:1008E000A3EC03F0E5521200240EE66ED8EC02F001
:1008F000200EE66EA3EC03F0010EE66E65EC04F04C
:100900001200D1900F01256B246B236BF06AA06A53
:10091000F26A950ED56E549F2F9F120000000000C2
:1009200000000000000081B603D0016A012A120015
:10093000016A12003C0EE66EA3EC03F0D3EC03F068
:100940003E0EE66EA3EC03F012007F84550E7E6E21
:10095000AA0E7E6E7F8200007FB2FED77F941200C7
:1009600028EC08F02C50D8B41200210EE66EFAECF8
:1009700003F0120045EC04F00150D8B41200F18EDF
:10098000FC6A80EF08F01200000EF86E000111EF13
:1009900004F0150EE66E65EC04F012004D0EE66EE6
:0609A00065EC04F01200FA
:101000000030322E30322E323032342061742030B3
:10101000393A353100424F4F544C4F41445F56539B
:101020004339300052656C65617365640056455202
:1010300053494F4E004255494C44004441544500E9
:10104000424C44520045584500455252003400007D
:10105000E65273EC03F0013AF00E0116FF0E01C0E8
:10106000E3FF73EC03F0E150FF0FD96EE250DA6E4C
:10107000FF0EDA220150DF26FF0EE3502C26FF0E72
:10108000E3CF01F0E5521200BAEC04F0490EE66E2F
:0610900065EC04F0120003
:04110000A5EF0BF05C
:10110800E9CF34F0EACF35F0E1CF36F0E2CF37F06F
:10111800D9CF38F0DACF39F0F3CF3AF04BC03BF003
:101128004CC03CF04DC03DF04EC03EF051C03FF0C9
:1011380052C040F053C041F054C042F055C043F093
:1011480056C044F019EE4BF0F0A021D0F0909494E2
:101158008294F090DCEC9FF0000EE66E000EE66ED6
:10116800000EE66E000EE66EF40EE66E010EE66EFA
:10117800000EE66E000EE66E240EE66E030EE66EB8
:10118800C4EC5FF086929792858298908690F0A240
:10119800DFD0F09200019551D8B460D0808C5ED039
:1011A800460EE66E000EE66E000EE66E000EE66E69
:1011B800190EE66E000EE66E000EE66E000EE66E86
:1011C8008C0EE66E000EE66EC4EC5FF0460EE66E20
:1011D800000EE66E000EE66E000EE66E190EE66E66
:1011E800000EE66E000EE66E000EE66E8C0EE66EE3
:1011F800000EE66EC4EC5FF0460EE66E000EE66E7C
:10120800000EE66E000EE66E190EE66E000EE66E35
:10121800000EE66E000EE66E8C0EE66E000EE66EB2
:10122800C4EC5FF0000EE66E000EE66E000EE66E91
:10123800000EE66E190EE66E000EE66E000EE66E05
:10124800000EE66E8C0EE66E000EE66EC4EC5FF0E5
:1012580000018C2B040E8C6501D002D081B4A0D77C
:10126800040E8C6523D02050D8A420D09494829466
:10127800DCEC9FF0000EE66E000EE66E000EE66EE9
:10128800000EE66EF40EE66E010EE66E000EE66ED9
:10129800000EE66E240EE66E030EE66EC4EC5FF0FA
:1012A8008692979285829890869001D08C6B225076
:1012B800D8B44ED013BE08D0550E125C0B0E13587E
:1012C800D8A002D00D0E216E13BE10D0A50E125C50
:1012D800060E1358D8A00AD013BE06D0C40E125C4E
:1012E800090E1358D8B002D00D0E216E2150D8A483
:1012F8000AD013BE06D0140E125C050E1358D8B0CF
:1013080002D0212A25D02104D8B413BE0ED0150E40
:10131800125C050E1358D8A008D013BEF2D7A40E3D
:10132800125C060E1358D8A0ECD7020E2118D8B4B8
:1013380013BE0ED0C50E125C090E1358D8A008D0E3
:1013480013BEDFD7540E125C0B0E1358D8A0D9D792
:10135800010EBAA2000EB9A2000EE8A066D0BA9299
:101368007B90F00E7D6E5F0E7C6E7B800001862B7D
:10137800FA0E866507D0866B292A3B0E296402D0AF
:10138800296A922B7BBF08D07B5103E17A05D8A04C
:1013980003D07A07D8A07B0713BE06D0880E125C4C
:1013A800130E1358D8B002D0124A132A2250D8B4B8
:1013B8003AD0140E12181AE1050E1318D8A416D034
:1013C800020EE66E000EE66E000EE66E000EE66E8B
:1013D800780EE66E000EE66E000EE66E000EE66E05
:1013E800920EE66E010EE66EC4EC5FF0C40E1218A3
:1013F8001AE1090E1318D8A416D0020EE66E000ED4
:10140800E66E000EE66E000EE66E780EE66E000ED4
:10141800E66E000EE66E000EE66E920EE66E010EA9
:10142800E66EC4EC5FF026EC71F0010EF2A4000E3B
:10143800F2AA000EE8A035D0F29417C045F016C005
:1014480046F0D59E45C0D7FF46C0D6FFD58E18C0FA
:1014580047F019C048F048AE08D047500008476E1A
:101468004850D8A0E82A0008486E0001CC51475CD3
:101478004850800A326ECD51800A3258D8B005D013
:10148800CE51165ECF51175A0AD0D051165CD151A1
:101498001758D8B004D0CE511626CF51172284EC55
:1014A8006DF0F0A42ED0F094FDECA1F04B50496EF5
:1014B800800E326E020E336E800E3226000E3322FC
:1014C8003250145C33501558D8A004D0800E146ED6
:1014D800020E156E14501510D8B408D014C0D9FFD8
:1014E80015C0DAFF49C0DFFF144A152A0A0E491849
:1014F800D8A407D014C0D9FF15C0DAFFDF6A146A70
:10150800156A9EAAFBD0ABB402D0ABA20CD0ABA498
:1015180002D00001962BABA202D00001962BAE5050
:10152800AB98AB88EAD0AECF49F01E2AAD0E0001C9
:10153800785D02E1000E795DD8A003D09B0E786F2C
:10154800796B78517911D8B408D078C0D9FF79C0AF
:10155800DAFF49C0DFFF784B792B410E4918D8A430
:1015680002D0010E886F610E4918D8A402D0010E6E
:10157800876F4928D8B41D2A8705D8A454D01D04DC
:10158800D8A451D0886B1D6A876B9B0E786F796BD6
:101598004A6A0BD04A509B0FD96EDA6A4A50600FDC
:1015A800E96EEA6ADFCFEFFF4A2A1E504A5CD8A0EC
:1015B800F1D74A50600FD96EDA6A880EDF6E1E6A5C
:1015C800010E2D6E00019751D8A497D0320EE66E09
:1015D800000EE66E000EE66E000EE66E140EE66E67
:1015E800000EE66E000EE66E000EE66E8C0EE66EDF
:1015F800000EE66EC4EC5FF0000EE66E000EE66EBE
:10160800000EE66E000EE66E140EE66E000EE66E36
:10161800000EE66E000EE66E8C0EE66E000EE66EAE
:10162800C4EC5FF06AD08805D8A43ED0020E1D181D
:10163800D8A43AD0886B1D6A876B9B0E786F796B3C
:101648004A6A0BD04A509B0FD96EDA6A4A50600F2B
:10165800E96EEA6ADFCFEFFF4A2A1E504A5CD8A03B
:10166800F1D74A50600FD96EDA6A880EDF6E1E6AAB
:10167800010E2D6E2C50D8B440D0000EE66E000E30
:10168800E66E000EE66E000EE66E140EE66E000EB6
:10169800E66E000EE66E000EE66E8C0EE66E000E2E
:1016A800E66EC4EC5FF029D08851D8A426D01D047A
:1016B800D8A423D0886B1D6A876B9B0E786F796BD3
:1016C8004A6A0BD04A509B0FD96EDA6A4A50600FAB
:1016D800E96EEA6ADFCFEFFF4A2A1E504A5CD8A0BB
:1016E800F1D74A50600FD96EDA6A880EDF6E1E6A2B
:1016F800010E2D6E2C50D8A4C0D79E9A44C056F027
:1017080043C055F042C054F041C053F040C052F0BD
:101718003FC051F03EC04EF03DC04DF03CC04CF0D3
:101728003BC04BF03AC0F3FF39C0DAFF38C0D9FFED
:1017380037C0E2FF36C0E1FF35C0EAFF34C0E9FF39
:10174800110013EE80F0BEEF9DF00000803F0020F6
:101758004100C842007A44401C4650C3472474499B
:1017680097184BBCBE4C6B6E4E03155079AD60F3A9
:10177800497100803FCDCC3DD7233C12833AB7D185
:1017880038C62737388635C0D633CC2B32708930E7
:10179800E7DB2EE53C1E42A20D00000000803F0062
:1017A800803F66663FCD4C3F00403F33333F66265F
:1017B8003F9A193FCD0C3F00003F00000000000099
:1017C800100020004000800001010201040108010E
:1017D800100120010000010000000A000000640060
:1017E8000000E803000010270000A0860100404226
:1017F8000F008096980000E1F50500CA9A3B4572F3
:10180800726F722C20636F756C64206E6F74206920
:101818006E697469616C697365206C616D702074A0
:101828007261792049324320526561642F57726989
:101838007465204164647265737365732E00257343
:1018480020253032642E253032642E253034642031
:10185800617420253032643A253032640032342EE7
:1018680030362E323032342061742031323A313001
:1018780000526967687420466C6F6F6420494F3A5C
:1018880020006E6F7420696E20424C23206D6F64B7
:101898006521004C65667420466C6F6F6420494F63
:1018A8003A2000454550524F4D57524954455445EA
:1018B80053540056534339305F4C414D50545241B4
:1018C8005900454E41424C4553485554444F574E94
:1018D80000454550524F4D524541445445535400DC
:1018E800563930304C414D50545241592C00464CD9
:1018F8004F4F44494F53544154455300563930468D
:10190800726F6E744F56442C005638304C414D500F
:10191800545241592C005639304C414D5054524183
:10192800592C004153544F4B45534C45442C0042CD
:101938005554544F4E52454144005452414E53461B
:101948004C4F4F44005245534554464C4F4F44006A
:101958004745544D414348494E45005345544D4130
:101968004348494E45005452414E53434845434B22
:1019780000446562756767696E670052656C6561EA
:1019880073656420005638305452414E532C00562B
:1019980039305452414E532C005245534554464F0A
:1019A800564400464C4F4F44534F4646005452410C
:1019B8004E53534F414B004C464C4F4F444C564CA2
:1019C8000052464C4F4F444C564C00424C554547EC
:1019D8005245454E0053455446494C5445520053D0
:1019E800455453544F4B4553004C464C4F4F445667
:1019F80049530052464C4F4F4456495300524553A1
:101A080045544C454E530052454144564F4C54534F
:101A18000052454144574154545300464F5644538D
:101A2800484946540053504F54534849465400536C
:101A38004944455249474854005452414E53494E2F
:101A4800495400574849544553504F540054524143
:101A58004E5353504F5400524553455453504F54CE
:101A68000044454C415954455354004C464C4F4F43
:101A780044494E560052464C4F4F44494E56005327
:101A8800504F544C454441580053504F544C4544D2
:101A98004258003030303031312025640031313146
:101AA80031313120256400424F4F544C4F4144009E
:101AB80052656C6561736564007768617420697349
:101AC8002000585953544147452C004153544F4B1B
:101AD80045532C0053504F544C4154410053504FE0
:101AE800544C4154420052454144464F56440054D8
:101AF80052414E534F46460052454144414D505382
:101B080000534944454C454654004B4559504144BF
:101B18002C004C464C4F4F442C0052464C4F4F44DF
:101B28002C00454550524F4D2C00302E30332E306E
:101B3800300044454550524544005452414E53529A
:101B4800440053504F544F4646004F5644434F4E5F
:101B580046004C5354415455530053535441545523
:101B68005300286E756C6C2900203D2C2E0A0D0040
:101B78004552524F522C0041535245414400464170
:101B880052524544004C4255494C44005244464F39
:101B98005644004F56444F4646004153484947482B
:101BA80000425554544F4E0056494F4C4554004935
:101BB8004E5445585400257520257500202C2E0AB2
:101BC8000D002E25303264005A4F4F4D2C005445DD
:101BD8004D502C0053504F542C004952393430008A
:101BE800495238353000495237383000495239386F
:101BF8003000565343393000555632353500555666
:101C08003336350055563330380052464F56440067
:101C180053464F5644004C4441544500575249548A
:101C28004500415344494D00414D424552004153FE
:101C38005645520042454550580025322E3166001F
:101C48004C4D532C00524D532C00504441430053EB
:101C5800594E4300424155440053494445005459A4
:101C68005045004741544500424C5545004C4558A5
:101C7800450050574D460043334D4D0043344D4DBC
:101C880000454E554D004359414E004245455000D0
:101C980054454D500050574D500043335050004369
:101CA80034505000585750500041444452004C564C
:101CB800455200434F41580049462300424C2300F7
:101CC80043332B0043342B0058572B0043332D004C
:101CD80043342D00415330004153310055563100F3
:101CE80057313200415332005556320043313C00DF
:101CF80043333C0043343C0043313E0043333E0011
:101D080043343E0043313F0043333F0043343F00F8
:101D18004D3F3F00533F3F00593F3F0056433F0070
:101D280047443F004C443F0056443F00564C3F0058
:101D3800454E3F004F503F004C513F0058523F0026
:101D480041533F004B543F004C4C40004643420037
:101D5800493243004153440043314600433148006F
:101D68004333480043344800434E48004153480039
:101D780043314C0043334C0043344D0050574D0021
:101D880043314F0043334F00433150004334500038
:101D980053485000494352004331530043335300E2
:101DA800494E54004F55540049525700433158008A
:101DB800433358004952580043315A0043335A00BC
:101DC80043345A005A237E005430004331005031C6
:101DD800005731005032005532005732004333006B
:101DE8004B33005533004334005034004B3500501A
:101DF80035005036005037005038005039005042F6
:101E0800005842004B4300504300544300474400ED
:101E18004345004745005345005446005449004B8C
:101E28004B00494E00534E00544F004351004C5153
:101E3800004952005452004C53005253005353006F
:071E48004B54005857000045
:101E5000660EE126000EE222010E0001996F380E97
:101E600002018019D8A457D0FB0EE36AFB0EE350A1
:101E7000556E566A120E5524D96E010E5620DA6E32
:101E8000FB0EE350556E566A800E5524E96E020E25
:101E90005620EA6EEF50E66EC5ECA9F04B50DF6EAF
:101EA000FB0EE32AFB0EE3CF4BF0110E4B64DED7A3
:101EB0002D6A85EC94F0FF0EE36A2D50D8B402D061
:101EC000B19018D0B186B19CB19EB188B18AB1925F
:101ED000B190A192B36AB26AB18001D00000A1A210
:101EE000FDD7FF0EE32AFF0EE3CF4BF059504B5CBA
:101EF000D8A0E3D7FF0EE3CF4BF059504B5CD8B0DE
:101F000003D0E5ECA6F004D0300EE66E7DEC98F040
:101F10002D6AE7EF31F03A0E8019D8A489D000017C
:101F20009005D8A47DD0FB0EE36AFB0EE350020DB2
:101F3000810EF324D96E020EF420DA6EDF50D8B48D
:101F400034D0FB0EE350020D820EF324D96E020E44
:101F5000F420DA6EDF50D8B428D0FB0EE350020D27
:101F6000810EF324556E020EF420566E55C0E6FF26
:101F700056C0E6FF58ECA6F0FB0EE3CF56F0D50EA8
:101F8000E124536EFF0EE220546E56505324D96E56
:101F9000000E5420DA6E4BC0DFFFFB0EE32AFB0E6F
:101FA000E3CF4BF0140E4B64C0D7FB0EE350D8B414
:101FB000E7EF31F0FB0EE350E66ED40EE1244B6EFA
:101FC000FF0EE2204C6E4BC0E6FF4CC0E6FF5C0EFD
:101FD000E66EDFEC95F0010EE66E990EE1244B6E95
:101FE000FF0EE2204C6E4BC0E6FF4CC0E6FF040E35
:101FF000E66E6CEC92F09A0EE350D8A4E7EF31F065
:102000000B0E4B6E620EE82EFED74B2EFCD700D087
:10201000000EE66E7DEC98F00001996BE7EF31F071
:102020008A0EE66E180EE66E6AECA3F0E7EF31F06A
:10203000FB0EE36A41D0FB0EE350556E566A120E5A
:102040005524D96E010E5620DA6EFB0EE350556E04
:10205000566A800E5524E96E020E5620EA6EEF5045
:10206000E66EC5ECA9F04B50DF6EDF50566EFD0EEC
:1020700056C0E3FFFD0EE350D8B42BD0FD0EE3CFE6
:102080004BF00A0E4B18D8B424D0FD0EE3CF4BF022
:10209000200E4B18D8B41DD0FD0EE3CF4BF03D0EF3
:1020A0004B18D8B416D0FD0EE3CF4BF03A0E4B18B8
:1020B000D8B40FD0FB0EE32AFB0EE350556E566AE0
:1020C000800E5524D96E020E5620DA6EDF50D8A449
:1020D000B2D7FB0EE350556E566A120E5524D96ED8
:1020E000010E5620DA6EDF6A800E556E020E566EB5
:1020F000010E5526000E5622FB0EE3505526000E0B
:102100005622F80E56C0E3FFF70E55C0E3FFFB0E54
:10211000E350556E566A810E5524536E020E5620BA
:10212000546E53C0E6FF54C0E6FF000EE66E030E89
:10213000E66E13EC9FF0FE0EE36A48D0FB0EE35010
:10214000556E566A800E5524D96E020E5620DA6EF0
:10215000DF50E66E9FECA6F04BB01ED0FB0EE350B6
:10216000556E566A800E5524D96E020E5620DA6ED0
:10217000DF50E66E3EECA8F04BB00ED0FB0EE35005
:10218000556E566A800E5524D96E020E5620DA6EB0
:102190002D0EDE18D8A418D0FB0EE350556E566AEB
:1021A000800E5524D96E020E5620DA6EFE0EE350D4
:1021B000556E566A000E5524E96E020E5620EA6EE0
:1021C000DFCFEFFFFE0EE32AFB0EE32AFB0EE35008
:1021D000556E566A800E5524D96E020E5620DA6E60
:1021E000200EDF60ABD7FE0EE350556E566A000E30
:1021F0005524D96E020E5620DA6EDF6A1F0E0201D8
:1022000000650DD0000EE66E020EE66E32EC7FF039
:10221000F50E4BC0E3FFF60E4CC0E3FF0AD0FF0EF5
:10222000556E7F0E566EF50E55C0E3FFF60E56C086
:10223000E3FFC40EE66E1C0EE66E120EE66E010E95
:10224000E66E1CEC8CF04B504C10D8A465D0000E00
:10225000E66E020EE66EC5ECA1F04B504C10D8B401
:1022600056D0C10EE66E180EE66E000EE66E020E39
:10227000E66E1CEC8CF04B504C10D8A444D0570E9A
:10228000E66E4F0EE66E4E0EE66E5B0EE66EC3EC2D
:10229000A5F03C0EE66E7DEC98F0150E4C6E4B0EE4
:1022A0004B6EBE0EE82EFED74B2EFCD74C2EFAD727
:1022B00000D0320E566EFE0E56C0E3FF050E4C6E79
:1022C0000F0E4B6EF10EE82EFED74B2EFCD74C2E88
:1022D000FAD70000FE0EE306FE0EE350D8B406D097
:1022E0001FECA9F0620E4B18D8A4E8D7FE0EE350FD
:1022F000D8B409D03E0EE66E7DEC98F0010E0001D8
:10230000906FE7EF31F00001906BE7EF31F0F29E54
:1023100080EC00F0E7EF31F08E0EE66E1B0EE66EFD
:10232000120EE66E010EE66E1CEC8CF04B504C105B
:10233000D8B40ED0240EE66E1D0EE66E120EE66EBA
:10234000010EE66E1CEC8CF04B504C10D8A408D05B
:10235000320EE66E1B0EE66E5EECA0F0E7EF31F09B
:102360001F0EE66E1C0EE66E120EE66E010EE66E97
:102370001CEC8CF04B504C10D8B40ED0300EE66EE6
:102380001D0EE66E120EE66E010EE66E1CEC8CF073
:102390004B504C10D8A412D0830EE66E190EE66E88
:1023A0005EECA0F0200EE66E7DEC98F0650EE66E19
:1023B000180EE66E5EECA0F0E7EF31F0660EE66E0A
:1023C0001C0EE66E120EE66E010EE66E1CEC8CF034
:1023D0004B504C10D8A408D0FA0EE66E1B0EE66ED9
:1023E0006AECA3F0E7EF31F05C0EE66E1C0EE66ED1
:1023F000120EE66E010EE66E1CEC8CF04B504C108B
:10240000D8A42DD0F60EE3BE0AD0F60EE35011E1AB
:10241000F50EE3CF4BF00A0E4B5ED8B00AD00A0E91
:10242000556E000E566EF50E55C0E3FFF60E56C003
:10243000E3FFF60EE3BE0ED0F60EE304D8A00AD0FA
:10244000FF0E556E000E566EF50E55C0E3FFF60EEC
:1024500056C0E3FFF50EE3CF98F0E7EF31F0E30E5F
:10246000E66E180EE66E120EE66E010EE66E1CECBF
:102470008CF04B504C10D8A407D0F50EE350E66E0C
:1024800039ECA3F0E7EF31F0890EE66E1C0EE66E34
:10249000120EE66E010EE66E1CEC8CF04B504C10EA
:1024A000D8B40ED0380EE66E1D0EE66E120EE66E35
:1024B000010EE66E1CEC8CF04B504C10D8A4FAD0F8
:1024C000580EE66E4BECA9F04B50D8A406D0CA0EBD
:1024D000E66E1A0EE66E6AECA3F0860EE66E4BEC24
:1024E000A9F04B50D8A406D01A0EE66E1B0EE66E6D
:1024F0006AECA3F0980EE66E4BECA9F04B50D8A412
:1025000006D0220EE66E1B0EE66E6AECA3F0840E79
:10251000E66E4BECA9F04B50D8A406D0480EE66E00
:102520001C0EE66E6AECA3F09A0EE66E4BECA9F078
:102530004B50D8A406D04D0EE66E1C0EE66E6AEC2B
:10254000A3F05F50E66E4BECA9F04B50D8A406D038
:10255000DC0EE66E1B0EE66E6AECA3F0460EE66E2F
:102560004BECA9F04B50D8A406D08D0EE66E190E98
:10257000E66E6AECA3F0E80EE66E4BECA9F04B5069
:10258000D8A406D0970EE66E190EE66E6AECA3F09C
:10259000500EE66E4BECA9F04B50D8A406D0110EAD
:1025A000E66E190EE66E6AECA3F0520EE66E4BEC88
:1025B000A9F04B50D8A406D0E80EE66E180EE66ED1
:1025C0006AECA3F0540EE66E4BECA9F04B50D8A485
:1025D00006D01E0EE66E190EE66E6AECA3F0400EF3
:1025E000E66E4BECA9F04B50D8A406D0D30EE66EA5
:1025F0001A0EE66E6AECA3F05E50E66E4BECA9F0A4
:102600004B50D8A406D0D60EE66E1B0EE66E6AECD2
:10261000A3F0800EE66E4BECA9F04B50D8A406D088
:10262000D00EE66E1B0EE66E6AECA3F0A00EE66E10
:102630004BECA9F04B50D8A406D02A0EE66E1B0E28
:10264000E66E6AECA3F0110EE66E4BECA9F04B506F
:10265000D8A406D0120EE66E1B0EE66E6AECA3F04E
:102660004E0EE66E4BECA9F04B50D8A406D02B0EC4
:10267000E66E190EE66E6AECA3F05D50E66E4BEC6A
:10268000A9F04B50D8A406D0040EE66E190EE66EE3
:102690006AECA3F00D0EE66E4BECA9F04B50D8A4FB
:1026A000E7EF31F0780EE66E1B0EE66E6AECA3F0F3
:1026B000E7EF31F0620EE66E1B0EE66E120EE66E6E
:1026C000010EE66E1CEC8CF04B504C10D8B40ED0C2
:1026D0001C0EE66E1D0EE66E120EE66E010EE66E26
:1026E0001CEC8CF04B504C10D8A408D01C0EE66E9D
:1026F0001D0EE66E59EC83F0E7EF31F02D0EE66E1D
:102700001E0EE66E120EE66E010EE66E1CEC8CF0EE
:102710004B504C10D8A405D0F50EE3CF2CF0E7EFCA
:1027200031F01E0EE66E1E0EE66E120EE66E010E05
:10273000E66E1CEC8CF04B504C10D8A405D0F50E76
:10274000E3CF97F0E7EF31F0180EE66E1D0EE66E60
:10275000120EE66E010EE66E1CEC8CF04B504C1027
:10276000D8A416D0FC0EE36A1A501B10D8A404D0CB
:1027700018501910D8B403D0FC0EE36AE384FC0EA1
:10278000E350E66E000EE66E6DEC84F0E7EF31F09C
:102790009E0EE66E1B0EE66E120EE66E010EE66EE5
:1027A0001CEC8CF04B504C10D8B40ED0C00EE66E22
:1027B0001C0EE66E120EE66E010EE66E1CEC8CF040
:1027C0004B504C10D8A40CD0010EE66E35ECA2F0A4
:1027D000000EE66E000EE66E6DEC84F0E7EF31F071
:1027E000540EE66E1D0EE66E120EE66E010EE66EDD
:1027F0001CEC8CF04B504C10D8A40AD02D50D8A40F
:1028000081EF0FF0300EE66E7DEC98F0E7EF31F0DF
:10281000300EE66E1E0EE66E120EE66E010EE66ECF
:102820001CEC8CF04B504C10D8A405D0F50EE3CF27
:1028300059F0E7EF31F02A0EE66E1E0EE66E120E2C
:10284000E66E010EE66E1CEC8CF04B504C10D8A4DA
:1028500016D0928E80BE2BEF2EF0000E556E566A6B
:10286000F50E55C0E3FFF60E56C0E3FFF50EE3CFBD
:10287000E6FFE3CFE6FF6DEC84F0E7EF31F0180EF2
:10288000E66E1E0EE66E120EE66E010EE66E1CEC95
:102890008CF04B504C10D8A409D000019651E66E34
:1028A000000EE66E6DEC84F0E7EF31F09C0EE66E04
:1028B0001D0EE66E120EE66E010EE66E1CEC8CF03E
:1028C0004B504C10D8A43CD0F50EE3CF4BF0F60E95
:1028D000E3504B10D8B41AD0810EE66E58ECAAF033
:1028E000010EE66E58ECAAF0040EE66E58ECAAF063
:1028F000010EE66E58ECAAF0020EE66E58ECAAF055
:10290000FF0EE66E58ECAAF0E7EF31F0810EE66EAE
:1029100058ECAAF0010EE66E58ECAAF0040EE66E32
:1029200058ECAAF0010EE66E58ECAAF0030EE66E23
:1029300058ECAAF0FF0EE66E58ECAAF0E7EF31F083
:10294000930EE66E1C0EE66E120EE66E010EE66E3D
:102950001CEC8CF04B504C10D8A409D0F70EE3CFF0
:10296000E6FFE3CFE6FF60EC59F0E7EF31F03C0E15
:10297000E66E1C0EE66E120EE66E010EE66E1CECA6
:102980008CF04B504C10D8A4F0EF19F00F0EE66EFF
:10299000000EE66E000EE66E000EE66E960EE66E19
:1029A000000EE66E000EE66E000EE66E610EE66E3E
:1029B000080EE66E93EC5EF00F0EE66E000EE66E0D
:1029C000000EE66E000EE66E960EE66E000EE66EE9
:1029D000000EE66E000EE66E770EE66E070EE66EF1
:1029E00093EC5EF00F0EE66E000EE66E000EE66EE5
:1029F000000EE66E960EE66E000EE66E000EE66EB9
:102A0000000EE66EA60EE66E060EE66E93EC5EF027
:102A10000F0EE66E000EE66E000EE66E000EE66E1F
:102A2000960EE66E000EE66E000EE66E000EE66E88
:102A3000770EE66E070EE66E93EC5EF00F0EE66E16
:102A4000000EE66E000EE66E000EE66E2C0EE66ED2
:102A5000010EE66E000EE66E000EE66E610EE66E8C
:102A6000080EE66E93EC5EF00F0EE66E000EE66E5C
:102A7000000EE66E000EE66E2C0EE66E010EE66EA1
:102A8000000EE66E000EE66EA00EE66E050EE66E19
:102A900093EC5EF00F0EE66E000EE66E000EE66E34
:102AA000000EE66E2C0EE66E010EE66E000EE66E71
:102AB000000EE66EA60EE66E060EE66E93EC5EF077
:102AC0000F0EE66E000EE66E000EE66E000EE66E6F
:102AD0002C0EE66E010EE66E000EE66E000EE66E41
:102AE000310EE66E040EE66E93EC5EF00F0EE66EAF
:102AF000000EE66E000EE66E000EE66E2C0EE66E22
:102B0000010EE66E000EE66E000EE66EA00EE66E9C
:102B1000050EE66E93EC5EF00F0EE66E000EE66EAE
:102B2000000EE66E000EE66E2C0EE66E010EE66EF0
:102B3000000EE66E000EE66EA60EE66E060EE66E61
:102B400093EC5EF00F0EE66E000EE66E000EE66E83
:102B5000000EE66E960EE66E000EE66E000EE66E57
:102B6000000EE66EA00EE66E050EE66E93EC5EF0CD
:102B70000F0EE66E000EE66E000EE66E000EE66EBE
:102B8000960EE66E000EE66E000EE66E000EE66E27
:102B9000470EE66E060EE66E93EC5EF00F0EE66EE6
:102BA000000EE66E000EE66E000EE66E960EE66E07
:102BB000000EE66E000EE66E000EE66EA60EE66EE7
:102BC000060EE66E93EC5EF00F0EE66E000EE66EFD
:102BD000000EE66E000EE66E960EE66E000EE66ED7
:102BE000000EE66E000EE66E470EE66E060EE66E10
:102BF00093EC5EF00F0EE66E000EE66E000EE66ED3
:102C0000000EE66E2C0EE66E010EE66E000EE66E0F
:102C1000000EE66EA00EE66E050EE66E93EC5EF01C
:102C20000F0EE66E000EE66E000EE66E000EE66E0D
:102C30002C0EE66E010EE66E000EE66E000EE66EDF
:102C4000610EE66E080EE66E93EC5EF00F0EE66E19
:102C5000000EE66E000EE66E000EE66E2C0EE66EC0
:102C6000010EE66E000EE66E000EE66EA60EE66E35
:102C7000060EE66E93EC5EF00F0EE66E000EE66E4C
:102C8000000EE66E000EE66E2C0EE66E010EE66E8F
:102C9000000EE66E000EE66E400EE66E0B0EE66E61
:102CA00093EC5EF00F0EE66E000EE66E000EE66E22
:102CB000000EE66E2C0EE66E010EE66E000EE66E5F
:102CC000000EE66E680EE66E090EE66E93EC5EF0A0
:102CD0000F0EE66E000EE66E000EE66E000EE66E5D
:102CE0002C0EE66E010EE66E000EE66E000EE66E2F
:102CF000E60EE66E090EE66E93EC5EF00F0EE66EE3
:102D0000000EE66E000EE66E000EE66E960EE66EA5
:102D1000000EE66E000EE66E000EE66E8E0EE66E9D
:102D20000C0EE66E93EC5EF00F0EE66E000EE66E95
:102D3000000EE66E000EE66E960EE66E000EE66E75
:102D4000000EE66E000EE66E400EE66E0B0EE66EB0
:102D500093EC5EF00F0EE66E000EE66E000EE66E71
:102D6000000EE66E960EE66E000EE66E000EE66E45
:102D7000000EE66EE60EE66E090EE66E93EC5EF071
:102D80000F0EE66E000EE66E000EE66E000EE66EAC
:102D9000960EE66E000EE66E000EE66E000EE66E15
:102DA000400EE66E0B0EE66E93EC5EF00F0EE66ED6
:102DB000000EE66E000EE66E000EE66E2C0EE66E5F
:102DC000010EE66E000EE66E000EE66E8E0EE66EEC
:102DD0000C0EE66E93EC5EF00F0EE66E000EE66EE5
:102DE000000EE66E000EE66E2C0EE66E010EE66E2E
:102DF000000EE66E000EE66E610EE66E080EE66EE2
:102E000093EC5EF00F0EE66E000EE66E000EE66EC0
:102E1000000EE66E2C0EE66E010EE66E000EE66EFD
:102E2000000EE66EE60EE66E090EE66E93EC5EF0C0
:102E30000F0EE66E000EE66E000EE66E000EE66EFB
:102E40002C0EE66E010EE66E000EE66E000EE66ECD
:102E5000470EE66E060EE66E93EC5EF00F0EE66E23
:102E6000000EE66E000EE66E000EE66E2C0EE66EAE
:102E7000010EE66E000EE66E000EE66E610EE66E68
:102E8000080EE66E93EC5EF00F0EE66E000EE66E38
:102E9000000EE66E000EE66E2C0EE66E010EE66E7D
:102EA000000EE66E000EE66EE60EE66E090EE66EAB
:102EB00093EC5EF00F0EE66E000EE66E000EE66E10
:102EC000000EE66E960EE66E000EE66E000EE66EE4
:102ED000000EE66E610EE66E080EE66E93EC5EF096
:102EE0000F0EE66E000EE66E000EE66E000EE66E4B
:102EF000960EE66E000EE66E000EE66E000EE66EB4
:102F0000680EE66E090EE66E93EC5EF00F0EE66E4E
:102F1000000EE66E000EE66E000EE66E960EE66E93
:102F2000000EE66E000EE66E000EE66EE60EE66E33
:102F3000090EE66E93EC5EF00F0EE66E000EE66E86
:102F4000000EE66E000EE66E960EE66E000EE66E63
:102F5000000EE66E000EE66E680EE66E090EE66E78
:102F600093EC5EF00F0EE66E000EE66E000EE66E5F
:102F7000000EE66E2C0EE66E010EE66E000EE66E9C
:102F8000000EE66E610EE66E080EE66E93EC5EF0E5
:102F90000F0EE66E000EE66E000EE66E000EE66E9A
:102FA0002C0EE66E010EE66E000EE66E000EE66E6C
:102FB0008F0EE66E0C0EE66E93EC5EF00F0EE66E74
:102FC000000EE66E000EE66E000EE66E2C0EE66E4D
:102FD000010EE66E000EE66E000EE66EE60EE66E82
:102FE000090EE66E93EC5EF00F0EE66E000EE66ED6
:102FF000000EE66E000EE66E2C0EE66E010EE66E1C
:10300000000EE66E000EE66EEE0EE66E0E0EE66E3C
:1030100093EC5EF00F0EE66E000EE66E000EE66EAE
:10302000000EE66E2C0EE66E010EE66E000EE66EEB
:10303000000EE66E8E0EE66E0C0EE66E93EC5EF003
:103040000F0EE66E000EE66E000EE66E000EE66EE9
:103050002C0EE66E010EE66E000EE66E000EE66EBB
:10306000C10EE66E110EE66E93EC5EF00F0EE66E8C
:10307000000EE66E000EE66E000EE66E960EE66E32
:10308000000EE66E000EE66E000EE66EEE0EE66ECA
:103090000E0EE66E93EC5EF00F0EE66E000EE66E20
:1030A000000EE66E000EE66E960EE66E000EE66E02
:1030B000000EE66E000EE66E4D0EE66E0D0EE66E2E
:1030C00093EC5EF00F0EE66E000EE66E000EE66EFE
:1030D000000EE66E960EE66E000EE66E000EE66ED2
:1030E000000EE66E040EE66E0D0EE66E93EC5EF0DC
:1030F0000F0EE66E000EE66E000EE66E000EE66E39
:10310000960EE66E000EE66E000EE66E000EE66EA1
:103110004D0EE66E0D0EE66E93EC5EF00F0EE66E53
:10312000000EE66E000EE66E000EE66E2C0EE66EEB
:10313000010EE66E000EE66E000EE66EEE0EE66E18
:103140000E0EE66E93EC5EF00F0EE66E000EE66E6F
:10315000000EE66E000EE66E2C0EE66E010EE66EBA
:10316000000EE66E000EE66EE00EE66E080EE66EEF
:1031700093EC5EF00F0EE66E000EE66E000EE66E4D
:10318000000EE66E2C0EE66E010EE66E000EE66E8A
:10319000000EE66EE90EE66E090EE66E93EC5EF04A
:1031A0000F0EE66E000EE66E000EE66E000EE66E88
:1031B0002C0EE66E010EE66E000EE66E000EE66E5A
:1031C000770EE66E070EE66E93EC5EF00F0EE66E7F
:1031D000000EE66E000EE66E000EE66E2C0EE66E3B
:1031E000010EE66E000EE66E000EE66EE90EE66E6D
:1031F000090EE66E93EC5EF00F0EE66E000EE66EC4
:10320000000EE66E000EE66E2C0EE66E010EE66E09
:10321000000EE66E000EE66E470EE66E060EE66ED9
:1032200093EC5EF00F0EE66E000EE66E000EE66E9C
:10323000000EE66E960EE66E000EE66E000EE66E70
:10324000000EE66EE90EE66E090EE66E93EC5EF099
:103250000F0EE66E000EE66E000EE66E000EE66ED7
:10326000960EE66E000EE66E000EE66E000EE66E40
:10327000F70EE66E090EE66E93EC5EF00F0EE66E4C
:10328000000EE66E000EE66E000EE66E960EE66E20
:10329000000EE66E000EE66E000EE66EDF0EE66EC7
:1032A000080EE66E93EC5EF00F0EE66E000EE66E14
:1032B000000EE66E000EE66E960EE66E000EE66EF0
:1032C000000EE66E000EE66EF70EE66E090EE66E76
:1032D00093EC5EF00F0EE66E000EE66E000EE66EEC
:1032E000000EE66E2C0EE66E010EE66E000EE66E29
:1032F000000EE66EE90EE66E090EE66E93EC5EF0E9
:103300000F0EE66E000EE66E000EE66E000EE66E26
:103310002C0EE66E010EE66E000EE66E000EE66EF8
:10332000770EE66E070EE66E93EC5EF00F0EE66E1D
:10333000000EE66E000EE66E000EE66E2C0EE66ED9
:10334000010EE66E000EE66E000EE66EE00EE66E14
:10335000080EE66E93EC5EF00F0EE66E000EE66E63
:10336000000EE66E000EE66E2C0EE66E010EE66EA8
:10337000000EE66E000EE66EA00EE66E050EE66E20
:1033800093EC5EF00F0EE66E000EE66E000EE66E3B
:10339000000EE66E2C0EE66E010EE66E000EE66E78
:1033A000000EE66E770EE66E070EE66E93EC5EF0AC
:1033B0000F0EE66E000EE66E000EE66E000EE66E76
:1033C0002C0EE66E010EE66E000EE66E000EE66E48
:1033D000A60EE66E060EE66E93EC5EF0E7EF31F0B9
:1033E0006B0EE66E1C0EE66E120EE66E010EE66EBB
:1033F0001CEC8CF04B504C10D8A411D0F50EE3CF40
:103400004BF0F60EE3504B10D8B407D02B862B5060
:10341000E66E8AECA9F0E7EF31F02B96F8D71B0E99
:10342000E66E1E0EE66E120EE66E010EE66E1CECE9
:103430008CF04B504C10D8A40ED0F50EE3CF4BF0CF
:10344000F60EE3504B10D8B402D0828401D082949F
:103450009494E7EF31F0570EE66E1C0EE66E120EF6
:10346000E66E010EE66E1CEC8CF04B504C10D8A4AE
:1034700006D0938881A82DEF14F02BEF2EF0CC0E00
:10348000E66E1D0EE66E120EE66E010EE66E1CEC8A
:103490008CF04B504C10D8A430D083ECAAF0F29EA4
:1034A00000000000880EE66ED4EC93F0F50E4BC0E1
:1034B000E3FFF60E4CC0E3FFF60EE3BE0AD0F60EB5
:1034C000E35011E1F50EE3CF4BF0FA0E4B5ED8B0AE
:1034D0000AD0FA0E556E000E566EF50E55C0E3FF7B
:1034E000F60E56C0E3FFF50EE3CFE6FFE3CFE6FFAF
:1034F00005ECA8F0FF00E7EF31F0A90EE66E1B0E19
:10350000E66E120EE66E010EE66E1CEC8CF04B5071
:103510004C10D8A41FD0F50EE3CF4BF0F60EE350BD
:103520004B10D8B40CD0000EE66E000EE66E980E6E
:10353000E66EA0EC9AF0010E2A6EE7EF31F0010E74
:10354000E66E000EE66E980EE66EA0EC9AF02A6A21
:10355000E7EF31F0370EE66E190EE66E120EE66EEC
:10356000010EE66E1CEC8CF04B504C10D8A406D02B
:10357000980EE66ED4EC93F0B4EF2FF0480EE66EA2
:103580001E0EE66E120EE66E010EE66E1CEC8CF060
:103590004B504C10D8A40BD0F50EE3CFE6FFE3CF91
:1035A000E6FF880EE66EA0EC9AF0E7EF31F04C0EE5
:1035B000E66E1D0EE66E120EE66E010EE66E1CEC59
:1035C0008CF04B504C10D8A406D0880EE66ED4EC8C
:1035D00093F0B4EF2FF0270EE66E1E0EE66E120E7D
:1035E000E66E010EE66E1CEC8CF04B504C10D8A42D
:1035F0002CD0880EE66ED4EC93F0F50E4BC0E3FFB2
:10360000F60E4CC0E3FFF60EE3BE0AD0F60EE35012
:1036100011E1F50EE3CF4BF0FA0E4B5ED8B00AD0B5
:10362000FA0E556E000E566EF50E55C0E3FFF60EFF
:1036300056C0E3FFF50EE3CFE6FFE3CFE6FF05EC70
:10364000A8F097928582E7EF31F0E80EE66E1D0E46
:10365000E66E120EE66E010EE66E1CEC8CF04B5020
:103660004C10D8A40FD09894F50EE3CF4BF0F60E83
:10367000E3504B10D8B403D08694E7EF31F0868442
:10368000E7EF31F0F40EE66E1D0EE66E120EE66EFA
:10369000010EE66E1CEC8CF04B504C10D8A40FD0F1
:1036A0009892F50EE3CF4BF0F60EE3504B10D8B4E2
:1036B00003D08682E7EF31F08692E7EF31F00C0E0F
:1036C000E66E1E0EE66E120EE66E010EE66E1CEC47
:1036D0008CF04B504C10D8A40FD09890F50EE3CF3F
:1036E0004BF0F60EE3504B10D8B403D08680E7EFD2
:1036F00031F08690E7EF31F0AD0EE66E1D0EE66E0E
:10370000120EE66E010EE66E1CEC8CF04B504C1067
:10371000D8A40FD0979AF50EE3CF4BF0F60EE350F6
:103720004B10D8B403D0858AE7EF31F0859AE7EFE4
:1037300031F0DF0EE66E1D0EE66E120EE66E010E25
:10374000E66E1CEC8CF04B504C10D8A40FD0979C1C
:10375000F50EE3CF4BF0F60EE3504B10D8B403D088
:10376000859CE7EF31F0858CE7EF31F0EB0EE66EEC
:103770001D0EE66E120EE66E010EE66E1CEC8CF06F
:103780004B504C10D8A40FD0979EF50EE3CF4BF0C2
:10379000F60EE3504B10D8B403D0859EE7EF31F01E
:1037A000858EE7EF31F0A80EE66E1D0EE66E120E66
:1037B000E66E010EE66E1CEC8CF04B504C10D8A45B
:1037C0000FD09292F50EE3CF4BF0F60EE3504B1074
:1037D000D8B403D08982E7EF31F08992E7EF31F076
:1037E000B70EE66E1B0EE66E120EE66E010EE66E6C
:1037F0001CEC8CF04B504C10D8A404D076EC75F037
:10380000E7EF31F0CA0EE66E180EE66E120EE66EA7
:10381000010EE66E1CEC8CF04B504C10D8A405D079
:10382000F50EE3CF95F0E7EF31F0060EE66E1E0ED3
:10383000E66E120EE66E010EE66E1CEC8CF04B503E
:103840004C10D8A40CD0808C929C808CFA0EE66E22
:10385000000EE66E05ECA8F0809CE7EF31F00F0E4D
:10386000E66E1E0EE66E120EE66E010EE66E1CECA5
:103870008CF04B504C10D8A438D0988886A802D031
:10388000010E01D0000E556E566AF50E55C0E3FFCD
:10389000F60E56C0E3FFF50EE3CFE6FFE3CFE6FFFB
:1038A0006DEC84F0200EE66E7DEC98F0988686A68E
:1038B00002D0010E01D0000E556E566AF50E55C0AD
:1038C000E3FFF60E56C0E3FFF50EE3CFE6FFE3CFCE
:1038D000E6FF6DEC84F0200EE66E7DEC98F0928EA3
:1038E00080AE2DEF14F02BEF2EF00F0EE66E1A0EB9
:1038F000E66E120EE66E010EE66E1CEC8CF04B507E
:103900004C10D8A40ED0A4ECA4F04BC0E6FF4CC0E1
:10391000E6FF4DC0E6FF4EC0E6FF7DEC85F0E7EF29
:1039200031F0000EE66E1B0EE66E120EE66E010E14
:10393000E66E1CEC8CF04B504C10D8A40ED0FAEC78
:10394000A4F04BC0E6FF4CC0E6FF4DC0E6FF4EC002
:10395000E6FF7DEC85F0E7EF31F0190EE66E1A0E0A
:10396000E66E120EE66E010EE66E1CEC8CF04B500D
:103970004C10D8A40ED0CFECA4F04BC0E6FF4CC046
:10398000E6FF4DC0E6FF4EC0E6FF7DEC85F0E7EFB9
:1039900031F09D0EE66E1C0EE66E120EE66E010E06
:1039A000E66E1CEC8CF04B504C10D8A41BD0F50EDE
:1039B000E3CFE6FFE3CFE6FF14EC9CF04B50556EEF
:1039C000566A55BE5606D30E55C0E3FFD40E56C0F8
:1039D000E3FFD30EE3CFE6FFE3CFE6FF6DEC84F029
:1039E000E7EF31F07A0EE66E1C0EE66E120EE66E12
:1039F000010EE66E1CEC8CF04B504C10D8A41BD082
:103A0000F50EE3CFE6FFE3CFE6FFC0EC67F04B50E7
:103A1000556E566A55BE5606D10E55C0E3FFD20EFE
:103A200056C0E3FFD10EE3CFE6FFE3CFE6FF6DEC38
:103A300084F0E7EF31F0060EE66E1C0EE66E120E15
:103A4000E66E010EE66E1CEC8CF04B504C10D8A4C8
:103A500028D0010EE66E35ECA2F0030EE66EF40EF1
:103A6000E3CFE6FFE3CFE6FF000EE66E100EE66E54
:103A700091EC42F0E150D00FD96EE250DA6EFF0EB9
:103A8000DA224B50DF12D00EE350556E566A55BE07
:103A9000560655C0E6FF56C0E6FF6DEC84F0E7EF32
:103AA00031F0EE0EE66E1B0EE66E120EE66E010EA5
:103AB000E66E1CEC8CF04B504C10D8A428D0010EB4
:103AC000E66E35ECA2F0030EE66EF40EE3CFE6FFF1
:103AD000E3CFE6FF040EE66E000EE66E91EC42F0D8
:103AE000E150CF0FD96EE250DA6EFF0EDA224B5062
:103AF000DF12CF0EE350556E566A55BE560655C0BE
:103B0000E6FF56C0E6FF6DEC84F0E7EF31F0E80E1B
:103B1000E66E1B0EE66E120EE66E010EE66E1CECF5
:103B20008CF04B504C10D8A428D0010EE66E35EC2A
:103B3000A2F0030EE66EF40EE3CFE6FFE3CFE6FF5E
:103B4000010EE66E000EE66E91EC42F0E150CE0FF3
:103B5000D96EE250DA6EFF0EDA224B50DF12CE0E33
:103B6000E350556E566A55BE560655C0E6FF56C020
:103B7000E6FF6DEC84F0E7EF31F0E20EE66E1B0E2F
:103B8000E66E120EE66E010EE66E1CEC8CF04B50EB
:103B90004C10D8A428D0010EE66E35ECA2F0030E2E
:103BA000E66EF40EE3CFE6FFE3CFE6FF100EE66E1F
:103BB000000EE66E91EC42F0E150CD0FD96EE2506E
:103BC000DA6EFF0EDA224B50DF12CD0EE350556E47
:103BD000566A55BE560655C0E6FF56C0E6FF6DEC68
:103BE00084F0E7EF31F0F40EE66E1B0EE66E120E77
:103BF000E66E010EE66E1CEC8CF04B504C10D8A417
:103C000028D0010EE66E35ECA2F0030EE66EF40E3F
:103C1000E3CFE6FFE3CFE6FF200EE66E000EE66E92
:103C200091EC42F0E150CC0FD96EE250DA6EFF0E0B
:103C3000DA224B50DF12CC0EE350556E566A55BE59
:103C4000560655C0E6FF56C0E6FF6DEC84F0E7EF80
:103C500031F0D90EE66E1D0EE66E120EE66E010E06
:103C6000E66E1CEC8CF04B504C10D8A428D0010E02
:103C7000E66E35ECA2F0030EE66EF40EE3CFE6FF3F
:103C8000E3CFE6FF000EE66E010EE66E91EC42F029
:103C9000E150CB0FD96EE250DA6EFF0EDA224B50B4
:103CA000DF12CB0EE350556E566A55BE560655C010
:103CB000E6FF56C0E6FF6DEC84F0E7EF31F0E20E70
:103CC000E66E1D0EE66E120EE66E010EE66E1CEC42
:103CD0008CF04B504C10D8A428D0010EE66E35EC79
:103CE000A2F0030EE66EF40EE3CFE6FFE3CFE6FFAD
:103CF000000EE66E020EE66E91EC42F0E150CA0F45
:103D0000D96EE250DA6EFF0EDA224B50DF12CA0E85
:103D1000E350556E566A55BE560655C0E6FF56C06E
:103D2000E6FF6DEC84F0E7EF31F0E80EE66E1C0E76
:103D3000E66E120EE66E010EE66E1CEC8CF04B5039
:103D40004C10D8A437D0010EE66E35ECA2F0F50E7B
:103D5000E3CFE6FFE3CFE6FF9B0EE66E1A0EE66EBC
:103D6000B90EE1244B6EFF0EE2204C6E4BC0E6FF15
:103D70004CC0E6FF060EE66ECFEC98F0000EE66E45
:103D8000BC0EE1244B6EFF0EE2204C6E4BC0E6FFF2
:103D90004CC0E6FF58EC5DF0C90EE350556E566A14
:103DA00055BE560655C0E6FF56C0E6FF6DEC84F0E2
:103DB000E7EF31F0390EE66E1E0EE66E120EE66E7D
:103DC000010EE66E1CEC8CF04B504C10D8A437D092
:103DD000010EE66E35ECA2F0F50EE3CFE6FFE3CF81
:103DE000E6FFA50EE66E1A0EE66EAC0EE1244B6EF3
:103DF000FF0EE2204C6E4BC0E6FF4CC0E6FF060E05
:103E0000E66ECFEC98F0000EE66EAF0EE1244B6E3E
:103E1000FF0EE2204C6E4BC0E6FF4CC0E6FF58ECB4
:103E20005DF0BC0EE350556E566A55BE560655C041
:103E3000E6FF56C0E6FF6DEC84F0E7EF31F0BC0E14
:103E4000E66E1D0EE66E120EE66E010EE66E1CECC0
:103E50008CF04B504C10D8A422D0AF0EE36A010E68
:103E6000E66EF60EE3CFE6FFE3CFE6FF58EC5DF03B
:103E7000E150AF0FD96EE250DA6EFF0EDA224B50EE
:103E8000DF12AF0EE350556E566A55BE560655C04A
:103E9000E6FF56C0E6FF6DEC84F0E7EF31F0B00EC0
:103EA000E66E1D0EE66E120EE66E010EE66E1CEC60
:103EB0008CF04B504C10D8A422D0AE0EE36A000E0A
:103EC000E66EF60EE3CFE6FFE3CFE6FF58EC5DF0DB
:103ED000E150AE0FD96EE250DA6EFF0EDA224B508F
:103EE000DF12AE0EE350556E566A55BE560655C0EB
:103EF000E6FF56C0E6FF6DEC84F0E7EF31F0F60E1A
:103F0000E66E180EE66E120EE66E010EE66E1CEC04
:103F10008CF04B504C10D8A41CD0FAEC88F09B0EBF
:103F2000E66E180EE66E5EECA0F005C0E6FF06C079
:103F3000E6FFA1EC74F0790EE66E180EE66E5EEC0C
:103F4000A0F007C0E6FF08C0E6FFA1EC74F0E7EFC1
:103F500031F04D0EE66E190EE66E120EE66E010E93
:103F6000E66E1CEC8CF04B504C10D8B40ED0AB0E5F
:103F7000E66E190EE66E120EE66E010EE66E1CEC93
:103F80008CF04B504C10D8A424D0CAEC68F0E1500F
:103F9000AD0FD96EE250DA6EFF0EDA224B50DF120F
:103FA00040EC70F0E150AD0FD96EE250DA6EFF0ECA
:103FB000DA224B50DF12AD0EE350556E566A55BEF5
:103FC000560655C0E6FF56C0E6FF6DEC84F0E7EFFD
:103FD00031F0D60EE66E1D0EE66E120EE66E010E86
:103FE000E66E1CEC8CF04B504C10D8B40ED0BF0ECB
:103FF000E66E190EE66E120EE66E010EE66E1CEC13
:104000008CF04B504C10D8A432D0030EE66EF40E58
:10401000E3CFE6FFE3CFE6FF3CEC8BF0E150AC0FE3
:10402000D96EE250DA6EFF0EDA224B50DF12010E2B
:10403000E66EF40EE3CFE6FFE3CFE6FF3CEC8BF059
:10404000E150AC0FD96EE250DA6EFF0EDA224B501F
:10405000DF12AC0EE350556E566A55BE560655C07B
:10406000E6FF56C0E6FF6DEC84F0E7EF31F0DC0EC2
:10407000E66E1D0EE66E120EE66E010EE66E1CEC8E
:104080008CF04B504C10D8B40ED0C90EE66E190E01
:10409000E66E120EE66E010EE66E1CEC8CF04B50D6
:1040A0004C10D8A432D0020EE66EF40EE3CFE6FF39
:1040B000E3CFE6FF3CEC8BF0E150AB0FD96EE25062
:1040C000DA6EFF0EDA224B50DF12000EE66EF40EAF
:1040D000E3CFE6FFE3CFE6FF3CEC8BF0E150AB0F24
:1040E000D96EE250DA6EFF0EDA224B50DF12AB0EC1
:1040F000E350556E566A55BE560655C0E6FF56C08B
:10410000E6FF6DEC84F0E7EF31F0FA0EE66E1D0E7F
:10411000E66E120EE66E010EE66E1CEC8CF04B5055
:104120004C10D8B40ED0F10EE66E190EE66E120EDB
:10413000E66E010EE66E1CEC8CF04B504C10D8A4D1
:1041400020D0030EE66EF40EE3CFE6FFE3CFE6FFEA
:104150003CEC8BF0E150AA0FD96EE250DA6EFF0E04
:10416000DA224B50DF12AA0EE350556E566A55BE46
:10417000560655C0E6FF56C0E6FF6DEC84F0E7EF4B
:1041800031F0FD0EE66E1D0EE66E120EE66E010EAD
:10419000E66E1CEC8CF04B504C10D8B40ED0730E65
:1041A000E66E1A0EE66E120EE66E010EE66E1CEC60
:1041B0008CF04B504C10D8A420D0010EE66EF40EBB
:1041C000E3CFE6FFE3CFE6FF3CEC8BF0E150A90F35
:1041D000D96EE250DA6EFF0EDA224B50DF12A90ED2
:1041E000E350556E566A55BE560655C0E6FF56C09A
:1041F000E6FF6DEC84F0E7EF31F0000EE66E1E0E88
:10420000E66E120EE66E010EE66E1CEC8CF04B5064
:104210004C10D8B40ED0FB0EE66E190EE66E120EE0
:10422000E66E010EE66E1CEC8CF04B504C10D8A4E0
:1042300020D0020EE66EF40EE3CFE6FFE3CFE6FFFA
:104240003CEC8BF0E150A80FD96EE250DA6EFF0E15
:10425000DA224B50DF12A80EE350556E566A55BE57
:10426000560655C0E6FF56C0E6FF6DEC84F0E7EF5A
:1042700031F0030EE66E1E0EE66E120EE66E010EB5
:10428000E66E1CEC8CF04B504C10D8B40ED07D0E6A
:10429000E66E1A0EE66E120EE66E010EE66E1CEC6F
:1042A0008CF04B504C10D8A420D0000EE66EF40ECB
:1042B000E3CFE6FFE3CFE6FF3CEC8BF0E150A70F46
:1042C000D96EE250DA6EFF0EDA224B50DF12A70EE3
:1042D000E350556E566A55BE560655C0E6FF56C0A9
:1042E000E6FF6DEC84F0E7EF31F0F30EE66E1A0EA8
:1042F000E66E120EE66E010EE66E1CEC8CF04B5074
:104300004C10D8B40ED0360EE66E1E0EE66E120EAF
:10431000E66E010EE66E1CEC8CF04B504C10D8A4EF
:1043200009D0F70EE3CFE6FFE3CFE6FFCBEC8AF050
:10433000B4EF2FF09B0EE66E1B0EE66E120EE66ECD
:10434000010EE66E1CEC8CF04B504C10D8A417D02C
:10435000A40EC7C0E3FFA50EC8C0E3FFA60EC9C0E8
:10436000E3FFA40EE1244B6EFF0EE2204C6E4BC027
:10437000E6FF4CC0E6FFCBEC8AF0B4EF2FF0840EE2
:10438000E66E1D0EE66E120EE66E010EE66E1CEC7B
:104390008CF04B504C10D8A405D0F50EE3CF4FFF56
:1043A000E8EF13F0400EE66E1D0EE66E120EE66E9E
:1043B000010EE66E1CEC8CF04B504C10D8A422D0B1
:1043C000F50EE350D8B4E7EF31F0F50EE3CF4BF044
:1043D0002B0E4B60E7EF31F0F50EE350D890E83448
:1043E0004B6EF50E4BC0E3FFF60EE350E8344B6E18
:1043F000F60E4BC0E3FFF50EE350E66ED4EC93F0FF
:10440000B4EF2FF0BA0EE66E190EE66E120EE66EDF
:10441000010EE66E1CEC8CF04B504C10D8A406D06C
:1044200083ECAAF02AEC3FF0E7EF31F0B50EE66E30
:10443000190EE66E120EE66E010EE66E1CEC8CF0A6
:104440004B504C10D8A406D083ECAAF0B8EC5AF02C
:10445000E7EF31F0A10EE66E190EE66E120EE66E73
:10446000010EE66E1CEC8CF04B504C10D8B40ED004
:10447000120EE66E1C0EE66E120EE66E010EE66E73
:104480001CEC8CF04B504C10D8A404D021EC93F0D1
:1044900009EF30F0A30EE66E190EE66E120EE66E10
:1044A000010EE66E1CEC8CF04B504C10D8B40ED0C4
:1044B000180EE66E1C0EE66E120EE66E010EE66E2D
:1044C0001CEC8CF04B504C10D8A40DD0010EE66EB5
:1044D00035ECA2F0F70EE3CFE6FFE3CFE6FF2DECDD
:1044E00094F0E7EF31F0940EE66E1B0EE66E120EBE
:1044F000E66E010EE66E1CEC8CF04B504C10D8B4FE
:104500000ED0EE0EE66E1A0EE66E120EE66E010E7E
:10451000E66E1CEC8CF04B504C10D8A404D0E6ECAA
:1045200089F0E7EF31F0230EE66E1A0EE66E120EFA
:10453000E66E010EE66E1CEC8CF04B504C10D8A4CD
:1045400011D0F50EE3CF4BF0F60EE3504B10D8B47C
:1045500004D0420E5D6E430E03D05C0E5D6E5D0EA8
:104560005C6E94D7500EE66E1A0EE66E120EE66E74
:10457000010EE66E1CEC8CF04B504C10D8A40DD004
:10458000010EE66E35ECA2F0F70EE3CFE6FFE3CFC7
:10459000E6FF21EC51F0B4EF2FF0B00EE66E1B0EEB
:1045A000E66E120EE66E010EE66E1CEC8CF04B50C1
:1045B0004C10D8A41ED0310E0001E819D8A411D097
:1045C000010EE66E35ECA2F0F50EE3CFE6FFE3CF89
:1045D000E6FF200EE66E010EE66E02EC8FF0B4EF01
:1045E0002FF0010EE66E000EE66E6DEC84F0E7EF44
:1045F00031F0700EE66E1C0EE66E120EE66E010EC7
:10460000E66E1CEC8CF04B504C10D8A416D0310E3A
:104610000001E919D8A4E5D7010EE66E35ECA2F049
:10462000F50EE3CFE6FFE3CFE6FF100EE66E010ED8
:10463000E66E02EC8FF0B4EF2FF0D30EE66E190E9B
:10464000E66E120EE66E010EE66E1CEC8CF04B5020
:104650004C10D8A416D0310E0001EA19D8A4C1D745
:10466000010EE66E35ECA2F0F50EE3CFE6FFE3CFE8
:10467000E6FF080EE66E010EE66E02EC8FF0B4EF78
:104680002FF08E0EE66E1C0EE66E120EE66E010E1A
:10469000E66E1CEC8CF04B504C10D8A416D0310EAA
:1046A0000001EB19D8A49DD7010EE66E35ECA2F0FF
:1046B000F50EE3CFE6FFE3CFE6FF040EE66E010E54
:1046C000E66E02EC8FF0B4EF2FF0D70EE66E190E07
:1046D000E66E120EE66E010EE66E1CEC8CF04B5090
:1046E0004C10D8A416D0310E0001EC19D8A479D7FB
:1046F000010EE66E35ECA2F0F50EE3CFE6FFE3CF58
:10470000E6FF020EE66E010EE66E02EC8FF0B4EFED
:104710002FF0300EE66E1C0EE66E120EE66E010EE7
:10472000E66E1CEC8CF04B504C10D8A416D0310E19
:104730000001ED19D8A455D7010EE66E35ECA2F0B4
:10474000F50EE3CFE6FFE3CFE6FF010EE66E010EC6
:10475000E66E02EC8FF0B4EF2FF03E0EE66E1B0E0D
:10476000E66E120EE66E010EE66E1CEC8CF04B50FF
:104770004C10D8A416D0310E0001EE19D8A431D7B0
:10478000010EE66E35ECA2F0F50EE3CFE6FFE3CFC7
:10479000E6FF800EE66E000EE66E02EC8FF0B4EFE0
:1047A0002FF03A0EE66E1B0EE66E120EE66E010E4E
:1047B000E66E1CEC8CF04B504C10D8A416D0310E89
:1047C0000001EF19D8A40DD7010EE66E35ECA2F06A
:1047D000F50EE3CFE6FFE3CFE6FF400EE66E000EF8
:1047E000E66E02EC8FF0B4EF2FF0860EE66E1B0E35
:1047F000E66E120EE66E010EE66E1CEC8CF04B506F
:104800004C10D8A416D0310E0001F019D8A4E9D666
:10481000010EE66E35ECA2F0F50EE3CFE6FFE3CF36
:10482000E6FF200EE66E000EE66E02EC8FF0B4EFAF
:104830002FF04B0EE66E1A0EE66E120EE66E010EAD
:10484000E66E1CEC8CF04B504C10D8A416D0310EF8
:104850000001F119D8A4C5D6010EE66E35ECA2F020
:10486000F50EE3CFE6FFE3CFE6FF100EE66E000E97
:10487000E66E02EC8FF0B4EF2FF04A0EE66E1B0EE0
:10488000E66E120EE66E010EE66E1CEC8CF04B50DE
:104890004C10D8A40CD0000EE66E000EE66E000E92
:1048A000E66E000EE66E02EC8FF0B4EF2FF02D0EE8
:1048B000E66E1A0EE66E120EE66E010EE66E1CEC49
:1048C0008CF04B504C10D8A427D0F50EE3CF4BF012
:1048D000F60EE3504B10D8A409D08E0E5E6E8F0EEC
:1048E0000001D36F5A0E5F6E5B0E0FD0F50EE3041E
:1048F0000FE1F60EE350D8A40BD0900E5E6E910E31
:104900000001D36F440E5F6E450E5B6E3C0ED26F9E
:1049100059EC8AF0E7EF31F0F10EE66E1D0EE66E0F
:10492000120EE66E010EE66E1CEC8CF04B504C1035
:10493000D8A40DD0000EE66EF40EE3CFE6FFE3CF71
:10494000E6FF000EE66EFCEC7AF0B4EF2FF0980E66
:10495000E66E1D0EE66E120EE66E010EE66E1CECA5
:104960008CF04B504C10D8A40CD09CEC8EF0E80E80
:10497000566E56C0E6FF000EE66E5EECA0F0E7EF66
:1049800031F0610EE66E1A0EE66E120EE66E010E44
:10499000E66E1CEC8CF04B504C10D8A40BD0F70EEC
:1049A000E3CFE6FFE3CFE6FF56EC9FF09CEC8EF002
:1049B000E7EF31F0980EE66E1C0EE66E120EE66E14
:1049C000010EE66E1CEC8CF04B504C10D8A469D054
:1049D000000EE66E5E50E66E9FECA9F00001D3512A
:1049E000E66E8AECA1F0A20E4BC0E3FFA30E4CC012
:1049F000E3FF040E566EE150A20FD96EE250DA6E5C
:104A0000FF0EDA22562804D0DE52D890DD32DF3293
:104A1000E82EFAD7000EE66E800EE66E3D0EE66ECC
:104A20009F0EE3CFE6FFE3CFE6FF5AECA8F04BC0C2
:104A3000E6FF4CC0E6FF4DC0E6FFB3EC66F0F20EB9
:104A40004BC0E3FFF30E4CC0E3FFF40E4DC0E3FF99
:104A5000F20EE3CFE6FFE3CFE6FFE3CFE6FF420E41
:104A6000E66E1C0EE66EE50EE1244B6EFF0EE220B4
:104A70004C6E4BC0E6FF4CC0E6FF070EE66ECFEC77
:104A800098F0EA0EE1244B6EFF0EE2204C6E4BC014
:104A9000E6FF4CC0E6FF5EECA0F083ECAAF0E7EF87
:104AA00031F05A0EE66E1B0EE66E120EE66E010E29
:104AB000E66E1CEC8CF04B504C10D8B40ED0200E8F
:104AC000E66E1D0EE66E120EE66E010EE66E1CEC34
:104AD0008CF04B504C10D8A408D0200EE66E1D0E62
:104AE000E66E59EC83F0E7EF31F0B60EE66E1C0E81
:104AF000E66E120EE66E010EE66E1CEC8CF04B506C
:104B00004C10D8A404D025ECA5F0E7EF31F08D0EC1
:104B1000E66E1B0EE66E120EE66E010EE66E1CECE5
:104B20008CF04B504C10D8B40ED0340EE66E1D0EE7
:104B3000E66E120EE66E010EE66E1CEC8CF04B502B
:104B40004C10D8A404D0E7EC77F0E7EF31F01E0E5C
:104B5000E66E1C0EE66E120EE66E010EE66E1CECA4
:104B60008CF04B504C10D8A404D04FECA1F0E7EFE0
:104B700031F0750EE66E1C0EE66E120EE66E010E3C
:104B8000E66E1CEC8CF04B504C10D8A40CD0000EF0
:104B9000E66E000EE66E000EE66E5D0EE66EC3EC8F
:104BA000A5F0E7EF31F0520EE66E1B0EE66E120E28
:104BB000E66E010EE66E1CEC8CF04B504C10D8A447
:104BC0000AD033EC97F04B50E66E000EE66E6DECBB
:104BD00084F0E7EF31F0BB0EE66E1C0EE66E120EAF
:104BE000E66E010EE66E1CEC8CF04B504C10D8B407
:104BF0000ED08E0EE66E1A0EE66E120EE66E010EE8
:104C0000E66E1CEC8CF04B504C10D8A413D0010E67
:104C1000E66E35ECA2F0F70EE3CFE6FFE3CFE6FF5A
:104C20006EEC6EF04BC0E6FF4CC0E6FFD6EC7DF0BC
:104C3000B4EF2FF0090EE66E1B0EE66E120EE66E56
:104C4000010EE66E1CEC8CF04B504C10D8B40ED01C
:104C50003F0EE66E1E0EE66E120EE66E010EE66E5C
:104C60001CEC8CF04B504C10D8A40DD0010EE66E0D
:104C700035ECA2F0F50EE3CFE6FFE3CFE6FF37EC2D
:104C800082F0E8EF13F0370EE66E1A0EE66E120EA3
:104C9000E66E010EE66E1CEC8CF04B504C10D8B456
:104CA0000ED0420EE66E1E0EE66E120EE66E010E7F
:104CB000E66E1CEC8CF04B504C10D8A40DD0010EBD
:104CC000E66E35ECA2F0F50EE3CFE6FFE3CFE6FFAC
:104CD000A1EC81F0E8EF13F0610EE66E1C0EE66EBB
:104CE000120EE66E010EE66E1CEC8CF04B504C1072
:104CF000D8A40DD0010EE66E35ECA2F0F70EE3CF8E
:104D0000E6FFE3CFE6FF49EC56F0B4EF2FF0000EDC
:104D1000E66E1C0EE66E120EE66E010EE66E1CECE2
:104D20008CF04B504C10D8B40ED0E40EE66E1C0E36
:104D3000E66E120EE66E010EE66E1CEC8CF04B5029
:104D40004C10D8A40DD0010EE66E35ECA2F0F50E95
:104D5000E3CFE6FFE3CFE6FF08ECA9F0E8EF13F0BE
:104D60000C0EE66E1C0EE66E120EE66E010EE66E80
:104D70001CEC8CF04B504C10D8B40ED0F00EE66EFC
:104D80001C0EE66E120EE66E010EE66E1CEC8CF04A
:104D90004B504C10D8A40DD0010EE66E35ECA2F0AD
:104DA000F50EE3CFE6FFE3CFE6FFF1ECA8F0E8EF86
:104DB00013F0410EE66E1A0EE66E120EE66E010E4E
:104DC000E66E1CEC8CF04B504C10D8B40ED0240E78
:104DD000E66E1E0EE66E120EE66E010EE66E1CEC20
:104DE0008CF04B504C10D8A408D0F6EC90F04B50FF
:104DF000D8B4E8EF13F0F1EF22F06E0EE66E190E64
:104E0000E66E120EE66E010EE66E1CEC8CF04B5058
:104E10004C10D8B40ED0120EE66E1E0EE66E120EB8
:104E2000E66E010EE66E1CEC8CF04B504C10D8A4D4
:104E30000AD034ECA6F04B50E66E000EE66E6DEC38
:104E400084F0E7EF31F0550EE66E1A0EE66E120EA4
:104E5000E66E010EE66E1CEC8CF04B504C10D8B494
:104E60000ED0160EE66E1A0EE66E120EE66E010EED
:104E7000E66E1CEC8CF04B504C10D8A446D09F0E24
:104E8000E36AA00EE36AA10EE36A9F0EE1244B6E73
:104E9000FF0EE2204C6E4BC0E6FF4CC0E6FF9F0EBB
:104EA000E1244B6EFF0EE2204C6E4BC0E6FF4CC07F
:104EB000E6FFF30EE3CFE6FFE3CFE6FF77EC64F027
:104EC0004B50D8A4E8EF13F0A10EE350D8B4E8EFAC
:104ED00013F09F0EE3CF55F0A00EE3CF56F0D8901D
:104EE00056325532D890563255325550E66EA00E95
:104EF000E350E66E55EC91F09F0EE3CFE6FFE3CF73
:104F0000E6FF6DEC84F0E7EF31F0420EE66E190E2D
:104F1000E66E120EE66E010EE66E1CEC8CF04B5047
:104F20004C10D8B40ED0210EE66E1E0EE66E120E98
:104F3000E66E010EE66E1CEC8CF04B504C10D8A4C3
:104F400046D09C0EE36A9D0EE36A9E0EE36A9C0EB9
:104F5000E1244B6EFF0EE2204C6E4BC0E6FF4CC0CE
:104F6000E6FF9C0EE1244B6EFF0EE2204C6E4BC020
:104F7000E6FF4CC0E6FFF30EE3CFE6FFE3CFE6FF2C
:104F800077EC64F04B50D8A4E8EF13F09E0EE3509A
:104F9000D8B4E8EF13F09C0EE3CF55F09D0EE3CFAD
:104FA00056F0D89056325532D89056325532555028
:104FB000E66E9D0EE350E66E4BEC76F09C0EE3CF72
:104FC000E6FFE3CFE6FF6DEC84F0E7EF31F0F70E9C
:104FD000E66E1A0EE66E120EE66E010EE66E1CEC22
:104FE0008CF04B504C10D8B40ED0D00EE66E1D0E87
:104FF000E66E120EE66E010EE66E1CEC8CF04B5067
:105000004C10D8A404D0F6EC90F0E8EF13F0420E68
:10501000E66E1B0EE66E120EE66E010EE66E1CECE0
:105020008CF04B504C10D8B40ED03C0EE66E1E0ED9
:10503000E66E120EE66E010EE66E1CEC8CF04B5026
:105040004C10D8A414D09B0EE36A020EE66EE90E53
:10505000E66E75ECA5F09B0E4BC0E3FF9B0EE35094
:10506000E66E000EE66EA1EC74F0E7EF31F0520E42
:10507000E66E1C0EE66E120EE66E010EE66E1CEC7F
:105080008CF04B504C10D8A414D0030EE66EF40EE6
:10509000E350E66E1DEC77F04B50556E566A55BEE8
:1050A000560655C0E6FF56C0E6FF6DEC84F0E7EF0C
:1050B00031F0F70EE66E1D0EE66E120EE66E010E74
:1050C000E66E1CEC8CF04B504C10D8A483D0F60E3E
:1050D000E3AE04D0F50EE36AF60EE36AF60EE3BE25
:1050E00011D0F60EE3CF4BF0040E4B5ED8A00AD0E1
:1050F000FF0E556E030E566EF50E55C0E3FFF60E0D
:1051000056C0E3FF2E50D8B43CD0F50EE3CFE6FFF7
:10511000E3CFE6FF79ECA4F0F20E4BC0E3FFF30E11
:105120004CC0E3FFF40E4DC0E3FF000EE66E400EF0
:10513000E66E400EE66EEF0EE3CFE6FFE3CFE6FF4E
:10514000E3CFE6FF0AEC72F0F20E4BC0E3FFF30E82
:105150004CC0E3FFF40E4DC0E3FFF20EE3CFE6FFD9
:10516000E3CFE6FFE3CFE6FFB7EC7BF04BC055F0B3
:105170004CC056F0F50E55C0E3FFF60E56C0E3FFE7
:1051800020D0F50EE3CFE6FFE3CFE6FF79ECA4F005
:10519000F20E4BC0E3FFF30E4CC0E3FFF40E4DC024
:1051A000E3FF000EE66E200EE66E400EE66EEF0E9A
:1051B000E3CFE6FFE3CFE6FFE3CFE6FF0AEC72F0D2
:1051C000C3D7F50EE3CFE6FFE3CFE6FFD8ECA0F0C0
:1051D000E8EF13F0360EE66E1C0EE66E120EE66E6B
:1051E000010EE66E1CEC8CF04B504C10D8A43ED057
:1051F000F50EE36AF60EE36AEBECA9F07DECAAF09B
:10520000400EE66E6BECA7F04B50D8A40FD0F50E15
:10521000E350010F4B6EF50E4BC0E3FF4B6AF60EE9
:10522000E3504B204B6EF60E4BC0E3FF77ECAAF039
:10523000EBECA9F07DECAAF04E0EE66E6BECA7F05D
:105240004B50D8A40FD0F50EE350020F4B6EF50E65
:105250004BC0E3FF4B6AF60EE3504B204B6EF60E4D
:105260004BC0E3FF77ECAAF036EF14F0DC0EE66EED
:105270001C0EE66E120EE66E010EE66E1CEC8CF055
:105280004B504C10D8A40CD003EC9EF0010EE66EEF
:105290008DECA8F02F6A0001946B936BE7EF31F06F
:1052A000E00EE66E1C0EE66E120EE66E010EE66E67
:1052B0001CEC8CF04B504C10D8A413D02F50D8B409
:1052C00004D0000EE66E35ECA2F0010EE66E8DEC19
:1052D000A8F02F6AF50EE350E66ED8ECA8F0E7EFE1
:1052E00031F0EC0EE66E1C0EE66E120EE66E010E4E
:1052F000E66E1CEC8CF04B504C10D8A413D02F5001
:10530000D8B404D0000EE66E35ECA2F0010EE66EC5
:105310008DECA8F02F6AF50EE350E66EBFECA8F016
:10532000E7EF31F02A0EE66E1C0EE66E120EE66E08
:10533000010EE66E1CEC8CF04B504C10D8B40ED025
:105340005C0EE66E1D0EE66E120EE66E010EE66E49
:105350001CEC8CF04B504C10D8A407D0010EE66E1C
:105360008DECA8F02F6AE7EF31F0A20EE66E1B0E6F
:10537000E66E120EE66E010EE66E1CEC8CF04B50E3
:105380004C10D8B40ED0740EE66E1D0EE66E120EE2
:10539000E66E010EE66E1CEC8CF04B504C10D8A45F
:1053A00017D04DECA5F04B50D8A4F1EF22F0000E31
:1053B000E66E35ECA2F0000EE66E8DECA8F0010E64
:1053C0002F6EF29E296A0001926BF28EE8EF13F0C5
:1053D0007F0EE66E1B0EE66E120EE66E010EE66E98
:1053E0001CEC8CF04B504C10D8A404D0E8ECA7F087
:1053F00009EF30F0480EE66E1D0EE66E120EE66EF8
:10540000010EE66E1CEC8CF04B504C10D8A40BD067
:10541000C80EE66ECAECA3F04B504C10D8A4F1EFC6
:1054200022F0E8EF13F0E70EE66E190EE66E120EAC
:10543000E66E010EE66E1CEC8CF04B504C10D8A4BE
:105440000DD0F50EE350E66EC80EE66E000EE66E69
:1054500007ECA3F09CEC8EF0E7EF31F0910EE66ED6
:105460001B0EE66E120EE66E010EE66E1CEC8CF064
:105470004B504C10D8A405D0F50EE3CF5AF0E8EF0E
:1054800013F02C0EE66E1D0EE66E120EE66E010E89
:10549000E66E1CEC8CF04B504C10D8A403D05A5044
:1054A0002EEF14F0150EE66E1E0EE66E120EE66E70
:1054B000010EE66E1CEC8CF04B504C10D8A408D0BA
:1054C000F50EE3CFCAF0F60EE3CFCBF0E8EF13F022
:1054D000280EE66E1D0EE66E120EE66E010EE66EEC
:1054E0001CEC8CF04B504C10D8A408D0F50ECAC060
:1054F000E3FFF60ECBC0E3FF36EF14F0500EE66E7E
:105500001D0EE66E120EE66E010EE66E1CEC8CF0C1
:105510004B504C10D8A407D06FEC80F0FC0E4BC061
:10552000E3FFBFEF13F0A40EE66E1C0EE66E120E44
:10553000E66E010EE66E1CEC8CF04B504C10D8A4BD
:1055400009D0F70EE3CFE6FFE3CFE6FFA2EC54F07D
:10555000B4EF2FF0450EE66E1E0EE66E120EE66EEE
:10556000010EE66E1CEC8CF04B504C10D8A415D0FC
:10557000F50EE3CF55F0F60EE3CF56F00A0E5502C6
:10558000F3CF53F0F4CF54F05602F350542653C0E7
:1055900057F054C058F0E7EF31F0EE0EE66E190EFA
:1055A000E66E120EE66E010EE66E1CEC8CF04B50B1
:1055B0004C10D8A415D0F50EE3CF55F0F60EE3CF7E
:1055C00056F00A0E5502F3CF53F0F4CF54F05602C2
:1055D000F350542653C0D0F054C0D1F0E7EF31F06F
:1055E000E50EE66E180EE66E120EE66E010EE66E23
:1055F0001CEC8CF04B504C10D8A408D0F50EE3CF27
:10560000CEF0F60EE3CFCFF0E7EF31F0630EE66EAB
:105610001C0EE66E120EE66E010EE66E1CEC8CF0B1
:105620004B504C10D8A408D0F50EE3CFCCF0F60EBA
:10563000E3CFCDF0E7EF31F0700EE66E1D0EE66EB3
:10564000120EE66E010EE66E1CEC8CF04B504C1008
:10565000D8A40DD04EECA4F008ECA7F0190EE66E1D
:1056600028ECAAF0286A0001916BE8EF13F0D30E42
:10567000E66E1D0EE66E120EE66E010EE66E1CEC78
:105680008CF04B504C10D8A429D0F60EE3BEF1EFAD
:1056900022F0F60EE3BE0BD0F60EE35006E1F50E57
:1056A000E3CF4BF0130E4B5ED8B0F1EF22F0F50EC6
:1056B000E3CF56F05650D40FD96EDA6A310EDE18A9
:1056C000D8A4F1EF22F057C016F058C017F0F50E2D
:1056D000E350E66E09EC9AF0E8EF13F00C0EE66E7C
:1056E0001D0EE66E120EE66E010EE66E1CEC8CF0E0
:1056F0004B504C10D8A40DD027C055F0566A55BE5B
:10570000560655C0E6FF56C0E6FF6DEC84F0E7EFA5
:1057100031F0000EE66E1D0EE66E120EE66E010E04
:10572000E66E1CEC8CF04B504C10D8A42AD0F29AA8
:10573000800EE66ED4EC93F0F90E4BC0E3FFFA0E48
:105740004CC0E3FFF90EE350010F4B6EF90E4BC056
:10575000E3FF4B6AFA0EE3504B204B6EFA0E4BC040
:10576000E3FFF90EE3CFE6FFE3CFE6FF800EE66E40
:10577000A0EC9AF0040E266E18681968F28AE7EF1A
:1057800031F0F40EE66E1C0EE66E120EE66E010EA1
:10579000E66E1CEC8CF04B504C10D8A425D0F29A3D
:1057A000800EE66ED4EC93F0F90E4BC0E3FFFA0ED8
:1057B0004CC0E3FFE150F90FD96EE250DA6EFF0EF4
:1057C000DA22DE06000EDD5AF90EE3CFE6FFE3CF64
:1057D000E6FF800EE66EA0EC9AF0040E266E000E38
:1057E000196E010E186ECAD7330EE66E1E0EE66EE7
:1057F000120EE66E010EE66E1CEC8CF04B504C1057
:10580000D8A40CD000018485040E266EF50EE3CFDB
:1058100018F0F60EE3CF19F0E7EF31F0C00EE66EA8
:105820001D0EE66E120EE66E010EE66E1CEC8CF09E
:105830004B504C10D8A40AD0000EE66E000EE66E57
:10584000800EE66EA0EC9AF0E7EF31F0880EE66E7F
:105850001D0EE66E120EE66E010EE66E1CEC8CF06E
:105860004B504C10D8A413D0800EE66ED4EC93F0BD
:10587000F90E4BC0E3FFFA0E4CC0E3FFF90EE3CF85
:10588000E6FFE3CFE6FF6DEC84F0E7EF31F0640E66
:10589000E66E1D0EE66E120EE66E010EE66E1CEC56
:1058A0008CF04B504C10D8A404D04EECA4F0E8EF90
:1058B00013F0B40EE66E1D0EE66E120EE66E010ECD
:1058C000E66E1CEC8CF04B504C10D8A405D09286A0
:1058D00080A62DEF14F0BFD1A00EE66E1D0EE66E71
:1058E000120EE66E010EE66E1CEC8CF04B504C1066
:1058F000D8A409D0939AF50EE3B002D0819A01D0D2
:10590000818AE7EF31F0780EE66E1D0EE66E120E1C
:10591000E66E010EE66E1CEC8CF04B504C10D8A4D9
:1059200008D0F50EE3B002D0839601D08386E7EF6E
:1059300031F0600EE66E1D0EE66E120EE66E010E82
:10594000E66E1CEC8CF04B504C10D8B40ED0900E80
:10595000E66E1D0EE66E120EE66E010EE66E1CEC95
:105960008CF04B504C10D8A40CD09CEC8EF0D40E84
:10597000566E56C0E6FF000EE66E5EECA0F0E7EF56
:1059800031F0DD0EE66E190EE66E120EE66E010EB9
:10599000E66E1CEC8CF04B504C10D8A40BD0F70EDC
:1059A000E3CFE6FFE3CFE6FF99EC9FF09CEC8EF0AF
:1059B000E7EF31F0100EE66E1D0EE66E120EE66E8B
:1059C000010EE66E1CEC8CF04B504C10D8A408D0A5
:1059D0002850E66E000EE66E6DEC84F0E7EF31F0D5
:1059E000E50EE66E1D0EE66E120EE66E010EE66E1A
:1059F0001CEC8CF04B504C10D8A422D0F50EE3CF09
:105A00004BF0F60EE3504B10D8B415D02850D8A464
:105A1000E8EF13F0B9920000040E256E840EE66ED6
:105A2000D4EC93F04BC01AF04CC01BF0010E286E62
:105A3000B982E8EF13F0286A08ECA7F0E8EF13F05A
:105A4000C80EE66E1C0EE66E120EE66E010EE66ED7
:105A50001CEC8CF04B504C10D8A402D0010E01D09D
:105A6000000E546EA20EE66E1C0EE66E120EE66E70
:105A7000010EE66E1CEC8CF04B504C10D8A402D0FA
:105A8000010E01D0000E5410E8A005D02850D8B463
:105A9000C1D7E8EF13F0D40EE66E1C0EE66E120EC0
:105AA000E66E010EE66E1CEC8CF04B504C10D8A448
:105AB00002D0010E01D0000E546E7F0EE66E1C0E59
:105AC000E66E120EE66E010EE66E1CEC8CF04B508C
:105AD0004C10D8A402D0010E01D0000E5410E8B032
:105AE000AAD7040EE66E1D0EE66E120EE66E010ECD
:105AF000E66E1CEC8CF04B504C10D8A425D0B9921B
:105B0000840EE66ED4EC93F0F90E4BC0E3FFFA0E70
:105B10004CC0E3FFE150F90FD96EE250DA6EFF0E90
:105B2000DA22DE06000EDD5AF90EE3CFE6FFE3CF00
:105B3000E6FF840EE66EA0EC9AF0040E256E1A685D
:105B40001B68B982E7EF31F0F80EE66E1C0EE66EC8
:105B5000120EE66E010EE66E1CEC8CF04B504C10F3
:105B6000D8A42AD0B992840EE66ED4EC93F0F90E44
:105B70004BC0E3FFFA0E4CC0E3FFF90EE350010FF8
:105B80004B6EF90E4BC0E3FF4B6AFA0EE3504B200D
:105B90004B6EFA0E4BC0E3FFF90EE3CFE6FFE3CF07
:105BA000E6FF840EE66EA0EC9AF0040E256E000E61
:105BB0001B6E010E1A6EC5D7C40EE66E1D0EE66E84
:105BC000120EE66E010EE66E1CEC8CF04B504C1083
:105BD000D8A409D04F0EE66E010EE66E840EE66E76
:105BE000A0EC9AF0F4D38C0EE66E1D0EE66E120E4B
:105BF000E66E010EE66E1CEC8CF04B504C10D8A4F7
:105C000005D0840EE66ED4EC93F032D6680EE66EC4
:105C10001D0EE66E120EE66E010EE66E1CEC8CF0AA
:105C20004B504C10D8A405D008ECA7F0286AE8EF38
:105C300013F0B80EE66E1D0EE66E120EE66E010E45
:105C4000E66E1CEC8CF04B504C10D8A407D0928818
:105C500080A82DEF14F0010E2EEF14F0A40EE66EC6
:105C60001D0EE66E120EE66E010EE66E1CEC8CF05A
:105C70004B504C10D8A408D0939CF50EE3B002D042
:105C8000819C01D0818CA3D37C0EE66E1D0EE66E46
:105C9000120EE66E010EE66E1CEC8CF04B504C10B2
:105CA000D8A407D0F50EE3B002D0839801D0838842
:105CB0008ED3140EE66E1D0EE66E120EE66E010E0B
:105CC000E66E1CEC8CF04B504C10D8A408D00001B0
:105CD0009151E66E000EE66E6DEC84F078D36C0E9A
:105CE000E66E1D0EE66E120EE66E010EE66E1CEC02
:105CF0008CF04B504C10D8A405D0190EE66E28EC51
:105D0000AAF0B1D4C80EE66E1D0EE66E120EE66E57
:105D1000010EE66E1CEC8CF04B504C10D8A407D052
:105D20001A0EE66E28ECAAF00001916B50D3EE0E2D
:105D3000E66E1D0EE66E120EE66E010EE66E1CECB1
:105D40008CF04B504C10D8A411D0F50EE3CF4BF093
:105D5000F60EE3504B10D8B4D0D7150EE66E28ECF3
:105D6000AAF0010E0001916FE8EF13F0CC0EE66E81
:105D70001C0EE66E120EE66E010EE66E1CEC8CF04A
:105D80004B504C10D8A402D0010E01D0000E546E1E
:105D9000A70EE66E1C0EE66E120EE66E010EE66EA5
:105DA0001CEC8CF04B504C10D8A402D0010E01D04A
:105DB000000E5410E8B0D1D7D80EE66E1C0EE66E79
:105DC000120EE66E010EE66E1CEC8CF04B504C1081
:105DD000D8A402D0010E01D0000E546E840EE66EDF
:105DE0001C0EE66E120EE66E010EE66E1CEC8CF0DA
:105DF0004B504C10D8A402D0010E01D0000E54100C
:105E0000E8B07BD7080EE66E1D0EE66E120EE66E4B
:105E1000010EE66E1CEC8CF04B504C10D8A405D053
:105E2000170EE66E28ECAAF0D2D2FC0EE66E1C0E1F
:105E3000E66E120EE66E010EE66E1CEC8CF04B5018
:105E40004C10D8A405D0180EE66E28ECAAF0BFD2EC
:105E5000940EE66E1D0EE66E120EE66E010EE66EF6
:105E60001CEC8CF04B504C10D8A405D01B0EE66EE9
:105E700028ECAAF0ACD2800EE66E1D0EE66E120E75
:105E8000E66E010EE66E1CEC8CF04B504C10D8A464
:105E900005D01C0EE66E28ECAAF099D23D0EE66EF7
:105EA000190EE66E120EE66E010EE66E1CEC8CF01C
:105EB0004B504C10D8A405D02350E66E86EC97F0DA
:105EC000A8D0240EE66E1C0EE66E120EE66E010ED3
:105ED000E66E1CEC8CF04B504C10D8A408D023502C
:105EE000E66EF40EE350E66E36EC9BF070D2B10E27
:105EF000E66E1C0EE66E120EE66E010EE66E1CECF1
:105F00008CF04B504C10D8A404D0F50EE3CF23F006
:105F10005ED2AC0EE66E1D0EE66E120EE66E010E41
:105F2000E66E1CEC8CF04B504C10D8A408D0F70E49
:105F3000E3CFE6FFE3CFE6FF0CEC5CF06AD0580E4F
:105F4000E66E1D0EE66E120EE66E010EE66E1CEC9F
:105F50008CF04B504C10D8A40FD0F70EE3CFE6FFD7
:105F6000E3CFE6FF96EC65F0F50E4BC0E3FFF60ECF
:105F70004CC0E3FF36EF14F0DC0EE66E1A0EE66E50
:105F8000120EE66E010EE66E1CEC8CF04B504C10BF
:105F9000D8A403D0C9ECA7F03CD0E50EE66E1A0EEB
:105FA000E66E120EE66E010EE66E1CEC8CF04B50A7
:105FB0004C10D8A403D0AAECA7F02BD0870EE66E25
:105FC0001A0EE66E120EE66E010EE66E1CEC8CF0FA
:105FD0004B504C10D8A408D0F70EE3CFE6FFE3CF28
:105FE000E6FFCDEC8DF015D0910EE66E1A0EE66E42
:105FF000120EE66E010EE66E1CEC8CF04B504C104F
:10600000D8A40AD0F70EE3CFE6FFE3CFE6FF65ECB6
:106010008DF04B502EEF14F0690EE66E1A0EE66E00
:10602000120EE66E010EE66E1CEC8CF04B504C101E
:10603000D8A43DD0000EE66E000EE66E6DEC84F046
:10604000290E4C6E960E4B6E7F0EE82EFED74B2E11
:10605000FCD74C2EFAD70000000EE66E000EE66E5E
:106060006DEC84F0290E4C6E960E4B6E7F0EE82E72
:10607000FED74B2EFCD74C2EFAD70000000EE66E52
:10608000000EE66E6DEC84F0290E4C6E960E4B6E93
:106090007F0EE82EFED74B2EFCD74C2EFAD70000F1
:1060A000000EE66E000EE66E6DEC84F090D1090EE7
:1060B000E66E1E0EE66E120EE66E010EE66E1CEC2D
:1060C0008CF04B504C10D8A424D0F60EE3AE04D084
:1060D000F50EE36AF60EE36AF60EE3BE13D0F50E94
:1060E000E328F60EE3CF4BF0010E4B5AD8A00AD0AE
:1060F000FE0E556E010E566EF50E55C0E3FFF60E00
:1061000056C0E3FFF50EE3CF82F0F60EE3CF83F047
:106110005ED1440EE66E1D0EE66E120EE66E010EA8
:10612000E66E1CEC8CF04B504C10D8A406D0000E40
:10613000E66E0FEC92F00CEF10F0D90EE66E180E32
:10614000E66E120EE66E010EE66E1CEC8CF04B5005
:106150004C10D8A405D0010EE66E0FEC92F037D1AA
:10616000AB0EE66E180EE66E120EE66E010EE66ED1
:106170001CEC8CF04B504C10D8A40BD0000EE66EEB
:10618000000EE66E000EE66E000EE66E55EC9AF01E
:106190001ED1D00EE66E1C0EE66E120EE66E010EDD
:1061A000E66E1CEC8CF04B504C10D8A402D0010EC3
:1061B00001D0000E546EAC0EE66E1C0EE66E120E92
:1061C000E66E010EE66E1CEC8CF04B504C10D8A421
:1061D00002D0010E01D0000E5410E8A014D000002F
:1061E00083ECAAF002EC88F04B50556E566AF50E1F
:1061F00055C0E3FFF60E56C0E3FFF50EE350E66E22
:106200007DEC98F0E4D04B0EE66E1E0EE66E120E9C
:10621000E66E010EE66E1CEC8CF04B504C10D8A4D0
:1062200009D00000F70EE3CFE6FFE3CFE6FF3EEC38
:106230007AF0DAD74D0EE66E190EE66E120EE66EA5
:10624000010EE66E1CEC8CF04B504C10D8A406D01E
:106250002450E66E02EC87F0E8EF13F0050EE66ED0
:106260001A0EE66E120EE66E010EE66E1CEC8CF057
:106270004B504C10D8A404D01FECA0F0E8EF13F062
